{
  "_format": "hh-sol-artifact-1",
  "contractName": "ColorDropPool",
  "sourceName": "contracts/ColorDropPool.sol",
  "abi": [
    {
      "inputs": [],
      "stateMutability": "nonpayable",
      "type": "constructor"
    },
    {
      "inputs": [],
      "name": "AccessControlBadConfirmation",
      "type": "error"
    },
    {
      "inputs": [
        {
          "internalType": "address",
          "name": "account",
          "type": "address"
        },
        {
          "internalType": "bytes32",
          "name": "neededRole",
          "type": "bytes32"
        }
      ],
      "name": "AccessControlUnauthorizedAccount",
      "type": "error"
    },
    {
      "inputs": [
        {
          "internalType": "address",
          "name": "target",
          "type": "address"
        }
      ],
      "name": "AddressEmptyCode",
      "type": "error"
    },
    {
      "inputs": [],
      "name": "AlreadyInActivePool",
      "type": "error"
    },
    {
      "inputs": [],
      "name": "AlreadySubmitted",
      "type": "error"
    },
    {
      "inputs": [
        {
          "internalType": "address",
          "name": "implementation",
          "type": "address"
        }
      ],
      "name": "ERC1967InvalidImplementation",
      "type": "error"
    },
    {
      "inputs": [],
      "name": "ERC1967NonPayable",
      "type": "error"
    },
    {
      "inputs": [],
      "name": "EnforcedPause",
      "type": "error"
    },
    {
      "inputs": [],
      "name": "ExpectedPause",
      "type": "error"
    },
    {
      "inputs": [],
      "name": "FailedCall",
      "type": "error"
    },
    {
      "inputs": [],
      "name": "InvalidAccuracy",
      "type": "error"
    },
    {
      "inputs": [],
      "name": "InvalidEntryFee",
      "type": "error"
    },
    {
      "inputs": [],
      "name": "InvalidFID",
      "type": "error"
    },
    {
      "inputs": [],
      "name": "InvalidInitialization",
      "type": "error"
    },
    {
      "inputs": [],
      "name": "InvalidTreasuryAddress",
      "type": "error"
    },
    {
      "inputs": [],
      "name": "InvalidVerifierAddress",
      "type": "error"
    },
    {
      "inputs": [],
      "name": "NoPrizeToClaim",
      "type": "error"
    },
    {
      "inputs": [],
      "name": "NotInPool",
      "type": "error"
    },
    {
      "inputs": [],
      "name": "NotInitializing",
      "type": "error"
    },
    {
      "inputs": [],
      "name": "PoolDoesNotExist",
      "type": "error"
    },
    {
      "inputs": [],
      "name": "PoolFull",
      "type": "error"
    },
    {
      "inputs": [],
      "name": "PoolNotActive",
      "type": "error"
    },
    {
      "inputs": [],
      "name": "PoolNotReady",
      "type": "error"
    },
    {
      "inputs": [],
      "name": "PrizeAlreadyClaimed",
      "type": "error"
    },
    {
      "inputs": [],
      "name": "ReentrancyGuardReentrantCall",
      "type": "error"
    },
    {
      "inputs": [],
      "name": "SlotLimitExceeded",
      "type": "error"
    },
    {
      "inputs": [],
      "name": "TransferFailed",
      "type": "error"
    },
    {
      "inputs": [],
      "name": "UUPSUnauthorizedCallContext",
      "type": "error"
    },
    {
      "inputs": [
        {
          "internalType": "bytes32",
          "name": "slot",
          "type": "bytes32"
        }
      ],
      "name": "UUPSUnsupportedProxiableUUID",
      "type": "error"
    },
    {
      "inputs": [],
      "name": "UnauthorizedVerifier",
      "type": "error"
    },
    {
      "anonymous": false,
      "inputs": [
        {
          "indexed": true,
          "internalType": "address",
          "name": "user",
          "type": "address"
        }
      ],
      "name": "ActivePoolIdReset",
      "type": "event"
    },
    {
      "anonymous": false,
      "inputs": [
        {
          "indexed": false,
          "internalType": "uint64",
          "name": "version",
          "type": "uint64"
        }
      ],
      "name": "Initialized",
      "type": "event"
    },
    {
      "anonymous": false,
      "inputs": [
        {
          "indexed": false,
          "internalType": "address",
          "name": "account",
          "type": "address"
        }
      ],
      "name": "Paused",
      "type": "event"
    },
    {
      "anonymous": false,
      "inputs": [
        {
          "indexed": true,
          "internalType": "uint256",
          "name": "poolId",
          "type": "uint256"
        },
        {
          "indexed": true,
          "internalType": "address",
          "name": "player",
          "type": "address"
        },
        {
          "indexed": false,
          "internalType": "uint256",
          "name": "fid",
          "type": "uint256"
        }
      ],
      "name": "PlayerJoined",
      "type": "event"
    },
    {
      "anonymous": false,
      "inputs": [
        {
          "indexed": true,
          "internalType": "uint256",
          "name": "poolId",
          "type": "uint256"
        },
        {
          "indexed": true,
          "internalType": "address",
          "name": "first",
          "type": "address"
        },
        {
          "indexed": true,
          "internalType": "address",
          "name": "second",
          "type": "address"
        },
        {
          "indexed": false,
          "internalType": "address",
          "name": "third",
          "type": "address"
        }
      ],
      "name": "PoolCompleted",
      "type": "event"
    },
    {
      "anonymous": false,
      "inputs": [
        {
          "indexed": true,
          "internalType": "uint256",
          "name": "poolId",
          "type": "uint256"
        },
        {
          "indexed": false,
          "internalType": "bytes32",
          "name": "targetColor",
          "type": "bytes32"
        }
      ],
      "name": "PoolCreated",
      "type": "event"
    },
    {
      "anonymous": false,
      "inputs": [
        {
          "indexed": true,
          "internalType": "uint256",
          "name": "poolId",
          "type": "uint256"
        },
        {
          "indexed": false,
          "internalType": "uint32",
          "name": "startTime",
          "type": "uint32"
        }
      ],
      "name": "PoolStarted",
      "type": "event"
    },
    {
      "anonymous": false,
      "inputs": [
        {
          "indexed": true,
          "internalType": "uint256",
          "name": "poolId",
          "type": "uint256"
        },
        {
          "indexed": true,
          "internalType": "address",
          "name": "winner",
          "type": "address"
        },
        {
          "indexed": false,
          "internalType": "uint8",
          "name": "rank",
          "type": "uint8"
        },
        {
          "indexed": false,
          "internalType": "uint256",
          "name": "amount",
          "type": "uint256"
        }
      ],
      "name": "PrizeClaimed",
      "type": "event"
    },
    {
      "anonymous": false,
      "inputs": [
        {
          "indexed": true,
          "internalType": "address",
          "name": "winner",
          "type": "address"
        },
        {
          "indexed": false,
          "internalType": "uint256",
          "name": "amount",
          "type": "uint256"
        }
      ],
      "name": "PrizePaid",
      "type": "event"
    },
    {
      "anonymous": false,
      "inputs": [
        {
          "indexed": true,
          "internalType": "bytes32",
          "name": "role",
          "type": "bytes32"
        },
        {
          "indexed": true,
          "internalType": "bytes32",
          "name": "previousAdminRole",
          "type": "bytes32"
        },
        {
          "indexed": true,
          "internalType": "bytes32",
          "name": "newAdminRole",
          "type": "bytes32"
        }
      ],
      "name": "RoleAdminChanged",
      "type": "event"
    },
    {
      "anonymous": false,
      "inputs": [
        {
          "indexed": true,
          "internalType": "bytes32",
          "name": "role",
          "type": "bytes32"
        },
        {
          "indexed": true,
          "internalType": "address",
          "name": "account",
          "type": "address"
        },
        {
          "indexed": true,
          "internalType": "address",
          "name": "sender",
          "type": "address"
        }
      ],
      "name": "RoleGranted",
      "type": "event"
    },
    {
      "anonymous": false,
      "inputs": [
        {
          "indexed": true,
          "internalType": "bytes32",
          "name": "role",
          "type": "bytes32"
        },
        {
          "indexed": true,
          "internalType": "address",
          "name": "account",
          "type": "address"
        },
        {
          "indexed": true,
          "internalType": "address",
          "name": "sender",
          "type": "address"
        }
      ],
      "name": "RoleRevoked",
      "type": "event"
    },
    {
      "anonymous": false,
      "inputs": [
        {
          "indexed": true,
          "internalType": "uint256",
          "name": "poolId",
          "type": "uint256"
        },
        {
          "indexed": true,
          "internalType": "address",
          "name": "player",
          "type": "address"
        },
        {
          "indexed": false,
          "internalType": "uint16",
          "name": "accuracy",
          "type": "uint16"
        }
      ],
      "name": "ScoreSubmitted",
      "type": "event"
    },
    {
      "anonymous": false,
      "inputs": [
        {
          "indexed": true,
          "internalType": "address",
          "name": "treasury",
          "type": "address"
        },
        {
          "indexed": false,
          "internalType": "uint256",
          "name": "amount",
          "type": "uint256"
        }
      ],
      "name": "SystemFeePaid",
      "type": "event"
    },
    {
      "anonymous": false,
      "inputs": [
        {
          "indexed": true,
          "internalType": "address",
          "name": "treasury1",
          "type": "address"
        },
        {
          "indexed": true,
          "internalType": "address",
          "name": "treasury2",
          "type": "address"
        }
      ],
      "name": "TreasuryUpdated",
      "type": "event"
    },
    {
      "anonymous": false,
      "inputs": [
        {
          "indexed": false,
          "internalType": "address",
          "name": "account",
          "type": "address"
        }
      ],
      "name": "Unpaused",
      "type": "event"
    },
    {
      "anonymous": false,
      "inputs": [
        {
          "indexed": true,
          "internalType": "address",
          "name": "implementation",
          "type": "address"
        }
      ],
      "name": "Upgraded",
      "type": "event"
    },
    {
      "anonymous": false,
      "inputs": [
        {
          "indexed": true,
          "internalType": "address",
          "name": "user",
          "type": "address"
        },
        {
          "indexed": false,
          "internalType": "bool",
          "name": "verified",
          "type": "bool"
        }
      ],
      "name": "UserVerified",
      "type": "event"
    },
    {
      "anonymous": false,
      "inputs": [
        {
          "indexed": true,
          "internalType": "address",
          "name": "oldVerifier",
          "type": "address"
        },
        {
          "indexed": true,
          "internalType": "address",
          "name": "newVerifier",
          "type": "address"
        }
      ],
      "name": "VerifierUpdated",
      "type": "event"
    },
    {
      "inputs": [],
      "name": "ADMIN_ROLE",
      "outputs": [
        {
          "internalType": "bytes32",
          "name": "",
          "type": "bytes32"
        }
      ],
      "stateMutability": "view",
      "type": "function"
    },
    {
      "inputs": [],
      "name": "DEFAULT_ADMIN_ROLE",
      "outputs": [
        {
          "internalType": "bytes32",
          "name": "",
          "type": "bytes32"
        }
      ],
      "stateMutability": "view",
      "type": "function"
    },
    {
      "inputs": [],
      "name": "ENTRY_FEE",
      "outputs": [
        {
          "internalType": "uint256",
          "name": "",
          "type": "uint256"
        }
      ],
      "stateMutability": "view",
      "type": "function"
    },
    {
      "inputs": [],
      "name": "FINALIZATION_TIMEOUT",
      "outputs": [
        {
          "internalType": "uint256",
          "name": "",
          "type": "uint256"
        }
      ],
      "stateMutability": "view",
      "type": "function"
    },
    {
      "inputs": [],
      "name": "POOL_SIZE",
      "outputs": [
        {
          "internalType": "uint8",
          "name": "",
          "type": "uint8"
        }
      ],
      "stateMutability": "view",
      "type": "function"
    },
    {
      "inputs": [],
      "name": "PRIZE_1ST",
      "outputs": [
        {
          "internalType": "uint256",
          "name": "",
          "type": "uint256"
        }
      ],
      "stateMutability": "view",
      "type": "function"
    },
    {
      "inputs": [],
      "name": "PRIZE_2ND",
      "outputs": [
        {
          "internalType": "uint256",
          "name": "",
          "type": "uint256"
        }
      ],
      "stateMutability": "view",
      "type": "function"
    },
    {
      "inputs": [],
      "name": "PRIZE_3RD",
      "outputs": [
        {
          "internalType": "uint256",
          "name": "",
          "type": "uint256"
        }
      ],
      "stateMutability": "view",
      "type": "function"
    },
    {
      "inputs": [],
      "name": "STORAGE_POOL_SIZE",
      "outputs": [
        {
          "internalType": "uint8",
          "name": "",
          "type": "uint8"
        }
      ],
      "stateMutability": "view",
      "type": "function"
    },
    {
      "inputs": [],
      "name": "SYSTEM_FEE",
      "outputs": [
        {
          "internalType": "uint256",
          "name": "",
          "type": "uint256"
        }
      ],
      "stateMutability": "view",
      "type": "function"
    },
    {
      "inputs": [],
      "name": "UNVERIFIED_SLOT_LIMIT",
      "outputs": [
        {
          "internalType": "uint8",
          "name": "",
          "type": "uint8"
        }
      ],
      "stateMutability": "view",
      "type": "function"
    },
    {
      "inputs": [],
      "name": "UPGRADER_ROLE",
      "outputs": [
        {
          "internalType": "bytes32",
          "name": "",
          "type": "bytes32"
        }
      ],
      "stateMutability": "view",
      "type": "function"
    },
    {
      "inputs": [],
      "name": "UPGRADE_INTERFACE_VERSION",
      "outputs": [
        {
          "internalType": "string",
          "name": "",
          "type": "string"
        }
      ],
      "stateMutability": "view",
      "type": "function"
    },
    {
      "inputs": [
        {
          "internalType": "address",
          "name": "",
          "type": "address"
        }
      ],
      "name": "activePoolId",
      "outputs": [
        {
          "internalType": "uint256",
          "name": "",
          "type": "uint256"
        }
      ],
      "stateMutability": "view",
      "type": "function"
    },
    {
      "inputs": [
        {
          "internalType": "address[]",
          "name": "users",
          "type": "address[]"
        }
      ],
      "name": "batchResetActivePoolId",
      "outputs": [],
      "stateMutability": "nonpayable",
      "type": "function"
    },
    {
      "inputs": [
        {
          "internalType": "uint256",
          "name": "poolId",
          "type": "uint256"
        }
      ],
      "name": "claimPrize",
      "outputs": [],
      "stateMutability": "nonpayable",
      "type": "function"
    },
    {
      "inputs": [],
      "name": "currentPoolId",
      "outputs": [
        {
          "internalType": "uint256",
          "name": "",
          "type": "uint256"
        }
      ],
      "stateMutability": "view",
      "type": "function"
    },
    {
      "inputs": [],
      "name": "emergencyWithdraw",
      "outputs": [],
      "stateMutability": "nonpayable",
      "type": "function"
    },
    {
      "inputs": [
        {
          "internalType": "uint256",
          "name": "poolId",
          "type": "uint256"
        }
      ],
      "name": "finalizePool",
      "outputs": [],
      "stateMutability": "nonpayable",
      "type": "function"
    },
    {
      "inputs": [
        {
          "internalType": "uint256",
          "name": "poolId",
          "type": "uint256"
        },
        {
          "internalType": "uint8",
          "name": "index",
          "type": "uint8"
        }
      ],
      "name": "getPlayer",
      "outputs": [
        {
          "internalType": "address",
          "name": "wallet",
          "type": "address"
        },
        {
          "internalType": "uint256",
          "name": "fid",
          "type": "uint256"
        },
        {
          "internalType": "uint16",
          "name": "accuracy",
          "type": "uint16"
        },
        {
          "internalType": "uint32",
          "name": "timestamp",
          "type": "uint32"
        },
        {
          "internalType": "bool",
          "name": "hasSubmitted",
          "type": "bool"
        }
      ],
      "stateMutability": "view",
      "type": "function"
    },
    {
      "inputs": [
        {
          "internalType": "uint256",
          "name": "poolId",
          "type": "uint256"
        }
      ],
      "name": "getPool",
      "outputs": [
        {
          "internalType": "uint256",
          "name": "id",
          "type": "uint256"
        },
        {
          "internalType": "uint8",
          "name": "playerCount",
          "type": "uint8"
        },
        {
          "internalType": "bool",
          "name": "isActive",
          "type": "bool"
        },
        {
          "internalType": "bool",
          "name": "isCompleted",
          "type": "bool"
        },
        {
          "internalType": "uint32",
          "name": "startTime",
          "type": "uint32"
        },
        {
          "internalType": "bytes32",
          "name": "targetColor",
          "type": "bytes32"
        }
      ],
      "stateMutability": "view",
      "type": "function"
    },
    {
      "inputs": [
        {
          "internalType": "uint256",
          "name": "poolId",
          "type": "uint256"
        }
      ],
      "name": "getPoolWinners",
      "outputs": [
        {
          "internalType": "address[3]",
          "name": "winners",
          "type": "address[3]"
        },
        {
          "internalType": "bool[3]",
          "name": "claimed",
          "type": "bool[3]"
        }
      ],
      "stateMutability": "view",
      "type": "function"
    },
    {
      "inputs": [
        {
          "internalType": "bytes32",
          "name": "role",
          "type": "bytes32"
        }
      ],
      "name": "getRoleAdmin",
      "outputs": [
        {
          "internalType": "bytes32",
          "name": "",
          "type": "bytes32"
        }
      ],
      "stateMutability": "view",
      "type": "function"
    },
    {
      "inputs": [
        {
          "internalType": "bytes32",
          "name": "role",
          "type": "bytes32"
        },
        {
          "internalType": "uint256",
          "name": "index",
          "type": "uint256"
        }
      ],
      "name": "getRoleMember",
      "outputs": [
        {
          "internalType": "address",
          "name": "",
          "type": "address"
        }
      ],
      "stateMutability": "view",
      "type": "function"
    },
    {
      "inputs": [
        {
          "internalType": "bytes32",
          "name": "role",
          "type": "bytes32"
        }
      ],
      "name": "getRoleMemberCount",
      "outputs": [
        {
          "internalType": "uint256",
          "name": "",
          "type": "uint256"
        }
      ],
      "stateMutability": "view",
      "type": "function"
    },
    {
      "inputs": [
        {
          "internalType": "bytes32",
          "name": "role",
          "type": "bytes32"
        }
      ],
      "name": "getRoleMembers",
      "outputs": [
        {
          "internalType": "address[]",
          "name": "",
          "type": "address[]"
        }
      ],
      "stateMutability": "view",
      "type": "function"
    },
    {
      "inputs": [
        {
          "internalType": "uint256",
          "name": "poolId",
          "type": "uint256"
        },
        {
          "internalType": "address",
          "name": "user",
          "type": "address"
        }
      ],
      "name": "getUserPrizeInPool",
      "outputs": [
        {
          "internalType": "uint8",
          "name": "rank",
          "type": "uint8"
        },
        {
          "internalType": "uint256",
          "name": "amount",
          "type": "uint256"
        }
      ],
      "stateMutability": "view",
      "type": "function"
    },
    {
      "inputs": [
        {
          "internalType": "address",
          "name": "user",
          "type": "address"
        }
      ],
      "name": "getUserStatus",
      "outputs": [
        {
          "internalType": "bool",
          "name": "isVerified",
          "type": "bool"
        },
        {
          "internalType": "uint8",
          "name": "slotsUsed",
          "type": "uint8"
        },
        {
          "internalType": "uint8",
          "name": "slotsAvailable",
          "type": "uint8"
        },
        {
          "internalType": "bool",
          "name": "canJoin",
          "type": "bool"
        }
      ],
      "stateMutability": "view",
      "type": "function"
    },
    {
      "inputs": [
        {
          "internalType": "bytes32",
          "name": "role",
          "type": "bytes32"
        },
        {
          "internalType": "address",
          "name": "account",
          "type": "address"
        }
      ],
      "name": "grantRole",
      "outputs": [],
      "stateMutability": "nonpayable",
      "type": "function"
    },
    {
      "inputs": [
        {
          "internalType": "bytes32",
          "name": "role",
          "type": "bytes32"
        },
        {
          "internalType": "address",
          "name": "account",
          "type": "address"
        }
      ],
      "name": "hasRole",
      "outputs": [
        {
          "internalType": "bool",
          "name": "",
          "type": "bool"
        }
      ],
      "stateMutability": "view",
      "type": "function"
    },
    {
      "inputs": [
        {
          "internalType": "address",
          "name": "_admin",
          "type": "address"
        },
        {
          "internalType": "address",
          "name": "_upgrader",
          "type": "address"
        },
        {
          "internalType": "address",
          "name": "_treasury1",
          "type": "address"
        },
        {
          "internalType": "address",
          "name": "_treasury2",
          "type": "address"
        },
        {
          "internalType": "address",
          "name": "_verifier",
          "type": "address"
        }
      ],
      "name": "initialize",
      "outputs": [],
      "stateMutability": "nonpayable",
      "type": "function"
    },
    {
      "inputs": [
        {
          "internalType": "uint256",
          "name": "fid",
          "type": "uint256"
        }
      ],
      "name": "joinPool",
      "outputs": [],
      "stateMutability": "payable",
      "type": "function"
    },
    {
      "inputs": [],
      "name": "pause",
      "outputs": [],
      "stateMutability": "nonpayable",
      "type": "function"
    },
    {
      "inputs": [],
      "name": "paused",
      "outputs": [
        {
          "internalType": "bool",
          "name": "",
          "type": "bool"
        }
      ],
      "stateMutability": "view",
      "type": "function"
    },
    {
      "inputs": [
        {
          "internalType": "address",
          "name": "",
          "type": "address"
        }
      ],
      "name": "playerSlotCount",
      "outputs": [
        {
          "internalType": "uint8",
          "name": "",
          "type": "uint8"
        }
      ],
      "stateMutability": "view",
      "type": "function"
    },
    {
      "inputs": [
        {
          "internalType": "uint256",
          "name": "",
          "type": "uint256"
        },
        {
          "internalType": "uint8",
          "name": "",
          "type": "uint8"
        }
      ],
      "name": "poolWinners",
      "outputs": [
        {
          "internalType": "address",
          "name": "",
          "type": "address"
        }
      ],
      "stateMutability": "view",
      "type": "function"
    },
    {
      "inputs": [
        {
          "internalType": "uint256",
          "name": "",
          "type": "uint256"
        }
      ],
      "name": "pools",
      "outputs": [
        {
          "internalType": "uint256",
          "name": "id",
          "type": "uint256"
        },
        {
          "internalType": "uint8",
          "name": "playerCount",
          "type": "uint8"
        },
        {
          "internalType": "bool",
          "name": "isActive",
          "type": "bool"
        },
        {
          "internalType": "bool",
          "name": "isCompleted",
          "type": "bool"
        },
        {
          "internalType": "uint32",
          "name": "startTime",
          "type": "uint32"
        },
        {
          "internalType": "bytes32",
          "name": "targetColor",
          "type": "bytes32"
        }
      ],
      "stateMutability": "view",
      "type": "function"
    },
    {
      "inputs": [
        {
          "internalType": "uint256",
          "name": "",
          "type": "uint256"
        },
        {
          "internalType": "uint8",
          "name": "",
          "type": "uint8"
        }
      ],
      "name": "prizeClaimed",
      "outputs": [
        {
          "internalType": "bool",
          "name": "",
          "type": "bool"
        }
      ],
      "stateMutability": "view",
      "type": "function"
    },
    {
      "inputs": [],
      "name": "proxiableUUID",
      "outputs": [
        {
          "internalType": "bytes32",
          "name": "",
          "type": "bytes32"
        }
      ],
      "stateMutability": "view",
      "type": "function"
    },
    {
      "inputs": [
        {
          "internalType": "bytes32",
          "name": "role",
          "type": "bytes32"
        },
        {
          "internalType": "address",
          "name": "callerConfirmation",
          "type": "address"
        }
      ],
      "name": "renounceRole",
      "outputs": [],
      "stateMutability": "nonpayable",
      "type": "function"
    },
    {
      "inputs": [
        {
          "internalType": "address",
          "name": "user",
          "type": "address"
        }
      ],
      "name": "resetActivePoolId",
      "outputs": [],
      "stateMutability": "nonpayable",
      "type": "function"
    },
    {
      "inputs": [
        {
          "internalType": "bytes32",
          "name": "role",
          "type": "bytes32"
        },
        {
          "internalType": "address",
          "name": "account",
          "type": "address"
        }
      ],
      "name": "revokeRole",
      "outputs": [],
      "stateMutability": "nonpayable",
      "type": "function"
    },
    {
      "inputs": [
        {
          "internalType": "address",
          "name": "_treasury1",
          "type": "address"
        },
        {
          "internalType": "address",
          "name": "_treasury2",
          "type": "address"
        }
      ],
      "name": "setTreasuries",
      "outputs": [],
      "stateMutability": "nonpayable",
      "type": "function"
    },
    {
      "inputs": [
        {
          "internalType": "address",
          "name": "user",
          "type": "address"
        },
        {
          "internalType": "bool",
          "name": "verified",
          "type": "bool"
        }
      ],
      "name": "setUserVerification",
      "outputs": [],
      "stateMutability": "nonpayable",
      "type": "function"
    },
    {
      "inputs": [
        {
          "internalType": "address",
          "name": "newVerifier",
          "type": "address"
        }
      ],
      "name": "setVerifier",
      "outputs": [],
      "stateMutability": "nonpayable",
      "type": "function"
    },
    {
      "inputs": [
        {
          "internalType": "uint256",
          "name": "poolId",
          "type": "uint256"
        },
        {
          "internalType": "uint16",
          "name": "accuracy",
          "type": "uint16"
        }
      ],
      "name": "submitScore",
      "outputs": [],
      "stateMutability": "nonpayable",
      "type": "function"
    },
    {
      "inputs": [
        {
          "internalType": "bytes4",
          "name": "interfaceId",
          "type": "bytes4"
        }
      ],
      "name": "supportsInterface",
      "outputs": [
        {
          "internalType": "bool",
          "name": "",
          "type": "bool"
        }
      ],
      "stateMutability": "view",
      "type": "function"
    },
    {
      "inputs": [],
      "name": "treasury1",
      "outputs": [
        {
          "internalType": "address",
          "name": "",
          "type": "address"
        }
      ],
      "stateMutability": "view",
      "type": "function"
    },
    {
      "inputs": [],
      "name": "treasury2",
      "outputs": [
        {
          "internalType": "address",
          "name": "",
          "type": "address"
        }
      ],
      "stateMutability": "view",
      "type": "function"
    },
    {
      "inputs": [
        {
          "internalType": "address",
          "name": "",
          "type": "address"
        }
      ],
      "name": "unclaimedPrizes",
      "outputs": [
        {
          "internalType": "uint256",
          "name": "",
          "type": "uint256"
        }
      ],
      "stateMutability": "view",
      "type": "function"
    },
    {
      "inputs": [],
      "name": "unpause",
      "outputs": [],
      "stateMutability": "nonpayable",
      "type": "function"
    },
    {
      "inputs": [
        {
          "internalType": "address",
          "name": "newImplementation",
          "type": "address"
        },
        {
          "internalType": "bytes",
          "name": "data",
          "type": "bytes"
        }
      ],
      "name": "upgradeToAndCall",
      "outputs": [],
      "stateMutability": "payable",
      "type": "function"
    },
    {
      "inputs": [
        {
          "internalType": "address",
          "name": "",
          "type": "address"
        }
      ],
      "name": "verifiedUsers",
      "outputs": [
        {
          "internalType": "bool",
          "name": "",
          "type": "bool"
        }
      ],
      "stateMutability": "view",
      "type": "function"
    },
    {
      "inputs": [],
      "name": "verifier",
      "outputs": [
        {
          "internalType": "address",
          "name": "",
          "type": "address"
        }
      ],
      "stateMutability": "view",
      "type": "function"
    },
    {
      "inputs": [],
      "name": "version",
      "outputs": [
        {
          "internalType": "string",
          "name": "",
          "type": "string"
        }
      ],
      "stateMutability": "pure",
      "type": "function"
    }
  ],
  "bytecode": "0x60a0604052306080523480156200001557600080fd5b506200002062000026565b620000da565b7ff0c57e16840df040f15088dc2f81fe391c3923bec73e23a9662efc9c229c6a00805468010000000000000000900460ff1615620000775760405163f92ee8a960e01b815260040160405180910390fd5b80546001600160401b0390811614620000d75780546001600160401b0319166001600160401b0390811782556040519081527fc7f505b2f371ae2175ee4913f4499e1f2633a7b5936321eed1cdaeb6115181d29060200160405180910390a15b50565b6080516137ed620001046000396000818161226d01528181612296015261247401526137ed6000f3fe6080604052600436106103505760003560e01c80638456cb59116101c6578063d2581e4d116100f7578063e35fe36611610095578063ebc5163b1161006f578063ebc5163b14610b5e578063f2717a8014610b74578063f6d361cc14610bb5578063f72c0d8b14610bd157600080fd5b8063e35fe36614610ac0578063e5d1d26014610af0578063ea0d5dcd14610b1057600080fd5b8063d62fbc35116100d1578063d62fbc3514610a42578063d709815414610a5e578063db2e21bc14610a7e578063e2f7174114610a9357600080fd5b8063d2581e4d146109ed578063d2bd2f2214610a02578063d547741f14610a2257600080fd5b8063a217fddf11610164578063ad3cb1cc1161013e578063ad3cb1cc1461091a578063b99b12111461094b578063c5a1f434146109ad578063ca15c873146109cd57600080fd5b8063a217fddf14610877578063a3246ad31461088c578063ac4afa38146108b957600080fd5b806391d14854116101a057806391d14854146107e957806391f5800d14610809578063997f524a1461081e5780639f3c093c1461083e57600080fd5b80638456cb59146107875780638e235d061461079c5780639010d07c146107c957600080fd5b80633f4ba83a116102a05780635437988d1161023e5780635c975abb116102185780635c975abb146106f057806364e280ce146107155780636a70a7cc1461074557806375b238fc1461076557600080fd5b80635437988d1461067957806354fd4d501461069957806356ade98c146106d057600080fd5b80634f1ef2861161027a5780634f1ef286146106155780634f9daac61461062857806352d1902d1461064f57806353c210f21461066457600080fd5b80633f4ba83a146105b25780634d158c64146105c75780634d7c0f5b146105e757600080fd5b8063248a9ca31161030d5780632b7ac3f3116102e75780632b7ac3f31461053f5780632f2ff15d1461055f57806334e7a19f1461057f57806336568abe1461059257600080fd5b8063248a9ca3146104e7578063291b3d601461050757806329dd29c71461052357600080fd5b806301ffc9a714610355578063068bcd8d1461038a5780630ca4f9d914610428578063129f5502146104525780631459457a1461048a57806317ee395b146104ac575b600080fd5b34801561036157600080fd5b5061037561037036600461316f565b610c05565b60405190151581526020015b60405180910390f35b34801561039657600080fd5b506103ec6103a5366004613199565b600090815260208190526040902080546025820154602690920154909260ff80841693610100810482169362010000820490921692630100000090910463ffffffff169190565b6040805196875260ff9095166020870152921515938501939093521515606084015263ffffffff909116608083015260a082015260c001610381565b34801561043457600080fd5b50610444670214e8348c4f000081565b604051908152602001610381565b34801561045e57600080fd5b50600554610472906001600160a01b031681565b6040516001600160a01b039091168152602001610381565b34801561049657600080fd5b506104aa6104a53660046131ce565b610c30565b005b3480156104b857600080fd5b506103756104c7366004613233565b600860209081526000928352604080842090915290825290205460ff1681565b3480156104f357600080fd5b50610444610502366004613199565b610e71565b34801561051357600080fd5b5061044467063eb89da4ed000081565b34801561052f57600080fd5b5061044467031f5c4ed276800081565b34801561054b57600080fd5b50600a54610472906001600160a01b031681565b34801561056b57600080fd5b506104aa61057a366004613269565b610e93565b6104aa61058d366004613199565b610eb5565b34801561059e57600080fd5b506104aa6105ad366004613269565b6111f7565b3480156105be57600080fd5b506104aa61122f565b3480156105d357600080fd5b506104aa6105e2366004613295565b61124f565b3480156105f357600080fd5b50610607610602366004613199565b611301565b6040516103819291906132bf565b6104aa61062336600461333c565b6113d5565b34801561063457600080fd5b5061063d600981565b60405160ff9091168152602001610381565b34801561065b57600080fd5b506104446113f4565b34801561067057600080fd5b5061063d600c81565b34801561068557600080fd5b506104aa6106943660046133fe565b611411565b3480156106a557600080fd5b506040805180820190915260058152640332e362e360dc1b60208201525b604051610381919061343d565b3480156106dc57600080fd5b506104aa6106eb3660046133fe565b6114a3565b3480156106fc57600080fd5b506000805160206137588339815191525460ff16610375565b34801561072157600080fd5b5061063d6107303660046133fe565b60026020526000908152604090205460ff1681565b34801561075157600080fd5b506104aa610760366004613470565b611500565b34801561077157600080fd5b5061044460008051602061379883398151915281565b34801561079357600080fd5b506104aa6115ce565b3480156107a857600080fd5b506104446107b73660046133fe565b60096020526000908152604090205481565b3480156107d557600080fd5b506104726107e43660046134e5565b6115ee565b3480156107f557600080fd5b50610375610804366004613269565b61161d565b34801561081557600080fd5b50610444607881565b34801561082a57600080fd5b506104aa610839366004613507565b611655565b34801561084a57600080fd5b5061085e610859366004613269565b6116df565b6040805160ff9093168352602083019190915201610381565b34801561088357600080fd5b50610444600081565b34801561089857600080fd5b506108ac6108a7366004613199565b6117b5565b6040516103819190613538565b3480156108c557600080fd5b506103ec6108d4366004613199565b600060208190529081526040902080546025820154602690920154909160ff808216926101008304821692620100008104909216916301000000900463ffffffff169086565b34801561092657600080fd5b506106c3604051806040016040528060058152602001640352e302e360dc1b81525081565b34801561095757600080fd5b5061096b610966366004613233565b6117e7565b604080516001600160a01b039096168652602086019490945261ffff9092169284019290925263ffffffff90911660608301521515608082015260a001610381565b3480156109b957600080fd5b506104aa6109c8366004613199565b611897565b3480156109d957600080fd5b506104446109e8366004613199565b6119c6565b3480156109f957600080fd5b5061063d600481565b348015610a0e57600080fd5b506104aa610a1d366004613585565b6119ec565b348015610a2e57600080fd5b506104aa610a3d366004613269565b611c77565b348015610a4e57600080fd5b5061044467010a741a4627800081565b348015610a6a57600080fd5b506104aa610a79366004613199565b611c93565b348015610a8a57600080fd5b506104aa611ecb565b348015610a9f57600080fd5b50610444610aae3660046133fe565b60016020526000908152604090205481565b348015610acc57600080fd5b50610375610adb3660046133fe565b60036020526000908152604090205460ff1681565b348015610afc57600080fd5b50600654610472906001600160a01b031681565b348015610b1c57600080fd5b50610b30610b2b3660046133fe565b611f6e565b6040516103819493929190931515845260ff9283166020850152911660408301521515606082015260800190565b348015610b6a57600080fd5b5061044460045481565b348015610b8057600080fd5b50610472610b8f366004613233565b60076020908152600092835260408084209091529082529020546001600160a01b031681565b348015610bc157600080fd5b5061044467016345785d8a000081565b348015610bdd57600080fd5b506104447f189ab7a9244df0848122154315af71fe140f3db0fe014031783b0946b8c9d2e381565b60006001600160e01b03198216635a05180f60e01b1480610c2a5750610c2a82611fe7565b92915050565b6000610c3a61201c565b805490915060ff600160401b820416159067ffffffffffffffff16600081158015610c625750825b905060008267ffffffffffffffff166001148015610c7f5750303b155b905081158015610c8d575080155b15610cab5760405163f92ee8a960e01b815260040160405180910390fd5b845467ffffffffffffffff191660011785558315610cd557845460ff60401b1916600160401b1785555b6001600160a01b038a161580610cf257506001600160a01b038916155b15610d105760405163cfe2ea6360e01b815260040160405180910390fd5b6001600160a01b0388161580610d2d57506001600160a01b038716155b15610d4b5760405163cfe2ea6360e01b815260040160405180910390fd5b6001600160a01b038616610d725760405163043103a360e21b815260040160405180910390fd5b610d7a612045565b610d8261204f565b610d8a612045565b610d9560008b61205f565b50610dae6000805160206137988339815191528b61205f565b50610dd97f189ab7a9244df0848122154315af71fe140f3db0fe014031783b0946b8c9d2e38a61205f565b50600580546001600160a01b03808b166001600160a01b031992831617909255600680548a8416908316179055600a805492891692909116919091179055610e1f6120a4565b8315610e6557845460ff60401b19168555604051600181527fc7f505b2f371ae2175ee4913f4499e1f2633a7b5936321eed1cdaeb6115181d29060200160405180910390a15b50505050505050505050565b6000908152600080516020613738833981519152602052604090206001015490565b610e9c82610e71565b610ea58161213f565b610eaf838361205f565b50505050565b610ebd612149565b610ec5612181565b67016345785d8a00003414610eed57604051636fe6a4c960e01b815260040160405180910390fd5b80600003610f0e5760405163c1408aaf60e01b815260040160405180910390fd5b3360009081526001602052604090205415610f3c57604051630f2c3adf60e11b815260040160405180910390fd5b3360009081526003602052604090205460ff1680158015610f72575033600090815260026020526040902054600460ff90911610155b15610f905760405163f50e7f9d60e01b815260040160405180910390fd5b60045460009081526020819052604090206025810154600960ff90911610610fcb576040516327a01e0760e21b815260040160405180910390fd5b6040805160a0810182523381526020810185905260009181018290526060810182905260808101919091526025820154600183019060ff16600c8110611013576110136135b1565b82516003919091029190910180546001600160a01b039092166001600160a01b0319909216919091178155602082015160018201556040820151600290910180546060840151608090940151151566010000000000000266ff0000000000001963ffffffff909516620100000265ffffffffffff1990921661ffff90941693909317179290921617905560258101805460ff169060006110b2836135dd565b82546101009290920a60ff8181021990931691831602179091556004543360009081526001602090815260408083209390935560029052908120805490921692506110fc836135dd565b91906101000a81548160ff021916908360ff16021790555050336001600160a01b03166004547f03dfbe1fcb4e2d61f3b4a0c93d8f814c92250618b3387f396cc9fc9fafe2c2038560405161115391815260200190565b60405180910390a3602581015460ff16600819016111db5760258101805463ffffffff428116630100000090810266ffffffff00ff0019909316929092176101001792839055600454604051929093041681527fe095f2953657e5e67e41ed2a85f51575a89d28199b24c9c038a76ded7be608689060200160405180910390a26111db6120a4565b50506111f4600160008051602061377883398151915255565b50565b6001600160a01b03811633146112205760405163334bd91960e11b815260040160405180910390fd5b61122a82826121c6565b505050565b6000805160206137988339815191526112478161213f565b6111f4612202565b6000805160206137988339815191526112678161213f565b6001600160a01b038316158061128457506001600160a01b038216155b156112a25760405163cfe2ea6360e01b815260040160405180910390fd5b600580546001600160a01b03199081166001600160a01b03868116918217909355600680549092169285169283179091556040517f4ab5be82436d353e61ca18726e984e561f5c1cc7c6d38b29d2553c790434705a90600090a3505050565b611309613151565b611311613151565b60015b60038160ff16116113cf57600084815260076020908152604080832060ff851684529091529020546001600160a01b0316836113516001846135fc565b60ff1660038110611364576113646135b1565b6001600160a01b0390921660209283029190910152600085815260088252604080822060ff8086168452935290205416826113a06001846135fc565b60ff16600381106113b3576113b36135b1565b91151560209092020152806113c7816135dd565b915050611314565b50915091565b6113dd612262565b6113e682612307565b6113f082826123ac565b5050565b60006113fe612469565b5060008051602061371883398151915290565b6000805160206137988339815191526114298161213f565b6001600160a01b0382166114505760405163043103a360e21b815260040160405180910390fd5b600a80546001600160a01b038481166001600160a01b0319831681179093556040519116919082907f0243549a92b2412f7a3caf7a2e56d65b8821b91345363faa5f57195384065fcc90600090a3505050565b6000805160206137988339815191526114bb8161213f565b6001600160a01b038216600081815260016020526040808220829055517faff9322337711a9f6d7a3a9322989f6d09b0fcbc6b84f2256056a59aa5a5b0aa9190a25050565b6000805160206137988339815191526115188161213f565b60005b82811015610eaf5760006001600086868581811061153b5761153b6135b1565b905060200201602081019061155091906133fe565b6001600160a01b0316815260208101919091526040016000205583838281811061157c5761157c6135b1565b905060200201602081019061159191906133fe565b6001600160a01b03167faff9322337711a9f6d7a3a9322989f6d09b0fcbc6b84f2256056a59aa5a5b0aa60405160405180910390a260010161151b565b6000805160206137988339815191526115e68161213f565b6111f46124b2565b60008281526000805160206136f883398151915260208190526040822061161590846124fb565b949350505050565b6000918252600080516020613738833981519152602090815260408084206001600160a01b0393909316845291905290205460ff1690565b600a546001600160a01b031633146116805760405163b9857aa160e01b815260040160405180910390fd5b6001600160a01b038216600081815260036020908152604091829020805460ff191685151590811790915591519182527f34736af44d2b91cd43fa896d4cfe0861ec1e6b4538583d385fc671639e9153b2910160405180910390a25050565b60008060015b60038160ff16116117a557600085815260076020908152604080832060ff851684529091529020546001600160a01b0385811691161480156117435750600085815260086020908152604080832060ff808616855292529091205416155b156117935760008160ff16600103611764575067063eb89da4ed0000611789565b8160ff1660020361177e575067031f5c4ed2768000611789565b5067010a741a462780005b90925090506117ae565b8061179d816135dd565b9150506116e5565b50600080915091505b9250929050565b60008181526000805160206136f883398151915260208190526040909120606091906117e090612507565b9392505050565b600082815260208190526040812060250154819081908190819060ff9081169087161061182757604051636bad456160e01b815260040160405180910390fd5b600087815260208190526040812060010160ff8816600c811061184c5761184c6135b1565b60030201805460018201546002909201546001600160a01b039091169a91995061ffff8116985062010000810463ffffffff1697506601000000000000900460ff1695509350505050565b61189f612149565b6118a7612181565b6004548111156118ca576040516302721e1f60e61b815260040160405180910390fd5b60008181526020819052604090206025810154610100900460ff1615806118fb5750602581015462010000900460ff165b15611919576040516338c0a90160e11b815260040160405180910390fd5b600160005b602583015460ff908116908216101561197357826001018160ff16600c8110611949576119496135b1565b6003020160020160069054906101000a900460ff1661196b5760009150611973565b60010161191e565b508015801561199f5750602582015461199b906078906301000000900463ffffffff16613615565b4211155b156119bd57604051630867d2ed60e41b815260040160405180910390fd5b6111db83612514565b60008181526000805160206136f88339815191526020819052604082206117e0906127ac565b6119f4612149565b6119fc612181565b600454821115611a1f576040516302721e1f60e61b815260040160405180910390fd5b6127108161ffff161115611a46576040516312aa4f0360e21b815260040160405180910390fd5b336000908152600160205260409020548214611a7557604051636bad456160e01b815260040160405180910390fd5b6000828152602081905260409020602581015462010000900460ff1615611aaf576040516338c0a90160e11b815260040160405180910390fd5b6000805b602583015460ff9081169082161015611bea57336001840160ff8316600c8110611adf57611adf6135b1565b60030201546001600160a01b0316148015611b245750826001018160ff16600c8110611b0d57611b0d6135b1565b6003020160020160069054906101000a900460ff16155b15611be25783836001018260ff16600c8110611b4257611b426135b1565b6003020160020160006101000a81548161ffff021916908361ffff16021790555042836001018260ff16600c8110611b7c57611b7c6135b1565b6003020160020160026101000a81548163ffffffff021916908363ffffffff1602179055506001836001018260ff16600c8110611bbb57611bbb6135b1565b6003020160020160066101000a81548160ff02191690831515021790555060019150611bea565b600101611ab3565b5080611c0957604051639fbfc58960e01b815260040160405180910390fd5b33600081815260016020908152604080832092909255905161ffff8616815286917f55e4b82d5d0bc2616d47cddd97399d4b662cec042f68f52723f60d7cbbc44d6b910160405180910390a3611c5e846127b6565b50506113f0600160008051602061377883398151915255565b611c8082610e71565b611c898161213f565b610eaf83836121c6565b611c9b612149565b611ca3612181565b6000818152602081905260409020602581015462010000900460ff16611cdc576040516338c0a90160e11b815260040160405180910390fd5b600060015b60038160ff1611611d5b57600084815260076020908152604080832060ff851684529091529020546001600160a01b031633148015611d3c5750600084815260086020908152604080832060ff808616855292529091205416155b15611d4957809150611d5b565b80611d53816135dd565b915050611ce1565b508060ff16600003611d8057604051630fe160f360e11b815260040160405180910390fd5b600083815260086020908152604080832060ff851680855292528220805460ff1916600190811790915503611dbe575067063eb89da4ed0000611de3565b8160ff16600203611dd8575067031f5c4ed2768000611de3565b5067010a741a462780005b3360009081526009602052604081208054839290611e02908490613628565b9091555050604051600090339083908381818185875af1925050503d8060008114611e49576040519150601f19603f3d011682016040523d82523d6000602084013e611e4e565b606091505b5050905080611e70576040516312171d8360e31b815260040160405180910390fd5b6040805160ff8516815260208101849052339187917f3e4f68b30a745aad7a761efb657b19f1d7bed16ff77ea15b967f425202bdc4f6910160405180910390a3505050506111f4600160008051602061377883398151915255565b600080516020613798833981519152611ee38161213f565b611eeb61283d565b476000611ef881806115ee565b90506000816001600160a01b03168360405160006040518083038185875af1925050503d8060008114611f47576040519150601f19603f3d011682016040523d82523d6000602084013e611f4c565b606091505b5050905080610eaf576040516312171d8360e31b815260040160405180910390fd5b6001600160a01b038116600090815260036020908152604080832054600290925282205460ff918216929116908083611fa8576004611fab565b60ff5b6001600160a01b038616600090815260016020526040902054909250158015611fde57508380611fde5750600460ff8416105b90509193509193565b60006001600160e01b03198216637965db0b60e01b1480610c2a57506301ffc9a760e01b6001600160e01b0319831614610c2a565b6000807ff0c57e16840df040f15088dc2f81fe391c3923bec73e23a9662efc9c229c6a00610c2a565b61204d61286d565b565b61205761286d565b61204d612892565b60006000805160206136f88339815191528161207b858561289a565b9050801561161557600085815260208390526040902061209b908561293f565b50949350505050565b600480549060006120b48361363b565b90915550506004546000818152602081815260409182902083815582514292810192909252918101929092524460608301529060800160408051808303601f1901815290829052805160209182012060268401819055600454908352917f5b062af8aa7c7c247b6805332e9acd582d651a0f292a6832e35964511e688e00910160405180910390a250565b6111f48133612954565b60008051602061377883398151915280546001190161217b57604051633ee5aeb560e01b815260040160405180910390fd5b60029055565b6000805160206137588339815191525460ff161561204d5760405163d93c066560e01b815260040160405180910390fd5b600160008051602061377883398151915255565b60006000805160206136f8833981519152816121e2858561298d565b9050801561161557600085815260208390526040902061209b9085612a09565b61220a61283d565b600080516020613758833981519152805460ff191681557f5db9ee0a495bf2e6ff9c91a7834c1ba4fdd244a5e8aa4e537bd38aeae4b073aa335b6040516001600160a01b03909116815260200160405180910390a150565b306001600160a01b037f00000000000000000000000000000000000000000000000000000000000000001614806122e957507f00000000000000000000000000000000000000000000000000000000000000006001600160a01b03166122dd600080516020613718833981519152546001600160a01b031690565b6001600160a01b031614155b1561204d5760405163703e46dd60e11b815260040160405180910390fd5b61231f6000805160206137988339815191523361161d565b8061234f575061234f7f189ab7a9244df0848122154315af71fe140f3db0fe014031783b0946b8c9d2e33361161d565b6111f45760405162461bcd60e51b815260206004820152602360248201527f43616c6c6572206973206e6f7420617574686f72697a656420746f207570677260448201526261646560e81b60648201526084015b60405180910390fd5b816001600160a01b03166352d1902d6040518163ffffffff1660e01b8152600401602060405180830381865afa925050508015612406575060408051601f3d908101601f1916820190925261240391810190613654565b60015b61242e57604051634c9c8ce360e01b81526001600160a01b03831660048201526024016123a3565b600080516020613718833981519152811461245f57604051632a87526960e21b8152600481018290526024016123a3565b61122a8383612a1e565b306001600160a01b037f0000000000000000000000000000000000000000000000000000000000000000161461204d5760405163703e46dd60e11b815260040160405180910390fd5b6124ba612181565b600080516020613758833981519152805460ff191660011781557f62e78cea01bee320cd4e420270b5ea74000d11b0c9f74754ebdbfc544b05a25833612244565b60006117e08383612a74565b606060006117e083612a9e565b6000818152602081905260409020602581015462010000900460ff161561254e576040516338c0a90160e11b815260040160405180910390fd5b60258101805462ff0000191662010000179055600061256c83612afa565b905060006125836002670214e8348c4f000061366d565b60055490915061259c906001600160a01b031682612d26565b6006546125b2906001600160a01b031682612d26565b6040805160608101825267063eb89da4ed0000815267031f5c4ed2768000602082015267010a741a462780009181019190915260005b60038160ff1610156126f75760008460ff83166003811061260b5761260b6135b1565b60200201516001600160a01b0316146126ef57600061262b82600161368f565b9050848260ff1660038110612642576126426135b1565b60209081029190910151600089815260078352604080822060ff86811684529452902080546001600160a01b0319166001600160a01b039092169190911790558390831660038110612696576126966135b1565b602002015160096000878560ff16600381106126b4576126b46135b1565b60200201516001600160a01b03166001600160a01b0316815260200190815260200160002060008282546126e89190613615565b9091555050505b6001016125e8565b5060005b602585015460ff90811690821610156127535760016000866001018360ff16600c811061272a5761272a6135b1565b60030201546001600160a01b0316815260208101919091526040016000908120556001016126fb565b50602080840151845160408087015190516001600160a01b0391821681529281169391169188917f0f9d63a53536052f5920f0b3a056b5b97a3fed41803fdcc7ef4728eb9947ee01910160405180910390a45050505050565b6000610c2a825490565b60008181526020819052604090206025810154600960ff90911610156127da575050565b600160005b600960ff8216101561282d57826001018160ff16600c8110612803576128036135b1565b6003020160020160069054906101000a900460ff16612825576000915061282d565b6001016127df565b50801561122a5761122a83612514565b6000805160206137588339815191525460ff1661204d57604051638dfc202b60e01b815260040160405180910390fd5b612875612de2565b61204d57604051631afcd79f60e31b815260040160405180910390fd5b6121b261286d565b60006000805160206137388339815191526128b5848461161d565b612935576000848152602082815260408083206001600160a01b03871684529091529020805460ff191660011790556128eb3390565b6001600160a01b0316836001600160a01b0316857f2f8788117e7eff1d82e926ec794901d17c78024a50270940304540a733656f0d60405160405180910390a46001915050610c2a565b6000915050610c2a565b60006117e0836001600160a01b038416612dfc565b61295e828261161d565b6113f05760405163e2517d3f60e01b81526001600160a01b0382166004820152602481018390526044016123a3565b60006000805160206137388339815191526129a8848461161d565b15612935576000848152602082815260408083206001600160a01b0387168085529252808320805460ff1916905551339287917ff6391f5c32d9c69d2a47ea670b442974b53935d1edc7fd64eb21e047a839171b9190a46001915050610c2a565b60006117e0836001600160a01b038416612e4b565b612a2782612f34565b6040516001600160a01b038316907fbc7cd75a20ee27fd9adebab32041f755214dbc6bffa90cc0225b39da2e5c2d3b90600090a2805115612a6c5761122a8282612f99565b6113f061300f565b6000826000018281548110612a8b57612a8b6135b1565b9060005260206000200154905092915050565b606081600001805480602002602001604051908101604052809291908181526020018280548015612aee57602002820191906000526020600020905b815481526020019060010190808311612ada575b50505050509050919050565b612b02613151565b6000828152602081905260409020612b18613151565b60005b602583015460ff9081169082161015612d1e5760005b60038160ff161015612d155760008360ff831660038110612b5457612b546135b1565b60200201516001600160a01b031603612bc057836001018260ff16600c8110612b7f57612b7f6135b1565b600390810291909101546001600160a01b031690849060ff8416908110612ba857612ba86135b1565b6001600160a01b039092166020929092020152612d15565b6000846001018360ff16600c8110612bda57612bda6135b1565b6003020190506000612c0588868560ff1660038110612bfb57612bfb6135b1565b602002015161302e565b6002808201549084015491925061ffff90811691161180612c5b57506002808201549083015461ffff9081169116148015612c5b57506002808201549083015463ffffffff620100009283900481169290910416105b15612d0b5760025b8360ff168160ff161115612ccf5785612c7d6001836135fc565b60ff1660038110612c9057612c906135b1565b6020020151868260ff1660038110612caa57612caa6135b1565b6001600160a01b03909216602092909202015280612cc7816136a8565b915050612c63565b5081546001600160a01b03168560ff851660038110612cf057612cf06135b1565b6001600160a01b03909216602092909202015250612d159050565b5050600101612b31565b50600101612b1b565b509392505050565b6000826001600160a01b03168260405160006040518083038185875af1925050503d8060008114612d73576040519150601f19603f3d011682016040523d82523d6000602084013e612d78565b606091505b5050905080612d9a576040516312171d8360e31b815260040160405180910390fd5b826001600160a01b03167fff3cae93fb596d1d15d930842d5acf78c6d54434b5f9ccdd4c3913bea876a9fd83604051612dd591815260200190565b60405180910390a2505050565b6000612dec61201c565b54600160401b900460ff16919050565b6000818152600183016020526040812054612e4357508154600181810184556000848152602080822090930184905584548482528286019093526040902091909155610c2a565b506000610c2a565b60008181526001830160205260408120548015612935576000612e6f600183613628565b8554909150600090612e8390600190613628565b9050808214612ee8576000866000018281548110612ea357612ea36135b1565b9060005260206000200154905080876000018481548110612ec657612ec66135b1565b6000918252602080832090910192909255918252600188019052604090208390555b8554869080612ef957612ef96136c5565b600190038181906000526020600020016000905590558560010160008681526020019081526020016000206000905560019350505050610c2a565b806001600160a01b03163b600003612f6a57604051634c9c8ce360e01b81526001600160a01b03821660048201526024016123a3565b60008051602061371883398151915280546001600160a01b0319166001600160a01b0392909216919091179055565b6060600080846001600160a01b031684604051612fb691906136db565b600060405180830381855af49150503d8060008114612ff1576040519150601f19603f3d011682016040523d82523d6000602084013e612ff6565b606091505b50915091506130068583836130cd565b95945050505050565b341561204d5760405163b398979f60e01b815260040160405180910390fd5b6000828152602081905260408120815b602582015460ff90811690821610156130b357836001600160a01b0316826001018260ff16600c8110613073576130736135b1565b60030201546001600160a01b0316036130ab57816001018160ff16600c811061309e5761309e6135b1565b6003020192505050610c2a565b60010161303e565b50604051636bad456160e01b815260040160405180910390fd5b6060826130e2576130dd82613129565b6117e0565b81511580156130f957506001600160a01b0384163b155b1561312257604051639996b31560e01b81526001600160a01b03851660048201526024016123a3565b5092915050565b80511561313857805160208201fd5b60405163d6bda27560e01b815260040160405180910390fd5b60405180606001604052806003906020820280368337509192915050565b60006020828403121561318157600080fd5b81356001600160e01b0319811681146117e057600080fd5b6000602082840312156131ab57600080fd5b5035919050565b80356001600160a01b03811681146131c957600080fd5b919050565b600080600080600060a086880312156131e657600080fd5b6131ef866131b2565b94506131fd602087016131b2565b935061320b604087016131b2565b9250613219606087016131b2565b9150613227608087016131b2565b90509295509295909350565b6000806040838503121561324657600080fd5b82359150602083013560ff8116811461325e57600080fd5b809150509250929050565b6000806040838503121561327c57600080fd5b8235915061328c602084016131b2565b90509250929050565b600080604083850312156132a857600080fd5b6132b1836131b2565b915061328c602084016131b2565b60c08101818460005b60038110156132f05781516001600160a01b03168352602092830192909101906001016132c8565b505050606082018360005b600381101561331c57815115158352602092830192909101906001016132fb565b5050509392505050565b634e487b7160e01b600052604160045260246000fd5b6000806040838503121561334f57600080fd5b613358836131b2565b9150602083013567ffffffffffffffff8082111561337557600080fd5b818501915085601f83011261338957600080fd5b81358181111561339b5761339b613326565b604051601f8201601f19908116603f011681019083821181831017156133c3576133c3613326565b816040528281528860208487010111156133dc57600080fd5b8260208601602083013760006020848301015280955050505050509250929050565b60006020828403121561341057600080fd5b6117e0826131b2565b60005b8381101561343457818101518382015260200161341c565b50506000910152565b602081526000825180602084015261345c816040850160208701613419565b601f01601f19169190910160400192915050565b6000806020838503121561348357600080fd5b823567ffffffffffffffff8082111561349b57600080fd5b818501915085601f8301126134af57600080fd5b8135818111156134be57600080fd5b8660208260051b85010111156134d357600080fd5b60209290920196919550909350505050565b600080604083850312156134f857600080fd5b50508035926020909101359150565b6000806040838503121561351a57600080fd5b613523836131b2565b91506020830135801515811461325e57600080fd5b6020808252825182820181905260009190848201906040850190845b818110156135795783516001600160a01b031683529284019291840191600101613554565b50909695505050505050565b6000806040838503121561359857600080fd5b82359150602083013561ffff8116811461325e57600080fd5b634e487b7160e01b600052603260045260246000fd5b634e487b7160e01b600052601160045260246000fd5b600060ff821660ff81036135f3576135f36135c7565b60010192915050565b60ff8281168282160390811115610c2a57610c2a6135c7565b80820180821115610c2a57610c2a6135c7565b81810381811115610c2a57610c2a6135c7565b60006001820161364d5761364d6135c7565b5060010190565b60006020828403121561366657600080fd5b5051919050565b60008261368a57634e487b7160e01b600052601260045260246000fd5b500490565b60ff8181168382160190811115610c2a57610c2a6135c7565b600060ff8216806136bb576136bb6135c7565b6000190192915050565b634e487b7160e01b600052603160045260246000fd5b600082516136ed818460208701613419565b919091019291505056fec1f6fe24621ce81ec5827caf0253cadb74709b061630e6b55e82371705932000360894a13ba1a3210667c828492db98dca3e2076cc3735a920a3ca505d382bbc02dd7bc7dec4dceedda775e58dd541e08a116c6c53815c0bd028192f7b626800cd5ed15c6e187e77e9aee88184c21f4f2182ab5827cb3b7e07fbedcd63f033009b779b17422d0df92223018b32b4d1fa46e071723d6817e2486d003becc55f00a49807205ce4d355092ef5a8a18f56e8913cf4a201fbe287825b095693c21775a2646970667358221220f3bb0a5f7ea646f569900af8a815a01128323b3e92b2fe04545d39b83e4d9c5564736f6c63430008160033",
  "linkReferences": {},
  "deployedLinkReferences": {}
}