{
  "_format": "hh-sol-artifact-1",
  "contractName": "ColorDropPool",
  "sourceName": "contracts/ColorDropPool.sol",
  "abi": [
    {
      "inputs": [],
      "stateMutability": "nonpayable",
      "type": "constructor"
    },
    {
      "inputs": [],
      "name": "AccessControlBadConfirmation",
      "type": "error"
    },
    {
      "inputs": [
        {
          "internalType": "address",
          "name": "account",
          "type": "address"
        },
        {
          "internalType": "bytes32",
          "name": "neededRole",
          "type": "bytes32"
        }
      ],
      "name": "AccessControlUnauthorizedAccount",
      "type": "error"
    },
    {
      "inputs": [
        {
          "internalType": "address",
          "name": "target",
          "type": "address"
        }
      ],
      "name": "AddressEmptyCode",
      "type": "error"
    },
    {
      "inputs": [],
      "name": "AlreadyInActivePool",
      "type": "error"
    },
    {
      "inputs": [],
      "name": "AlreadySubmitted",
      "type": "error"
    },
    {
      "inputs": [
        {
          "internalType": "address",
          "name": "implementation",
          "type": "address"
        }
      ],
      "name": "ERC1967InvalidImplementation",
      "type": "error"
    },
    {
      "inputs": [],
      "name": "ERC1967NonPayable",
      "type": "error"
    },
    {
      "inputs": [],
      "name": "EnforcedPause",
      "type": "error"
    },
    {
      "inputs": [],
      "name": "ExpectedPause",
      "type": "error"
    },
    {
      "inputs": [],
      "name": "FailedCall",
      "type": "error"
    },
    {
      "inputs": [],
      "name": "InvalidAccuracy",
      "type": "error"
    },
    {
      "inputs": [],
      "name": "InvalidEntryFee",
      "type": "error"
    },
    {
      "inputs": [],
      "name": "InvalidFID",
      "type": "error"
    },
    {
      "inputs": [],
      "name": "InvalidInitialization",
      "type": "error"
    },
    {
      "inputs": [],
      "name": "InvalidTreasuryAddress",
      "type": "error"
    },
    {
      "inputs": [],
      "name": "InvalidVerifierAddress",
      "type": "error"
    },
    {
      "inputs": [],
      "name": "NoPrizeToClaim",
      "type": "error"
    },
    {
      "inputs": [],
      "name": "NotInPool",
      "type": "error"
    },
    {
      "inputs": [],
      "name": "NotInitializing",
      "type": "error"
    },
    {
      "inputs": [],
      "name": "PoolDoesNotExist",
      "type": "error"
    },
    {
      "inputs": [],
      "name": "PoolFull",
      "type": "error"
    },
    {
      "inputs": [],
      "name": "PoolNotActive",
      "type": "error"
    },
    {
      "inputs": [],
      "name": "PoolNotReady",
      "type": "error"
    },
    {
      "inputs": [],
      "name": "PrizeAlreadyClaimed",
      "type": "error"
    },
    {
      "inputs": [],
      "name": "ReentrancyGuardReentrantCall",
      "type": "error"
    },
    {
      "inputs": [],
      "name": "SlotLimitExceeded",
      "type": "error"
    },
    {
      "inputs": [],
      "name": "TransferFailed",
      "type": "error"
    },
    {
      "inputs": [],
      "name": "UUPSUnauthorizedCallContext",
      "type": "error"
    },
    {
      "inputs": [
        {
          "internalType": "bytes32",
          "name": "slot",
          "type": "bytes32"
        }
      ],
      "name": "UUPSUnsupportedProxiableUUID",
      "type": "error"
    },
    {
      "inputs": [],
      "name": "UnauthorizedVerifier",
      "type": "error"
    },
    {
      "anonymous": false,
      "inputs": [
        {
          "indexed": true,
          "internalType": "address",
          "name": "user",
          "type": "address"
        }
      ],
      "name": "ActivePoolIdReset",
      "type": "event"
    },
    {
      "anonymous": false,
      "inputs": [
        {
          "indexed": false,
          "internalType": "uint64",
          "name": "version",
          "type": "uint64"
        }
      ],
      "name": "Initialized",
      "type": "event"
    },
    {
      "anonymous": false,
      "inputs": [
        {
          "indexed": false,
          "internalType": "address",
          "name": "account",
          "type": "address"
        }
      ],
      "name": "Paused",
      "type": "event"
    },
    {
      "anonymous": false,
      "inputs": [
        {
          "indexed": true,
          "internalType": "uint256",
          "name": "poolId",
          "type": "uint256"
        },
        {
          "indexed": true,
          "internalType": "address",
          "name": "player",
          "type": "address"
        },
        {
          "indexed": false,
          "internalType": "uint256",
          "name": "fid",
          "type": "uint256"
        }
      ],
      "name": "PlayerJoined",
      "type": "event"
    },
    {
      "anonymous": false,
      "inputs": [
        {
          "indexed": true,
          "internalType": "address",
          "name": "user",
          "type": "address"
        }
      ],
      "name": "PlayerSlotCountReset",
      "type": "event"
    },
    {
      "anonymous": false,
      "inputs": [
        {
          "indexed": true,
          "internalType": "uint256",
          "name": "poolId",
          "type": "uint256"
        },
        {
          "indexed": true,
          "internalType": "address",
          "name": "first",
          "type": "address"
        },
        {
          "indexed": true,
          "internalType": "address",
          "name": "second",
          "type": "address"
        },
        {
          "indexed": false,
          "internalType": "address",
          "name": "third",
          "type": "address"
        }
      ],
      "name": "PoolCompleted",
      "type": "event"
    },
    {
      "anonymous": false,
      "inputs": [
        {
          "indexed": true,
          "internalType": "uint256",
          "name": "poolId",
          "type": "uint256"
        },
        {
          "indexed": false,
          "internalType": "bytes32",
          "name": "targetColor",
          "type": "bytes32"
        }
      ],
      "name": "PoolCreated",
      "type": "event"
    },
    {
      "anonymous": false,
      "inputs": [
        {
          "indexed": true,
          "internalType": "uint256",
          "name": "poolId",
          "type": "uint256"
        },
        {
          "indexed": false,
          "internalType": "uint32",
          "name": "startTime",
          "type": "uint32"
        }
      ],
      "name": "PoolStarted",
      "type": "event"
    },
    {
      "anonymous": false,
      "inputs": [
        {
          "indexed": true,
          "internalType": "uint256",
          "name": "poolId",
          "type": "uint256"
        },
        {
          "indexed": true,
          "internalType": "address",
          "name": "winner",
          "type": "address"
        },
        {
          "indexed": false,
          "internalType": "uint8",
          "name": "rank",
          "type": "uint8"
        },
        {
          "indexed": false,
          "internalType": "uint256",
          "name": "amount",
          "type": "uint256"
        }
      ],
      "name": "PrizeClaimed",
      "type": "event"
    },
    {
      "anonymous": false,
      "inputs": [
        {
          "indexed": true,
          "internalType": "address",
          "name": "winner",
          "type": "address"
        },
        {
          "indexed": false,
          "internalType": "uint256",
          "name": "amount",
          "type": "uint256"
        }
      ],
      "name": "PrizePaid",
      "type": "event"
    },
    {
      "anonymous": false,
      "inputs": [
        {
          "indexed": true,
          "internalType": "bytes32",
          "name": "role",
          "type": "bytes32"
        },
        {
          "indexed": true,
          "internalType": "bytes32",
          "name": "previousAdminRole",
          "type": "bytes32"
        },
        {
          "indexed": true,
          "internalType": "bytes32",
          "name": "newAdminRole",
          "type": "bytes32"
        }
      ],
      "name": "RoleAdminChanged",
      "type": "event"
    },
    {
      "anonymous": false,
      "inputs": [
        {
          "indexed": true,
          "internalType": "bytes32",
          "name": "role",
          "type": "bytes32"
        },
        {
          "indexed": true,
          "internalType": "address",
          "name": "account",
          "type": "address"
        },
        {
          "indexed": true,
          "internalType": "address",
          "name": "sender",
          "type": "address"
        }
      ],
      "name": "RoleGranted",
      "type": "event"
    },
    {
      "anonymous": false,
      "inputs": [
        {
          "indexed": true,
          "internalType": "bytes32",
          "name": "role",
          "type": "bytes32"
        },
        {
          "indexed": true,
          "internalType": "address",
          "name": "account",
          "type": "address"
        },
        {
          "indexed": true,
          "internalType": "address",
          "name": "sender",
          "type": "address"
        }
      ],
      "name": "RoleRevoked",
      "type": "event"
    },
    {
      "anonymous": false,
      "inputs": [
        {
          "indexed": true,
          "internalType": "uint256",
          "name": "poolId",
          "type": "uint256"
        },
        {
          "indexed": true,
          "internalType": "address",
          "name": "player",
          "type": "address"
        },
        {
          "indexed": false,
          "internalType": "uint16",
          "name": "accuracy",
          "type": "uint16"
        }
      ],
      "name": "ScoreSubmitted",
      "type": "event"
    },
    {
      "anonymous": false,
      "inputs": [
        {
          "indexed": true,
          "internalType": "address",
          "name": "treasury",
          "type": "address"
        },
        {
          "indexed": false,
          "internalType": "uint256",
          "name": "amount",
          "type": "uint256"
        }
      ],
      "name": "SystemFeePaid",
      "type": "event"
    },
    {
      "anonymous": false,
      "inputs": [
        {
          "indexed": true,
          "internalType": "address",
          "name": "treasury1",
          "type": "address"
        },
        {
          "indexed": true,
          "internalType": "address",
          "name": "treasury2",
          "type": "address"
        },
        {
          "indexed": true,
          "internalType": "address",
          "name": "treasury3",
          "type": "address"
        }
      ],
      "name": "TreasuryUpdated",
      "type": "event"
    },
    {
      "anonymous": false,
      "inputs": [
        {
          "indexed": false,
          "internalType": "address",
          "name": "account",
          "type": "address"
        }
      ],
      "name": "Unpaused",
      "type": "event"
    },
    {
      "anonymous": false,
      "inputs": [
        {
          "indexed": true,
          "internalType": "address",
          "name": "implementation",
          "type": "address"
        }
      ],
      "name": "Upgraded",
      "type": "event"
    },
    {
      "anonymous": false,
      "inputs": [
        {
          "indexed": true,
          "internalType": "address",
          "name": "user",
          "type": "address"
        },
        {
          "indexed": false,
          "internalType": "bool",
          "name": "verified",
          "type": "bool"
        }
      ],
      "name": "UserVerified",
      "type": "event"
    },
    {
      "anonymous": false,
      "inputs": [
        {
          "indexed": true,
          "internalType": "address",
          "name": "oldVerifier",
          "type": "address"
        },
        {
          "indexed": true,
          "internalType": "address",
          "name": "newVerifier",
          "type": "address"
        }
      ],
      "name": "VerifierUpdated",
      "type": "event"
    },
    {
      "inputs": [],
      "name": "ADMIN_ROLE",
      "outputs": [
        {
          "internalType": "bytes32",
          "name": "",
          "type": "bytes32"
        }
      ],
      "stateMutability": "view",
      "type": "function"
    },
    {
      "inputs": [],
      "name": "DEFAULT_ADMIN_ROLE",
      "outputs": [
        {
          "internalType": "bytes32",
          "name": "",
          "type": "bytes32"
        }
      ],
      "stateMutability": "view",
      "type": "function"
    },
    {
      "inputs": [],
      "name": "ENTRY_FEE",
      "outputs": [
        {
          "internalType": "uint256",
          "name": "",
          "type": "uint256"
        }
      ],
      "stateMutability": "view",
      "type": "function"
    },
    {
      "inputs": [],
      "name": "FINALIZATION_TIMEOUT",
      "outputs": [
        {
          "internalType": "uint256",
          "name": "",
          "type": "uint256"
        }
      ],
      "stateMutability": "view",
      "type": "function"
    },
    {
      "inputs": [],
      "name": "POOL_SIZE",
      "outputs": [
        {
          "internalType": "uint8",
          "name": "",
          "type": "uint8"
        }
      ],
      "stateMutability": "view",
      "type": "function"
    },
    {
      "inputs": [],
      "name": "PRIZE_1ST",
      "outputs": [
        {
          "internalType": "uint256",
          "name": "",
          "type": "uint256"
        }
      ],
      "stateMutability": "view",
      "type": "function"
    },
    {
      "inputs": [],
      "name": "PRIZE_2ND",
      "outputs": [
        {
          "internalType": "uint256",
          "name": "",
          "type": "uint256"
        }
      ],
      "stateMutability": "view",
      "type": "function"
    },
    {
      "inputs": [],
      "name": "PRIZE_3RD",
      "outputs": [
        {
          "internalType": "uint256",
          "name": "",
          "type": "uint256"
        }
      ],
      "stateMutability": "view",
      "type": "function"
    },
    {
      "inputs": [],
      "name": "STORAGE_POOL_SIZE",
      "outputs": [
        {
          "internalType": "uint8",
          "name": "",
          "type": "uint8"
        }
      ],
      "stateMutability": "view",
      "type": "function"
    },
    {
      "inputs": [],
      "name": "SYSTEM_FEE",
      "outputs": [
        {
          "internalType": "uint256",
          "name": "",
          "type": "uint256"
        }
      ],
      "stateMutability": "view",
      "type": "function"
    },
    {
      "inputs": [],
      "name": "UNVERIFIED_POOL_SLOT_LIMIT",
      "outputs": [
        {
          "internalType": "uint8",
          "name": "",
          "type": "uint8"
        }
      ],
      "stateMutability": "view",
      "type": "function"
    },
    {
      "inputs": [],
      "name": "UNVERIFIED_SLOT_LIMIT",
      "outputs": [
        {
          "internalType": "uint8",
          "name": "",
          "type": "uint8"
        }
      ],
      "stateMutability": "view",
      "type": "function"
    },
    {
      "inputs": [],
      "name": "UPGRADER_ROLE",
      "outputs": [
        {
          "internalType": "bytes32",
          "name": "",
          "type": "bytes32"
        }
      ],
      "stateMutability": "view",
      "type": "function"
    },
    {
      "inputs": [],
      "name": "UPGRADE_INTERFACE_VERSION",
      "outputs": [
        {
          "internalType": "string",
          "name": "",
          "type": "string"
        }
      ],
      "stateMutability": "view",
      "type": "function"
    },
    {
      "inputs": [
        {
          "internalType": "address",
          "name": "",
          "type": "address"
        }
      ],
      "name": "activePoolId",
      "outputs": [
        {
          "internalType": "uint256",
          "name": "",
          "type": "uint256"
        }
      ],
      "stateMutability": "view",
      "type": "function"
    },
    {
      "inputs": [
        {
          "internalType": "address[]",
          "name": "users",
          "type": "address[]"
        }
      ],
      "name": "batchResetActivePoolId",
      "outputs": [],
      "stateMutability": "nonpayable",
      "type": "function"
    },
    {
      "inputs": [
        {
          "internalType": "address[]",
          "name": "users",
          "type": "address[]"
        }
      ],
      "name": "batchResetPlayerSlotCount",
      "outputs": [],
      "stateMutability": "nonpayable",
      "type": "function"
    },
    {
      "inputs": [
        {
          "internalType": "uint256",
          "name": "poolId",
          "type": "uint256"
        }
      ],
      "name": "claimPrize",
      "outputs": [],
      "stateMutability": "nonpayable",
      "type": "function"
    },
    {
      "inputs": [],
      "name": "currentPoolId",
      "outputs": [
        {
          "internalType": "uint256",
          "name": "",
          "type": "uint256"
        }
      ],
      "stateMutability": "view",
      "type": "function"
    },
    {
      "inputs": [],
      "name": "emergencyWithdraw",
      "outputs": [],
      "stateMutability": "nonpayable",
      "type": "function"
    },
    {
      "inputs": [
        {
          "internalType": "uint256",
          "name": "poolId",
          "type": "uint256"
        }
      ],
      "name": "finalizePool",
      "outputs": [],
      "stateMutability": "nonpayable",
      "type": "function"
    },
    {
      "inputs": [
        {
          "internalType": "uint256",
          "name": "poolId",
          "type": "uint256"
        },
        {
          "internalType": "uint8",
          "name": "index",
          "type": "uint8"
        }
      ],
      "name": "getPlayer",
      "outputs": [
        {
          "internalType": "address",
          "name": "wallet",
          "type": "address"
        },
        {
          "internalType": "uint256",
          "name": "fid",
          "type": "uint256"
        },
        {
          "internalType": "uint16",
          "name": "accuracy",
          "type": "uint16"
        },
        {
          "internalType": "uint32",
          "name": "timestamp",
          "type": "uint32"
        },
        {
          "internalType": "bool",
          "name": "hasSubmitted",
          "type": "bool"
        }
      ],
      "stateMutability": "view",
      "type": "function"
    },
    {
      "inputs": [
        {
          "internalType": "uint256",
          "name": "poolId",
          "type": "uint256"
        }
      ],
      "name": "getPool",
      "outputs": [
        {
          "internalType": "uint256",
          "name": "id",
          "type": "uint256"
        },
        {
          "internalType": "uint8",
          "name": "playerCount",
          "type": "uint8"
        },
        {
          "internalType": "bool",
          "name": "isActive",
          "type": "bool"
        },
        {
          "internalType": "bool",
          "name": "isCompleted",
          "type": "bool"
        },
        {
          "internalType": "uint32",
          "name": "startTime",
          "type": "uint32"
        },
        {
          "internalType": "bytes32",
          "name": "targetColor",
          "type": "bytes32"
        }
      ],
      "stateMutability": "view",
      "type": "function"
    },
    {
      "inputs": [
        {
          "internalType": "uint256",
          "name": "poolId",
          "type": "uint256"
        }
      ],
      "name": "getPoolWinners",
      "outputs": [
        {
          "internalType": "address[3]",
          "name": "winners",
          "type": "address[3]"
        },
        {
          "internalType": "bool[3]",
          "name": "claimed",
          "type": "bool[3]"
        }
      ],
      "stateMutability": "view",
      "type": "function"
    },
    {
      "inputs": [
        {
          "internalType": "bytes32",
          "name": "role",
          "type": "bytes32"
        }
      ],
      "name": "getRoleAdmin",
      "outputs": [
        {
          "internalType": "bytes32",
          "name": "",
          "type": "bytes32"
        }
      ],
      "stateMutability": "view",
      "type": "function"
    },
    {
      "inputs": [
        {
          "internalType": "bytes32",
          "name": "role",
          "type": "bytes32"
        },
        {
          "internalType": "uint256",
          "name": "index",
          "type": "uint256"
        }
      ],
      "name": "getRoleMember",
      "outputs": [
        {
          "internalType": "address",
          "name": "",
          "type": "address"
        }
      ],
      "stateMutability": "view",
      "type": "function"
    },
    {
      "inputs": [
        {
          "internalType": "bytes32",
          "name": "role",
          "type": "bytes32"
        }
      ],
      "name": "getRoleMemberCount",
      "outputs": [
        {
          "internalType": "uint256",
          "name": "",
          "type": "uint256"
        }
      ],
      "stateMutability": "view",
      "type": "function"
    },
    {
      "inputs": [
        {
          "internalType": "bytes32",
          "name": "role",
          "type": "bytes32"
        }
      ],
      "name": "getRoleMembers",
      "outputs": [
        {
          "internalType": "address[]",
          "name": "",
          "type": "address[]"
        }
      ],
      "stateMutability": "view",
      "type": "function"
    },
    {
      "inputs": [
        {
          "internalType": "address",
          "name": "user",
          "type": "address"
        }
      ],
      "name": "getUserFullStats",
      "outputs": [
        {
          "internalType": "bool",
          "name": "isVerified",
          "type": "bool"
        },
        {
          "internalType": "uint8",
          "name": "currentPoolSlots",
          "type": "uint8"
        },
        {
          "internalType": "uint8",
          "name": "maxPoolSlots",
          "type": "uint8"
        },
        {
          "internalType": "uint8",
          "name": "lifetimeSlots",
          "type": "uint8"
        },
        {
          "internalType": "bool",
          "name": "canJoin",
          "type": "bool"
        },
        {
          "internalType": "uint256",
          "name": "totalClaimed",
          "type": "uint256"
        },
        {
          "internalType": "uint256",
          "name": "totalSpent",
          "type": "uint256"
        },
        {
          "internalType": "uint32",
          "name": "gamesPlayed",
          "type": "uint32"
        },
        {
          "internalType": "uint16",
          "name": "wins1st",
          "type": "uint16"
        },
        {
          "internalType": "uint16",
          "name": "wins2nd",
          "type": "uint16"
        },
        {
          "internalType": "uint16",
          "name": "wins3rd",
          "type": "uint16"
        }
      ],
      "stateMutability": "view",
      "type": "function"
    },
    {
      "inputs": [
        {
          "internalType": "uint256",
          "name": "poolId",
          "type": "uint256"
        },
        {
          "internalType": "address",
          "name": "user",
          "type": "address"
        }
      ],
      "name": "getUserPoolSlots",
      "outputs": [
        {
          "internalType": "uint8",
          "name": "slots",
          "type": "uint8"
        }
      ],
      "stateMutability": "view",
      "type": "function"
    },
    {
      "inputs": [
        {
          "internalType": "uint256",
          "name": "poolId",
          "type": "uint256"
        },
        {
          "internalType": "address",
          "name": "user",
          "type": "address"
        }
      ],
      "name": "getUserPrizeInPool",
      "outputs": [
        {
          "internalType": "uint8",
          "name": "rank",
          "type": "uint8"
        },
        {
          "internalType": "uint256",
          "name": "amount",
          "type": "uint256"
        }
      ],
      "stateMutability": "view",
      "type": "function"
    },
    {
      "inputs": [
        {
          "internalType": "address",
          "name": "user",
          "type": "address"
        }
      ],
      "name": "getUserStatus",
      "outputs": [
        {
          "internalType": "bool",
          "name": "isVerified",
          "type": "bool"
        },
        {
          "internalType": "uint8",
          "name": "slotsUsed",
          "type": "uint8"
        },
        {
          "internalType": "uint8",
          "name": "slotsAvailable",
          "type": "uint8"
        },
        {
          "internalType": "bool",
          "name": "canJoin",
          "type": "bool"
        }
      ],
      "stateMutability": "view",
      "type": "function"
    },
    {
      "inputs": [
        {
          "internalType": "bytes32",
          "name": "role",
          "type": "bytes32"
        },
        {
          "internalType": "address",
          "name": "account",
          "type": "address"
        }
      ],
      "name": "grantRole",
      "outputs": [],
      "stateMutability": "nonpayable",
      "type": "function"
    },
    {
      "inputs": [
        {
          "internalType": "bytes32",
          "name": "role",
          "type": "bytes32"
        },
        {
          "internalType": "address",
          "name": "account",
          "type": "address"
        }
      ],
      "name": "hasRole",
      "outputs": [
        {
          "internalType": "bool",
          "name": "",
          "type": "bool"
        }
      ],
      "stateMutability": "view",
      "type": "function"
    },
    {
      "inputs": [
        {
          "internalType": "address",
          "name": "_admin",
          "type": "address"
        },
        {
          "internalType": "address",
          "name": "_upgrader",
          "type": "address"
        },
        {
          "internalType": "address",
          "name": "_treasury1",
          "type": "address"
        },
        {
          "internalType": "address",
          "name": "_treasury2",
          "type": "address"
        },
        {
          "internalType": "address",
          "name": "_treasury3",
          "type": "address"
        },
        {
          "internalType": "address",
          "name": "_verifier",
          "type": "address"
        }
      ],
      "name": "initialize",
      "outputs": [],
      "stateMutability": "nonpayable",
      "type": "function"
    },
    {
      "inputs": [
        {
          "internalType": "uint256",
          "name": "fid",
          "type": "uint256"
        }
      ],
      "name": "joinPool",
      "outputs": [],
      "stateMutability": "payable",
      "type": "function"
    },
    {
      "inputs": [],
      "name": "pause",
      "outputs": [],
      "stateMutability": "nonpayable",
      "type": "function"
    },
    {
      "inputs": [],
      "name": "paused",
      "outputs": [
        {
          "internalType": "bool",
          "name": "",
          "type": "bool"
        }
      ],
      "stateMutability": "view",
      "type": "function"
    },
    {
      "inputs": [
        {
          "internalType": "address",
          "name": "",
          "type": "address"
        }
      ],
      "name": "playerSlotCount",
      "outputs": [
        {
          "internalType": "uint8",
          "name": "",
          "type": "uint8"
        }
      ],
      "stateMutability": "view",
      "type": "function"
    },
    {
      "inputs": [
        {
          "internalType": "uint256",
          "name": "",
          "type": "uint256"
        },
        {
          "internalType": "address",
          "name": "",
          "type": "address"
        }
      ],
      "name": "poolSlotCount",
      "outputs": [
        {
          "internalType": "uint8",
          "name": "",
          "type": "uint8"
        }
      ],
      "stateMutability": "view",
      "type": "function"
    },
    {
      "inputs": [
        {
          "internalType": "uint256",
          "name": "",
          "type": "uint256"
        },
        {
          "internalType": "uint8",
          "name": "",
          "type": "uint8"
        }
      ],
      "name": "poolWinners",
      "outputs": [
        {
          "internalType": "address",
          "name": "",
          "type": "address"
        }
      ],
      "stateMutability": "view",
      "type": "function"
    },
    {
      "inputs": [
        {
          "internalType": "uint256",
          "name": "",
          "type": "uint256"
        }
      ],
      "name": "pools",
      "outputs": [
        {
          "internalType": "uint256",
          "name": "id",
          "type": "uint256"
        },
        {
          "internalType": "uint8",
          "name": "playerCount",
          "type": "uint8"
        },
        {
          "internalType": "bool",
          "name": "isActive",
          "type": "bool"
        },
        {
          "internalType": "bool",
          "name": "isCompleted",
          "type": "bool"
        },
        {
          "internalType": "uint32",
          "name": "startTime",
          "type": "uint32"
        },
        {
          "internalType": "bytes32",
          "name": "targetColor",
          "type": "bytes32"
        }
      ],
      "stateMutability": "view",
      "type": "function"
    },
    {
      "inputs": [
        {
          "internalType": "uint256",
          "name": "",
          "type": "uint256"
        },
        {
          "internalType": "uint8",
          "name": "",
          "type": "uint8"
        }
      ],
      "name": "prizeClaimed",
      "outputs": [
        {
          "internalType": "bool",
          "name": "",
          "type": "bool"
        }
      ],
      "stateMutability": "view",
      "type": "function"
    },
    {
      "inputs": [],
      "name": "proxiableUUID",
      "outputs": [
        {
          "internalType": "bytes32",
          "name": "",
          "type": "bytes32"
        }
      ],
      "stateMutability": "view",
      "type": "function"
    },
    {
      "inputs": [
        {
          "internalType": "bytes32",
          "name": "role",
          "type": "bytes32"
        },
        {
          "internalType": "address",
          "name": "callerConfirmation",
          "type": "address"
        }
      ],
      "name": "renounceRole",
      "outputs": [],
      "stateMutability": "nonpayable",
      "type": "function"
    },
    {
      "inputs": [
        {
          "internalType": "address",
          "name": "user",
          "type": "address"
        }
      ],
      "name": "resetActivePoolId",
      "outputs": [],
      "stateMutability": "nonpayable",
      "type": "function"
    },
    {
      "inputs": [
        {
          "internalType": "address",
          "name": "user",
          "type": "address"
        }
      ],
      "name": "resetPlayerSlotCount",
      "outputs": [],
      "stateMutability": "nonpayable",
      "type": "function"
    },
    {
      "inputs": [
        {
          "internalType": "bytes32",
          "name": "role",
          "type": "bytes32"
        },
        {
          "internalType": "address",
          "name": "account",
          "type": "address"
        }
      ],
      "name": "revokeRole",
      "outputs": [],
      "stateMutability": "nonpayable",
      "type": "function"
    },
    {
      "inputs": [
        {
          "internalType": "address",
          "name": "_treasury1",
          "type": "address"
        },
        {
          "internalType": "address",
          "name": "_treasury2",
          "type": "address"
        },
        {
          "internalType": "address",
          "name": "_treasury3",
          "type": "address"
        }
      ],
      "name": "setTreasuries",
      "outputs": [],
      "stateMutability": "nonpayable",
      "type": "function"
    },
    {
      "inputs": [
        {
          "internalType": "address",
          "name": "user",
          "type": "address"
        },
        {
          "internalType": "bool",
          "name": "verified",
          "type": "bool"
        }
      ],
      "name": "setUserVerification",
      "outputs": [],
      "stateMutability": "nonpayable",
      "type": "function"
    },
    {
      "inputs": [
        {
          "internalType": "address",
          "name": "newVerifier",
          "type": "address"
        }
      ],
      "name": "setVerifier",
      "outputs": [],
      "stateMutability": "nonpayable",
      "type": "function"
    },
    {
      "inputs": [
        {
          "internalType": "uint256",
          "name": "poolId",
          "type": "uint256"
        },
        {
          "internalType": "uint16",
          "name": "accuracy",
          "type": "uint16"
        }
      ],
      "name": "submitScore",
      "outputs": [],
      "stateMutability": "nonpayable",
      "type": "function"
    },
    {
      "inputs": [
        {
          "internalType": "bytes4",
          "name": "interfaceId",
          "type": "bytes4"
        }
      ],
      "name": "supportsInterface",
      "outputs": [
        {
          "internalType": "bool",
          "name": "",
          "type": "bool"
        }
      ],
      "stateMutability": "view",
      "type": "function"
    },
    {
      "inputs": [],
      "name": "treasury1",
      "outputs": [
        {
          "internalType": "address",
          "name": "",
          "type": "address"
        }
      ],
      "stateMutability": "view",
      "type": "function"
    },
    {
      "inputs": [],
      "name": "treasury2",
      "outputs": [
        {
          "internalType": "address",
          "name": "",
          "type": "address"
        }
      ],
      "stateMutability": "view",
      "type": "function"
    },
    {
      "inputs": [],
      "name": "treasury3",
      "outputs": [
        {
          "internalType": "address",
          "name": "",
          "type": "address"
        }
      ],
      "stateMutability": "view",
      "type": "function"
    },
    {
      "inputs": [
        {
          "internalType": "address",
          "name": "",
          "type": "address"
        }
      ],
      "name": "unclaimedPrizes",
      "outputs": [
        {
          "internalType": "uint256",
          "name": "",
          "type": "uint256"
        }
      ],
      "stateMutability": "view",
      "type": "function"
    },
    {
      "inputs": [],
      "name": "unpause",
      "outputs": [],
      "stateMutability": "nonpayable",
      "type": "function"
    },
    {
      "inputs": [
        {
          "internalType": "address",
          "name": "newImplementation",
          "type": "address"
        },
        {
          "internalType": "bytes",
          "name": "data",
          "type": "bytes"
        }
      ],
      "name": "upgradeToAndCall",
      "outputs": [],
      "stateMutability": "payable",
      "type": "function"
    },
    {
      "inputs": [
        {
          "internalType": "address",
          "name": "",
          "type": "address"
        }
      ],
      "name": "userStats",
      "outputs": [
        {
          "internalType": "uint256",
          "name": "totalClaimed",
          "type": "uint256"
        },
        {
          "internalType": "uint256",
          "name": "totalSpent",
          "type": "uint256"
        },
        {
          "internalType": "uint32",
          "name": "gamesPlayed",
          "type": "uint32"
        },
        {
          "internalType": "uint16",
          "name": "wins1st",
          "type": "uint16"
        },
        {
          "internalType": "uint16",
          "name": "wins2nd",
          "type": "uint16"
        },
        {
          "internalType": "uint16",
          "name": "wins3rd",
          "type": "uint16"
        }
      ],
      "stateMutability": "view",
      "type": "function"
    },
    {
      "inputs": [
        {
          "internalType": "address",
          "name": "",
          "type": "address"
        }
      ],
      "name": "verifiedUsers",
      "outputs": [
        {
          "internalType": "bool",
          "name": "",
          "type": "bool"
        }
      ],
      "stateMutability": "view",
      "type": "function"
    },
    {
      "inputs": [],
      "name": "verifier",
      "outputs": [
        {
          "internalType": "address",
          "name": "",
          "type": "address"
        }
      ],
      "stateMutability": "view",
      "type": "function"
    },
    {
      "inputs": [],
      "name": "version",
      "outputs": [
        {
          "internalType": "string",
          "name": "",
          "type": "string"
        }
      ],
      "stateMutability": "pure",
      "type": "function"
    }
  ],
  "bytecode": "0x60a0604052306080523480156200001557600080fd5b506200002062000026565b620000da565b7ff0c57e16840df040f15088dc2f81fe391c3923bec73e23a9662efc9c229c6a00805468010000000000000000900460ff1615620000775760405163f92ee8a960e01b815260040160405180910390fd5b80546001600160401b0390811614620000d75780546001600160401b0319166001600160401b0390811782556040519081527fc7f505b2f371ae2175ee4913f4499e1f2633a7b5936321eed1cdaeb6115181d29060200160405180910390a15b50565b608051613e8a62000104600039600081816127f80152818161282101526129ff0152613e8a6000f3fe6080604052600436106103b85760003560e01c80638e235d06116101f2578063d2581e4d1161010d578063e2f71741116100a0578063ebc5163b1161006f578063ebc5163b14610ea8578063f2717a8014610ebe578063f6d361cc14610eff578063f72c0d8b14610f1b57600080fd5b8063e2f7174114610d98578063e35fe36614610dc5578063e5d1d26014610df5578063ea0d5dcd14610e1557600080fd5b8063d7098154116100dc578063d709815414610d08578063daf1d69614610d28578063db2e21bc14610d48578063e2a57fd614610d5d57600080fd5b8063d2581e4d14610c97578063d2bd2f2214610cac578063d547741f14610ccc578063d62fbc3514610cec57600080fd5b8063a3246ad311610185578063b99b121111610154578063b99b121114610bd5578063c5a1f43414610c37578063ca15c87314610c57578063cc2a9a5b14610c7757600080fd5b8063a3246ad314610af6578063ac4afa3814610b23578063ad3cb1cc14610b84578063af46b76214610bb557600080fd5b8063997f524a116101c1578063997f524a14610a685780639a99a09814610a885780639f3c093c14610aa8578063a217fddf14610ae157600080fd5b80638e235d06146109e65780639010d07c14610a1357806391d1485414610a3357806391f5800d14610a5357600080fd5b80634d7c0f5b116102e25780635c975abb116102755780636ed2bee2116102445780636ed2bee2146108c557806375b238fc1461090b5780638456cb591461092d5780638a65d8741461094257600080fd5b80635c975abb146107385780636486053f1461075d57806364e280ce146108755780636a70a7cc146108a557600080fd5b806353c210f2116102b157806353c210f2146106975780635437988d146106c157806354fd4d50146106e157806356ade98c1461071857600080fd5b80634d7c0f5b146106565780634f1ef286146106845780634f9daac61461069757806352d1902d146106ac57600080fd5b8063291b3d601161035a5780633299cf41116103295780633299cf41146105e757806334e7a19f1461060e57806336568abe146106215780633f4ba83a1461064157600080fd5b8063291b3d601461056d57806329dd29c7146105895780632b7ac3f3146105a55780632f2ff15d146105c557600080fd5b80630ca4f9d9116103965780630ca4f9d9146104c8578063129f5502146104f257806317ee395b14610512578063248a9ca31461054d57600080fd5b806301ffc9a7146103bd578063068bcd8d146103f2578063097d10b814610490575b600080fd5b3480156103c957600080fd5b506103dd6103d8366004613793565b610f4f565b60405190151581526020015b60405180910390f35b3480156103fe57600080fd5b5061045461040d3660046137bd565b600090815260208190526040902080546031820154603290920154909260ff80841693610100810482169362010000820490921692630100000090910463ffffffff169190565b6040805196875260ff9095166020870152921515938501939093521515606084015263ffffffff909116608083015260a082015260c0016103e9565b34801561049c57600080fd5b506007546104b0906001600160a01b031681565b6040516001600160a01b0390911681526020016103e9565b3480156104d457600080fd5b506104e4670a688906bd8b000081565b6040519081526020016103e9565b3480156104fe57600080fd5b506005546104b0906001600160a01b031681565b34801561051e57600080fd5b506103dd61052d3660046137d6565b600960209081526000928352604080842090915290825290205460ff1681565b34801561055957600080fd5b506104e46105683660046137bd565b610f7a565b34801561057957600080fd5b506104e46730927f74c9de000081565b34801561059557600080fd5b506104e46722b1c8c1227a000081565b3480156105b157600080fd5b50600b546104b0906001600160a01b031681565b3480156105d157600080fd5b506105e56105e0366004613828565b610f9c565b005b3480156105f357600080fd5b506105fc600281565b60405160ff90911681526020016103e9565b6105e561061c3660046137bd565b610fbe565b34801561062d57600080fd5b506105e561063c366004613828565b611383565b34801561064d57600080fd5b506105e56113bb565b34801561066257600080fd5b506106766106713660046137bd565b6113db565b6040516103e9929190613854565b6105e56106923660046138d1565b6114af565b3480156106a357600080fd5b506105fc601081565b3480156106b857600080fd5b506104e46114ce565b3480156106cd57600080fd5b506105e56106dc366004613993565b6114eb565b3480156106ed57600080fd5b506040805180820190915260058152640352e302e360dc1b60208201525b6040516103e991906139d2565b34801561072457600080fd5b506105e5610733366004613993565b61157d565b34801561074457600080fd5b50600080516020613df58339815191525460ff166103dd565b34801561076957600080fd5b5061080b610778366004613993565b6001600160a01b03166000818152600360209081526040808320546004548452600c835281842094845293825280832054600280845282852054600180865284872054600d9096529390952080549381015491015460ff96871697928716969586169415939263ffffffff82169161ffff6401000000008204811692600160301b8304821692600160401b900490911690565b604080519b15158c5260ff9a8b1660208d0152988a16988b0198909852959097166060890152921515608088015260a087019190915260c086015263ffffffff1660e085015261ffff928316610100850152821661012084015216610140820152610160016103e9565b34801561088157600080fd5b506105fc610890366004613993565b60026020526000908152604090205460ff1681565b3480156108b157600080fd5b506105e56108c0366004613a05565b6115da565b3480156108d157600080fd5b506105fc6108e0366004613828565b6000918252600c602090815260408084206001600160a01b0393909316845291905290205460ff1690565b34801561091757600080fd5b506104e4600080516020613e3583398151915281565b34801561093957600080fd5b506105e56116a8565b34801561094e57600080fd5b506109a761095d366004613993565b600d6020526000908152604090208054600182015460029092015490919063ffffffff81169061ffff6401000000008204811691600160301b8104821691600160401b9091041686565b60408051968752602087019590955263ffffffff9093169385019390935261ffff908116606085015291821660808401521660a082015260c0016103e9565b3480156109f257600080fd5b506104e4610a01366004613993565b600a6020526000908152604090205481565b348015610a1f57600080fd5b506104b0610a2e366004613a7a565b6116c8565b348015610a3f57600080fd5b506103dd610a4e366004613828565b6116f7565b348015610a5f57600080fd5b506104e4607881565b348015610a7457600080fd5b506105e5610a83366004613a9c565b61172f565b348015610a9457600080fd5b506105e5610aa3366004613993565b6117b9565b348015610ab457600080fd5b50610ac8610ac3366004613828565b61181b565b6040805160ff90931683526020830191909152016103e9565b348015610aed57600080fd5b506104e4600081565b348015610b0257600080fd5b50610b16610b113660046137bd565b6118f1565b6040516103e99190613acd565b348015610b2f57600080fd5b50610454610b3e3660046137bd565b600060208190529081526040902080546031820154603290920154909160ff808216926101008304821692620100008104909216916301000000900463ffffffff169086565b348015610b9057600080fd5b5061070b604051806040016040528060058152602001640352e302e360dc1b81525081565b348015610bc157600080fd5b506105e5610bd0366004613b1a565b611923565b348015610be157600080fd5b50610bf5610bf03660046137d6565b6119f7565b604080516001600160a01b039096168652602086019490945261ffff9092169284019290925263ffffffff90911660608301521515608082015260a0016103e9565b348015610c4357600080fd5b506105e5610c523660046137bd565b611aa4565b348015610c6357600080fd5b506104e4610c723660046137bd565b611bd3565b348015610c8357600080fd5b506105e5610c92366004613b5d565b611bf9565b348015610ca357600080fd5b506105fc600481565b348015610cb857600080fd5b506105e5610cc7366004613bd1565b611e5a565b348015610cd857600080fd5b506105e5610ce7366004613828565b6120e5565b348015610cf857600080fd5b506104e4671158e460913d000081565b348015610d1457600080fd5b506105e5610d233660046137bd565b612101565b348015610d3457600080fd5b506105e5610d43366004613a05565b612431565b348015610d5457600080fd5b506105e5612510565b348015610d6957600080fd5b506105fc610d78366004613828565b600c60209081526000928352604080842090915290825290205460ff1681565b348015610da457600080fd5b506104e4610db3366004613993565b60016020526000908152604090205481565b348015610dd157600080fd5b506103dd610de0366004613993565b60036020526000908152604090205460ff1681565b348015610e0157600080fd5b506006546104b0906001600160a01b031681565b348015610e2157600080fd5b50610e7a610e30366004613993565b6001600160a01b03166000818152600360209081526040808320546004548452600c83528184209484529382528083205460019092529091205460ff928316939183169291901590565b6040516103e99493929190931515845260ff9283166020850152911660408301521515606082015260800190565b348015610eb457600080fd5b506104e460045481565b348015610eca57600080fd5b506104b0610ed93660046137d6565b60086020908152600092835260408084209091529082529020546001600160a01b031681565b348015610f0b57600080fd5b506104e46706f05b59d3b2000081565b348015610f2757600080fd5b506104e47f189ab7a9244df0848122154315af71fe140f3db0fe014031783b0946b8c9d2e381565b60006001600160e01b03198216635a05180f60e01b1480610f745750610f74826125b3565b92915050565b6000908152600080516020613dd5833981519152602052604090206001015490565b610fa582610f7a565b610fae816125e8565b610fb883836125f2565b50505050565b610fc6612637565b610fce61266f565b6706f05b59d3b200003414610ff657604051636fe6a4c960e01b815260040160405180910390fd5b806000036110175760405163c1408aaf60e01b815260040160405180910390fd5b336000908152600160205260409020541561104557604051630f2c3adf60e11b815260040160405180910390fd5b60045460009081526020819052604090206031810154601060ff90911610611080576040516327a01e0760e21b815260040160405180910390fd5b6004546000908152600c602090815260408083203380855290835281842054825160a081018452918252928101869052908101839052606081018390526080810192909252603183015460ff9182169291600185019116601081106110e7576110e7613bfd565b82516003919091029190910180546001600160a01b039092166001600160a01b03199092169190911781556020820151600182015560408201516002909101805460608401516080909401511515600160301b0266ff0000000000001963ffffffff909516620100000265ffffffffffff1990921661ffff90941693909317179290921617905560318201805460ff1690600061118383613c29565b82546101009290920a60ff8181021990931691831602179091556004543360009081526001602090815260408083209390935560029052908120805490921692506111cd83613c29565b82546101009290920a60ff8181021990931691831602179091556004546000908152600c6020908152604080832033845290915281208054909216925061121383613c29565b825460ff9182166101009390930a928302919092021990911617905550336000908152600d6020526040812060010180546706f05b59d3b20000929061125a908490613c48565b909155505060ff81166000036112ae57336000908152600d60205260408120600201805463ffffffff169161128e83613c5b565b91906101000a81548163ffffffff021916908363ffffffff160217905550505b6004546040518481523391907f03dfbe1fcb4e2d61f3b4a0c93d8f814c92250618b3387f396cc9fc9fafe2c2039060200160405180910390a3603182015460ff16600f19016113675760318201805463ffffffff428116630100000090810266ffffffff00ff0019909316929092176101001792839055600454604051929093041681527fe095f2953657e5e67e41ed2a85f51575a89d28199b24c9c038a76ded7be608689060200160405180910390a26113676126a2565b50506113806001600080516020613e1583398151915255565b50565b6001600160a01b03811633146113ac5760405163334bd91960e11b815260040160405180910390fd5b6113b68282612751565b505050565b600080516020613e358339815191526113d3816125e8565b61138061278d565b6113e3613775565b6113eb613775565b60015b60038160ff16116114a957600084815260086020908152604080832060ff851684529091529020546001600160a01b03168361142b600184613c7e565b60ff166003811061143e5761143e613bfd565b6001600160a01b0390921660209283029190910152600085815260098252604080822060ff80861684529352902054168261147a600184613c7e565b60ff166003811061148d5761148d613bfd565b91151560209092020152806114a181613c29565b9150506113ee565b50915091565b6114b76127ed565b6114c082612892565b6114ca8282612937565b5050565b60006114d86129f4565b50600080516020613db583398151915290565b600080516020613e35833981519152611503816125e8565b6001600160a01b03821661152a5760405163043103a360e21b815260040160405180910390fd5b600b80546001600160a01b038481166001600160a01b0319831681179093556040519116919082907f0243549a92b2412f7a3caf7a2e56d65b8821b91345363faa5f57195384065fcc90600090a3505050565b600080516020613e35833981519152611595816125e8565b6001600160a01b038216600081815260016020526040808220829055517faff9322337711a9f6d7a3a9322989f6d09b0fcbc6b84f2256056a59aa5a5b0aa9190a25050565b600080516020613e358339815191526115f2816125e8565b60005b82811015610fb85760006001600086868581811061161557611615613bfd565b905060200201602081019061162a9190613993565b6001600160a01b0316815260208101919091526040016000205583838281811061165657611656613bfd565b905060200201602081019061166b9190613993565b6001600160a01b03167faff9322337711a9f6d7a3a9322989f6d09b0fcbc6b84f2256056a59aa5a5b0aa60405160405180910390a26001016115f5565b600080516020613e358339815191526116c0816125e8565b611380612a3d565b6000828152600080516020613d958339815191526020819052604082206116ef9084612a86565b949350505050565b6000918252600080516020613dd5833981519152602090815260408084206001600160a01b0393909316845291905290205460ff1690565b600b546001600160a01b0316331461175a5760405163b9857aa160e01b815260040160405180910390fd5b6001600160a01b038216600081815260036020908152604091829020805460ff191685151590811790915591519182527f34736af44d2b91cd43fa896d4cfe0861ec1e6b4538583d385fc671639e9153b2910160405180910390a25050565b600080516020613e358339815191526117d1816125e8565b6001600160a01b038216600081815260026020526040808220805460ff19169055517ffba900bea8c42defbbf3e9e84151351a5a87adcf37f3186ae2b698b2d987ddf39190a25050565b60008060015b60038160ff16116118e157600085815260086020908152604080832060ff851684529091529020546001600160a01b03858116911614801561187f5750600085815260096020908152604080832060ff808616855292529091205416155b156118cf5760008160ff166001036118a057506730927f74c9de00006118c5565b8160ff166002036118ba57506722b1c8c1227a00006118c5565b50671158e460913d00005b90925090506118ea565b806118d981613c29565b915050611821565b50600080915091505b9250929050565b6000818152600080516020613d95833981519152602081905260409091206060919061191c90612a92565b9392505050565b600080516020613e3583398151915261193b816125e8565b6001600160a01b038416158061195857506001600160a01b038316155b8061196a57506001600160a01b038216155b156119885760405163cfe2ea6360e01b815260040160405180910390fd5b600580546001600160a01b03199081166001600160a01b03878116918217909355600680548316878516908117909155600780549093169386169384179092556040517f23c12d5579081c5f1077c04a6b1c114d0f3de239e81a436836d30ecb099ffa1390600090a450505050565b600082815260208190526040812060310154819081908190819060ff90811690871610611a3757604051636bad456160e01b815260040160405180910390fd5b600087815260208190526040812060010160ff881660108110611a5c57611a5c613bfd565b60030201805460018201546002909201546001600160a01b039091169a91995061ffff8116985062010000810463ffffffff169750600160301b900460ff1695509350505050565b611aac612637565b611ab461266f565b600454811115611ad7576040516302721e1f60e61b815260040160405180910390fd5b60008181526020819052604090206031810154610100900460ff161580611b085750603181015462010000900460ff165b15611b26576040516338c0a90160e11b815260040160405180910390fd5b600160005b603183015460ff9081169082161015611b8057826001018160ff1660108110611b5657611b56613bfd565b6003020160020160069054906101000a900460ff16611b785760009150611b80565b600101611b2b565b5080158015611bac57506031820154611ba8906078906301000000900463ffffffff16613c48565b4211155b15611bca57604051630867d2ed60e41b815260040160405180910390fd5b61136783612a9f565b6000818152600080516020613d9583398151915260208190526040822061191c90612d78565b6000611c03612d82565b805490915060ff600160401b820416159067ffffffffffffffff16600081158015611c2b5750825b905060008267ffffffffffffffff166001148015611c485750303b155b905081158015611c56575080155b15611c745760405163f92ee8a960e01b815260040160405180910390fd5b845467ffffffffffffffff191660011785558315611c9e57845460ff60401b1916600160401b1785555b6001600160a01b038b161580611cbb57506001600160a01b038a16155b15611cd95760405163cfe2ea6360e01b815260040160405180910390fd5b6001600160a01b0389161580611cf657506001600160a01b038816155b80611d0857506001600160a01b038716155b15611d265760405163cfe2ea6360e01b815260040160405180910390fd5b6001600160a01b038616611d4d5760405163043103a360e21b815260040160405180910390fd5b611d55612dab565b611d5d612db3565b611d65612dab565b611d7060008c6125f2565b50611d89600080516020613e358339815191528c6125f2565b50611db47f189ab7a9244df0848122154315af71fe140f3db0fe014031783b0946b8c9d2e38b6125f2565b50600580546001600160a01b03808c166001600160a01b031992831617909255600680548b8416908316179055600780548a8416908316179055600b805492891692909116919091179055611e076126a2565b8315611e4d57845460ff60401b19168555604051600181527fc7f505b2f371ae2175ee4913f4499e1f2633a7b5936321eed1cdaeb6115181d29060200160405180910390a15b5050505050505050505050565b611e62612637565b611e6a61266f565b600454821115611e8d576040516302721e1f60e61b815260040160405180910390fd5b6127108161ffff161115611eb4576040516312aa4f0360e21b815260040160405180910390fd5b336000908152600160205260409020548214611ee357604051636bad456160e01b815260040160405180910390fd5b6000828152602081905260409020603181015462010000900460ff1615611f1d576040516338c0a90160e11b815260040160405180910390fd5b6000805b603183015460ff908116908216101561205857336001840160ff831660108110611f4d57611f4d613bfd565b60030201546001600160a01b0316148015611f925750826001018160ff1660108110611f7b57611f7b613bfd565b6003020160020160069054906101000a900460ff16155b156120505783836001018260ff1660108110611fb057611fb0613bfd565b6003020160020160006101000a81548161ffff021916908361ffff16021790555042836001018260ff1660108110611fea57611fea613bfd565b6003020160020160026101000a81548163ffffffff021916908363ffffffff1602179055506001836001018260ff166010811061202957612029613bfd565b6003020160020160066101000a81548160ff02191690831515021790555060019150612058565b600101611f21565b508061207757604051639fbfc58960e01b815260040160405180910390fd5b33600081815260016020908152604080832092909255905161ffff8616815286917f55e4b82d5d0bc2616d47cddd97399d4b662cec042f68f52723f60d7cbbc44d6b910160405180910390a36120cc84612dc3565b50506114ca6001600080516020613e1583398151915255565b6120ee82610f7a565b6120f7816125e8565b610fb88383612751565b612109612637565b61211161266f565b6000818152602081905260409020603181015462010000900460ff1661214a576040516338c0a90160e11b815260040160405180910390fd5b600060015b60038160ff16116121c957600084815260086020908152604080832060ff851684529091529020546001600160a01b0316331480156121aa5750600084815260096020908152604080832060ff808616855292529091205416155b156121b7578091506121c9565b806121c181613c29565b91505061214f565b508060ff166000036121ee57604051630fe160f360e11b815260040160405180910390fd5b600083815260096020908152604080832060ff851680855292528220805460ff191660019081179091550361222c57506730927f74c9de0000612251565b8160ff1660020361224657506722b1c8c1227a0000612251565b50671158e460913d00005b336000908152600a602052604081208054839290612270908490613c97565b9091555050336000908152600d602052604081208054839290612294908490613c48565b909155505060ff82166001036122f057336000908152600d602052604090206002018054640100000000900461ffff169060046122d083613caa565b91906101000a81548161ffff021916908361ffff1602179055505061236d565b8160ff1660020361232657336000908152600d602052604090206002018054600160301b900461ffff169060066122d083613caa565b336000908152600d602052604090206002018054600160401b900461ffff1690600861235183613caa565b91906101000a81548161ffff021916908361ffff160217905550505b604051600090339083908381818185875af1925050503d80600081146123af576040519150601f19603f3d011682016040523d82523d6000602084013e6123b4565b606091505b50509050806123d6576040516312171d8360e31b815260040160405180910390fd5b6040805160ff8516815260208101849052339187917f3e4f68b30a745aad7a761efb657b19f1d7bed16ff77ea15b967f425202bdc4f6910160405180910390a3505050506113806001600080516020613e1583398151915255565b600080516020613e35833981519152612449816125e8565b60005b82811015610fb85760006002600086868581811061246c5761246c613bfd565b90506020020160208101906124819190613993565b6001600160a01b031681526020810191909152604001600020805460ff191660ff929092169190911790558383828181106124be576124be613bfd565b90506020020160208101906124d39190613993565b6001600160a01b03167ffba900bea8c42defbbf3e9e84151351a5a87adcf37f3186ae2b698b2d987ddf360405160405180910390a260010161244c565b600080516020613e35833981519152612528816125e8565b612530612e4a565b47600061253d81806116c8565b90506000816001600160a01b03168360405160006040518083038185875af1925050503d806000811461258c576040519150601f19603f3d011682016040523d82523d6000602084013e612591565b606091505b5050905080610fb8576040516312171d8360e31b815260040160405180910390fd5b60006001600160e01b03198216637965db0b60e01b1480610f7457506301ffc9a760e01b6001600160e01b0319831614610f74565b6113808133612e7a565b6000600080516020613d958339815191528161260e8585612eb3565b905080156116ef57600085815260208390526040902061262e9085612f58565b50949350505050565b600080516020613e1583398151915280546001190161266957604051633ee5aeb560e01b815260040160405180910390fd5b60029055565b600080516020613df58339815191525460ff16156126a05760405163d93c066560e01b815260040160405180910390fd5b565b600480549060006126b283613cc1565b90915550506004546000818152602081815260409182902083815582514292810192909252918101929092524460608301529060800160408051808303601f1901815290829052805160209182012060328401819055600454908352917f5b062af8aa7c7c247b6805332e9acd582d651a0f292a6832e35964511e688e00910160405180910390a250565b6001600080516020613e1583398151915255565b6000600080516020613d958339815191528161276d8585612f6d565b905080156116ef57600085815260208390526040902061262e9085612fe9565b612795612e4a565b600080516020613df5833981519152805460ff191681557f5db9ee0a495bf2e6ff9c91a7834c1ba4fdd244a5e8aa4e537bd38aeae4b073aa335b6040516001600160a01b03909116815260200160405180910390a150565b306001600160a01b037f000000000000000000000000000000000000000000000000000000000000000016148061287457507f00000000000000000000000000000000000000000000000000000000000000006001600160a01b0316612868600080516020613db5833981519152546001600160a01b031690565b6001600160a01b031614155b156126a05760405163703e46dd60e11b815260040160405180910390fd5b6128aa600080516020613e35833981519152336116f7565b806128da57506128da7f189ab7a9244df0848122154315af71fe140f3db0fe014031783b0946b8c9d2e3336116f7565b6113805760405162461bcd60e51b815260206004820152602360248201527f43616c6c6572206973206e6f7420617574686f72697a656420746f207570677260448201526261646560e81b60648201526084015b60405180910390fd5b816001600160a01b03166352d1902d6040518163ffffffff1660e01b8152600401602060405180830381865afa925050508015612991575060408051601f3d908101601f1916820190925261298e91810190613cda565b60015b6129b957604051634c9c8ce360e01b81526001600160a01b038316600482015260240161292e565b600080516020613db583398151915281146129ea57604051632a87526960e21b81526004810182905260240161292e565b6113b68383612ffe565b306001600160a01b037f000000000000000000000000000000000000000000000000000000000000000016146126a05760405163703e46dd60e11b815260040160405180910390fd5b612a4561266f565b600080516020613df5833981519152805460ff191660011781557f62e78cea01bee320cd4e420270b5ea74000d11b0c9f74754ebdbfc544b05a258336127cf565b600061191c8383613054565b6060600061191c8361307e565b6000818152602081905260409020603181015462010000900460ff1615612ad9576040516338c0a90160e11b815260040160405180910390fd5b60318101805462ff00001916620100001790556000612af7836130da565b90506000612b0e6003670a688906bd8b0000613cf3565b90506000612b1d826003613d15565b612b2f90670a688906bd8b0000613c97565b600554909150612b51906001600160a01b0316612b4c8385613c48565b6133bc565b600654612b67906001600160a01b0316836133bc565b600754612b7d906001600160a01b0316836133bc565b604080516060810182526730927f74c9de000081526722b1c8c1227a00006020820152671158e460913d00009181019190915260005b60038160ff161015612cc25760008560ff831660038110612bd657612bd6613bfd565b60200201516001600160a01b031614612cba576000612bf6826001613d2c565b9050858260ff1660038110612c0d57612c0d613bfd565b6020908102919091015160008a815260088352604080822060ff86811684529452902080546001600160a01b0319166001600160a01b039092169190911790558390831660038110612c6157612c61613bfd565b6020020151600a6000888560ff1660038110612c7f57612c7f613bfd565b60200201516001600160a01b03166001600160a01b031681526020019081526020016000206000828254612cb39190613c48565b9091555050505b600101612bb3565b5060005b603186015460ff9081169082161015612d1e5760016000876001018360ff1660108110612cf557612cf5613bfd565b60030201546001600160a01b031681526020810191909152604001600090812055600101612cc6565b50602080850151855160408088015190516001600160a01b0391821681529281169391169189917f0f9d63a53536052f5920f0b3a056b5b97a3fed41803fdcc7ef4728eb9947ee01910160405180910390a4505050505050565b6000610f74825490565b6000807ff0c57e16840df040f15088dc2f81fe391c3923bec73e23a9662efc9c229c6a00610f74565b6126a0613478565b612dbb613478565b6126a061349d565b60008181526020819052604090206031810154601060ff9091161015612de7575050565b600160005b601060ff82161015612e3a57826001018160ff1660108110612e1057612e10613bfd565b6003020160020160069054906101000a900460ff16612e325760009150612e3a565b600101612dec565b5080156113b6576113b683612a9f565b600080516020613df58339815191525460ff166126a057604051638dfc202b60e01b815260040160405180910390fd5b612e8482826116f7565b6114ca5760405163e2517d3f60e01b81526001600160a01b03821660048201526024810183905260440161292e565b6000600080516020613dd5833981519152612ece84846116f7565b612f4e576000848152602082815260408083206001600160a01b03871684529091529020805460ff19166001179055612f043390565b6001600160a01b0316836001600160a01b0316857f2f8788117e7eff1d82e926ec794901d17c78024a50270940304540a733656f0d60405160405180910390a46001915050610f74565b6000915050610f74565b600061191c836001600160a01b0384166134a5565b6000600080516020613dd5833981519152612f8884846116f7565b15612f4e576000848152602082815260408083206001600160a01b0387168085529252808320805460ff1916905551339287917ff6391f5c32d9c69d2a47ea670b442974b53935d1edc7fd64eb21e047a839171b9190a46001915050610f74565b600061191c836001600160a01b0384166134f4565b613007826135dd565b6040516001600160a01b038316907fbc7cd75a20ee27fd9adebab32041f755214dbc6bffa90cc0225b39da2e5c2d3b90600090a280511561304c576113b68282613642565b6114ca6136b8565b600082600001828154811061306b5761306b613bfd565b9060005260206000200154905092915050565b6060816000018054806020026020016040519081016040528092919081815260200182805480156130ce57602002820191906000526020600020905b8154815260200190600101908083116130ba575b50505050509050919050565b6130e2613775565b60008281526020819052604090206130f8613775565b6040805160608101825260ff808252602082018190529181019190915260005b603184015460ff90811690821610156133b2576000846001018260ff166010811061314557613145613bfd565b6003020190508060020160069054906101000a900460ff1661316757506133aa565b60005b60038160ff1610156133a75760ff848282166003811061318c5761318c613bfd565b602002015160ff16036131f75782848260ff16600381106131af576131af613bfd565b60ff928316602091909102919091015282546001600160a01b03169086908316600381106131df576131df613bfd565b6001600160a01b0390921660209290920201526133a7565b600086600101858360ff166003811061321257613212613bfd565b602002015160ff166010811061322a5761322a613bfd565b600302016002818101549085015491925061ffff9081169116118061328457506002808201549084015461ffff908116911614801561328457506002808201549084015463ffffffff620100009283900481169290910416105b1561339e5760025b8260ff168160ff16111561333e57856132a6600183613c7e565b60ff16600381106132b9576132b9613bfd565b6020020151868260ff16600381106132d3576132d3613bfd565b60ff9092166020929092020152866132ec600183613c7e565b60ff16600381106132ff576132ff613bfd565b6020020151878260ff166003811061331957613319613bfd565b6001600160a01b0390921660209290920201528061333681613d45565b91505061328c565b5083858360ff166003811061335557613355613bfd565b60ff928316602091909102919091015283546001600160a01b031690879084166003811061338557613385613bfd565b6001600160a01b039092166020929092020152506133a7565b5060010161316a565b50505b600101613118565b5090949350505050565b6000826001600160a01b03168260405160006040518083038185875af1925050503d8060008114613409576040519150601f19603f3d011682016040523d82523d6000602084013e61340e565b606091505b5050905080613430576040516312171d8360e31b815260040160405180910390fd5b826001600160a01b03167fff3cae93fb596d1d15d930842d5acf78c6d54434b5f9ccdd4c3913bea876a9fd8360405161346b91815260200190565b60405180910390a2505050565b6134806136d7565b6126a057604051631afcd79f60e31b815260040160405180910390fd5b61273d613478565b60008181526001830160205260408120546134ec57508154600181810184556000848152602080822090930184905584548482528286019093526040902091909155610f74565b506000610f74565b60008181526001830160205260408120548015612f4e576000613518600183613c97565b855490915060009061352c90600190613c97565b905080821461359157600086600001828154811061354c5761354c613bfd565b906000526020600020015490508087600001848154811061356f5761356f613bfd565b6000918252602080832090910192909255918252600188019052604090208390555b85548690806135a2576135a2613d62565b600190038181906000526020600020016000905590558560010160008681526020019081526020016000206000905560019350505050610f74565b806001600160a01b03163b60000361361357604051634c9c8ce360e01b81526001600160a01b038216600482015260240161292e565b600080516020613db583398151915280546001600160a01b0319166001600160a01b0392909216919091179055565b6060600080846001600160a01b03168460405161365f9190613d78565b600060405180830381855af49150503d806000811461369a576040519150601f19603f3d011682016040523d82523d6000602084013e61369f565b606091505b50915091506136af8583836136f1565b95945050505050565b34156126a05760405163b398979f60e01b815260040160405180910390fd5b60006136e1612d82565b54600160401b900460ff16919050565b606082613706576137018261374d565b61191c565b815115801561371d57506001600160a01b0384163b155b1561374657604051639996b31560e01b81526001600160a01b038516600482015260240161292e565b5092915050565b80511561375c57805160208201fd5b60405163d6bda27560e01b815260040160405180910390fd5b60405180606001604052806003906020820280368337509192915050565b6000602082840312156137a557600080fd5b81356001600160e01b03198116811461191c57600080fd5b6000602082840312156137cf57600080fd5b5035919050565b600080604083850312156137e957600080fd5b82359150602083013560ff8116811461380157600080fd5b809150509250929050565b80356001600160a01b038116811461382357600080fd5b919050565b6000806040838503121561383b57600080fd5b8235915061384b6020840161380c565b90509250929050565b60c08101818460005b60038110156138855781516001600160a01b031683526020928301929091019060010161385d565b505050606082018360005b60038110156138b15781511515835260209283019290910190600101613890565b5050509392505050565b634e487b7160e01b600052604160045260246000fd5b600080604083850312156138e457600080fd5b6138ed8361380c565b9150602083013567ffffffffffffffff8082111561390a57600080fd5b818501915085601f83011261391e57600080fd5b813581811115613930576139306138bb565b604051601f8201601f19908116603f01168101908382118183101715613958576139586138bb565b8160405282815288602084870101111561397157600080fd5b8260208601602083013760006020848301015280955050505050509250929050565b6000602082840312156139a557600080fd5b61191c8261380c565b60005b838110156139c95781810151838201526020016139b1565b50506000910152565b60208152600082518060208401526139f18160408501602087016139ae565b601f01601f19169190910160400192915050565b60008060208385031215613a1857600080fd5b823567ffffffffffffffff80821115613a3057600080fd5b818501915085601f830112613a4457600080fd5b813581811115613a5357600080fd5b8660208260051b8501011115613a6857600080fd5b60209290920196919550909350505050565b60008060408385031215613a8d57600080fd5b50508035926020909101359150565b60008060408385031215613aaf57600080fd5b613ab88361380c565b91506020830135801515811461380157600080fd5b6020808252825182820181905260009190848201906040850190845b81811015613b0e5783516001600160a01b031683529284019291840191600101613ae9565b50909695505050505050565b600080600060608486031215613b2f57600080fd5b613b388461380c565b9250613b466020850161380c565b9150613b546040850161380c565b90509250925092565b60008060008060008060c08789031215613b7657600080fd5b613b7f8761380c565b9550613b8d6020880161380c565b9450613b9b6040880161380c565b9350613ba96060880161380c565b9250613bb76080880161380c565b9150613bc560a0880161380c565b90509295509295509295565b60008060408385031215613be457600080fd5b82359150602083013561ffff8116811461380157600080fd5b634e487b7160e01b600052603260045260246000fd5b634e487b7160e01b600052601160045260246000fd5b600060ff821660ff8103613c3f57613c3f613c13565b60010192915050565b80820180821115610f7457610f74613c13565b600063ffffffff808316818103613c7457613c74613c13565b6001019392505050565b60ff8281168282160390811115610f7457610f74613c13565b81810381811115610f7457610f74613c13565b600061ffff808316818103613c7457613c74613c13565b600060018201613cd357613cd3613c13565b5060010190565b600060208284031215613cec57600080fd5b5051919050565b600082613d1057634e487b7160e01b600052601260045260246000fd5b500490565b8082028115828204841417610f7457610f74613c13565b60ff8181168382160190811115610f7457610f74613c13565b600060ff821680613d5857613d58613c13565b6000190192915050565b634e487b7160e01b600052603160045260246000fd5b60008251613d8a8184602087016139ae565b919091019291505056fec1f6fe24621ce81ec5827caf0253cadb74709b061630e6b55e82371705932000360894a13ba1a3210667c828492db98dca3e2076cc3735a920a3ca505d382bbc02dd7bc7dec4dceedda775e58dd541e08a116c6c53815c0bd028192f7b626800cd5ed15c6e187e77e9aee88184c21f4f2182ab5827cb3b7e07fbedcd63f033009b779b17422d0df92223018b32b4d1fa46e071723d6817e2486d003becc55f00a49807205ce4d355092ef5a8a18f56e8913cf4a201fbe287825b095693c21775a2646970667358221220aeaa3b737cac9003207e9bd7d8a08c3a9516ecb0732b4779cdaaa95d4c0c3a3f64736f6c63430008160033",
  "linkReferences": {},
  "deployedLinkReferences": {}
}