{
  "_format": "hh-sol-artifact-1",
  "contractName": "ColorDropPool",
  "sourceName": "contracts/ColorDropPool.sol",
  "abi": [
    {
      "inputs": [],
      "stateMutability": "nonpayable",
      "type": "constructor"
    },
    {
      "inputs": [],
      "name": "AccessControlBadConfirmation",
      "type": "error"
    },
    {
      "inputs": [
        {
          "internalType": "address",
          "name": "account",
          "type": "address"
        },
        {
          "internalType": "bytes32",
          "name": "neededRole",
          "type": "bytes32"
        }
      ],
      "name": "AccessControlUnauthorizedAccount",
      "type": "error"
    },
    {
      "inputs": [
        {
          "internalType": "address",
          "name": "target",
          "type": "address"
        }
      ],
      "name": "AddressEmptyCode",
      "type": "error"
    },
    {
      "inputs": [],
      "name": "AlreadyInActivePool",
      "type": "error"
    },
    {
      "inputs": [],
      "name": "AlreadySubmitted",
      "type": "error"
    },
    {
      "inputs": [
        {
          "internalType": "address",
          "name": "implementation",
          "type": "address"
        }
      ],
      "name": "ERC1967InvalidImplementation",
      "type": "error"
    },
    {
      "inputs": [],
      "name": "ERC1967NonPayable",
      "type": "error"
    },
    {
      "inputs": [],
      "name": "EnforcedPause",
      "type": "error"
    },
    {
      "inputs": [],
      "name": "ExpectedPause",
      "type": "error"
    },
    {
      "inputs": [],
      "name": "FailedCall",
      "type": "error"
    },
    {
      "inputs": [],
      "name": "InvalidAccuracy",
      "type": "error"
    },
    {
      "inputs": [],
      "name": "InvalidEntryFee",
      "type": "error"
    },
    {
      "inputs": [],
      "name": "InvalidFID",
      "type": "error"
    },
    {
      "inputs": [],
      "name": "InvalidInitialization",
      "type": "error"
    },
    {
      "inputs": [],
      "name": "InvalidTreasuryAddress",
      "type": "error"
    },
    {
      "inputs": [],
      "name": "InvalidVerifierAddress",
      "type": "error"
    },
    {
      "inputs": [],
      "name": "NoPrizeToClaim",
      "type": "error"
    },
    {
      "inputs": [],
      "name": "NotInPool",
      "type": "error"
    },
    {
      "inputs": [],
      "name": "NotInitializing",
      "type": "error"
    },
    {
      "inputs": [],
      "name": "PoolDoesNotExist",
      "type": "error"
    },
    {
      "inputs": [],
      "name": "PoolFull",
      "type": "error"
    },
    {
      "inputs": [],
      "name": "PoolNotActive",
      "type": "error"
    },
    {
      "inputs": [],
      "name": "PoolNotReady",
      "type": "error"
    },
    {
      "inputs": [],
      "name": "PrizeAlreadyClaimed",
      "type": "error"
    },
    {
      "inputs": [],
      "name": "ReentrancyGuardReentrantCall",
      "type": "error"
    },
    {
      "inputs": [],
      "name": "SlotLimitExceeded",
      "type": "error"
    },
    {
      "inputs": [],
      "name": "TransferFailed",
      "type": "error"
    },
    {
      "inputs": [],
      "name": "UUPSUnauthorizedCallContext",
      "type": "error"
    },
    {
      "inputs": [
        {
          "internalType": "bytes32",
          "name": "slot",
          "type": "bytes32"
        }
      ],
      "name": "UUPSUnsupportedProxiableUUID",
      "type": "error"
    },
    {
      "inputs": [],
      "name": "UnauthorizedVerifier",
      "type": "error"
    },
    {
      "anonymous": false,
      "inputs": [
        {
          "indexed": true,
          "internalType": "address",
          "name": "user",
          "type": "address"
        }
      ],
      "name": "ActivePoolIdReset",
      "type": "event"
    },
    {
      "anonymous": false,
      "inputs": [
        {
          "indexed": false,
          "internalType": "uint64",
          "name": "version",
          "type": "uint64"
        }
      ],
      "name": "Initialized",
      "type": "event"
    },
    {
      "anonymous": false,
      "inputs": [
        {
          "indexed": false,
          "internalType": "address",
          "name": "account",
          "type": "address"
        }
      ],
      "name": "Paused",
      "type": "event"
    },
    {
      "anonymous": false,
      "inputs": [
        {
          "indexed": true,
          "internalType": "uint256",
          "name": "poolId",
          "type": "uint256"
        },
        {
          "indexed": true,
          "internalType": "address",
          "name": "player",
          "type": "address"
        },
        {
          "indexed": false,
          "internalType": "uint256",
          "name": "fid",
          "type": "uint256"
        }
      ],
      "name": "PlayerJoined",
      "type": "event"
    },
    {
      "anonymous": false,
      "inputs": [
        {
          "indexed": true,
          "internalType": "address",
          "name": "user",
          "type": "address"
        }
      ],
      "name": "PlayerSlotCountReset",
      "type": "event"
    },
    {
      "anonymous": false,
      "inputs": [
        {
          "indexed": true,
          "internalType": "uint256",
          "name": "poolId",
          "type": "uint256"
        },
        {
          "indexed": true,
          "internalType": "address",
          "name": "first",
          "type": "address"
        },
        {
          "indexed": true,
          "internalType": "address",
          "name": "second",
          "type": "address"
        },
        {
          "indexed": false,
          "internalType": "address",
          "name": "third",
          "type": "address"
        }
      ],
      "name": "PoolCompleted",
      "type": "event"
    },
    {
      "anonymous": false,
      "inputs": [
        {
          "indexed": true,
          "internalType": "uint256",
          "name": "poolId",
          "type": "uint256"
        },
        {
          "indexed": false,
          "internalType": "bytes32",
          "name": "targetColor",
          "type": "bytes32"
        }
      ],
      "name": "PoolCreated",
      "type": "event"
    },
    {
      "anonymous": false,
      "inputs": [
        {
          "indexed": true,
          "internalType": "uint256",
          "name": "poolId",
          "type": "uint256"
        },
        {
          "indexed": false,
          "internalType": "uint32",
          "name": "startTime",
          "type": "uint32"
        }
      ],
      "name": "PoolStarted",
      "type": "event"
    },
    {
      "anonymous": false,
      "inputs": [
        {
          "indexed": true,
          "internalType": "uint256",
          "name": "poolId",
          "type": "uint256"
        },
        {
          "indexed": true,
          "internalType": "address",
          "name": "winner",
          "type": "address"
        },
        {
          "indexed": false,
          "internalType": "uint8",
          "name": "rank",
          "type": "uint8"
        },
        {
          "indexed": false,
          "internalType": "uint256",
          "name": "amount",
          "type": "uint256"
        }
      ],
      "name": "PrizeClaimed",
      "type": "event"
    },
    {
      "anonymous": false,
      "inputs": [
        {
          "indexed": true,
          "internalType": "address",
          "name": "winner",
          "type": "address"
        },
        {
          "indexed": false,
          "internalType": "uint256",
          "name": "amount",
          "type": "uint256"
        }
      ],
      "name": "PrizePaid",
      "type": "event"
    },
    {
      "anonymous": false,
      "inputs": [
        {
          "indexed": true,
          "internalType": "bytes32",
          "name": "role",
          "type": "bytes32"
        },
        {
          "indexed": true,
          "internalType": "bytes32",
          "name": "previousAdminRole",
          "type": "bytes32"
        },
        {
          "indexed": true,
          "internalType": "bytes32",
          "name": "newAdminRole",
          "type": "bytes32"
        }
      ],
      "name": "RoleAdminChanged",
      "type": "event"
    },
    {
      "anonymous": false,
      "inputs": [
        {
          "indexed": true,
          "internalType": "bytes32",
          "name": "role",
          "type": "bytes32"
        },
        {
          "indexed": true,
          "internalType": "address",
          "name": "account",
          "type": "address"
        },
        {
          "indexed": true,
          "internalType": "address",
          "name": "sender",
          "type": "address"
        }
      ],
      "name": "RoleGranted",
      "type": "event"
    },
    {
      "anonymous": false,
      "inputs": [
        {
          "indexed": true,
          "internalType": "bytes32",
          "name": "role",
          "type": "bytes32"
        },
        {
          "indexed": true,
          "internalType": "address",
          "name": "account",
          "type": "address"
        },
        {
          "indexed": true,
          "internalType": "address",
          "name": "sender",
          "type": "address"
        }
      ],
      "name": "RoleRevoked",
      "type": "event"
    },
    {
      "anonymous": false,
      "inputs": [
        {
          "indexed": true,
          "internalType": "uint256",
          "name": "poolId",
          "type": "uint256"
        },
        {
          "indexed": true,
          "internalType": "address",
          "name": "player",
          "type": "address"
        },
        {
          "indexed": false,
          "internalType": "uint16",
          "name": "accuracy",
          "type": "uint16"
        }
      ],
      "name": "ScoreSubmitted",
      "type": "event"
    },
    {
      "anonymous": false,
      "inputs": [
        {
          "indexed": true,
          "internalType": "address",
          "name": "treasury",
          "type": "address"
        },
        {
          "indexed": false,
          "internalType": "uint256",
          "name": "amount",
          "type": "uint256"
        }
      ],
      "name": "SystemFeePaid",
      "type": "event"
    },
    {
      "anonymous": false,
      "inputs": [
        {
          "indexed": true,
          "internalType": "address",
          "name": "treasury1",
          "type": "address"
        },
        {
          "indexed": true,
          "internalType": "address",
          "name": "treasury2",
          "type": "address"
        }
      ],
      "name": "TreasuryUpdated",
      "type": "event"
    },
    {
      "anonymous": false,
      "inputs": [
        {
          "indexed": false,
          "internalType": "address",
          "name": "account",
          "type": "address"
        }
      ],
      "name": "Unpaused",
      "type": "event"
    },
    {
      "anonymous": false,
      "inputs": [
        {
          "indexed": true,
          "internalType": "address",
          "name": "implementation",
          "type": "address"
        }
      ],
      "name": "Upgraded",
      "type": "event"
    },
    {
      "anonymous": false,
      "inputs": [
        {
          "indexed": true,
          "internalType": "address",
          "name": "user",
          "type": "address"
        },
        {
          "indexed": false,
          "internalType": "bool",
          "name": "verified",
          "type": "bool"
        }
      ],
      "name": "UserVerified",
      "type": "event"
    },
    {
      "anonymous": false,
      "inputs": [
        {
          "indexed": true,
          "internalType": "address",
          "name": "oldVerifier",
          "type": "address"
        },
        {
          "indexed": true,
          "internalType": "address",
          "name": "newVerifier",
          "type": "address"
        }
      ],
      "name": "VerifierUpdated",
      "type": "event"
    },
    {
      "inputs": [],
      "name": "ADMIN_ROLE",
      "outputs": [
        {
          "internalType": "bytes32",
          "name": "",
          "type": "bytes32"
        }
      ],
      "stateMutability": "view",
      "type": "function"
    },
    {
      "inputs": [],
      "name": "DEFAULT_ADMIN_ROLE",
      "outputs": [
        {
          "internalType": "bytes32",
          "name": "",
          "type": "bytes32"
        }
      ],
      "stateMutability": "view",
      "type": "function"
    },
    {
      "inputs": [],
      "name": "ENTRY_FEE",
      "outputs": [
        {
          "internalType": "uint256",
          "name": "",
          "type": "uint256"
        }
      ],
      "stateMutability": "view",
      "type": "function"
    },
    {
      "inputs": [],
      "name": "FINALIZATION_TIMEOUT",
      "outputs": [
        {
          "internalType": "uint256",
          "name": "",
          "type": "uint256"
        }
      ],
      "stateMutability": "view",
      "type": "function"
    },
    {
      "inputs": [],
      "name": "POOL_SIZE",
      "outputs": [
        {
          "internalType": "uint8",
          "name": "",
          "type": "uint8"
        }
      ],
      "stateMutability": "view",
      "type": "function"
    },
    {
      "inputs": [],
      "name": "PRIZE_1ST",
      "outputs": [
        {
          "internalType": "uint256",
          "name": "",
          "type": "uint256"
        }
      ],
      "stateMutability": "view",
      "type": "function"
    },
    {
      "inputs": [],
      "name": "PRIZE_2ND",
      "outputs": [
        {
          "internalType": "uint256",
          "name": "",
          "type": "uint256"
        }
      ],
      "stateMutability": "view",
      "type": "function"
    },
    {
      "inputs": [],
      "name": "PRIZE_3RD",
      "outputs": [
        {
          "internalType": "uint256",
          "name": "",
          "type": "uint256"
        }
      ],
      "stateMutability": "view",
      "type": "function"
    },
    {
      "inputs": [],
      "name": "STORAGE_POOL_SIZE",
      "outputs": [
        {
          "internalType": "uint8",
          "name": "",
          "type": "uint8"
        }
      ],
      "stateMutability": "view",
      "type": "function"
    },
    {
      "inputs": [],
      "name": "SYSTEM_FEE",
      "outputs": [
        {
          "internalType": "uint256",
          "name": "",
          "type": "uint256"
        }
      ],
      "stateMutability": "view",
      "type": "function"
    },
    {
      "inputs": [],
      "name": "UNVERIFIED_POOL_SLOT_LIMIT",
      "outputs": [
        {
          "internalType": "uint8",
          "name": "",
          "type": "uint8"
        }
      ],
      "stateMutability": "view",
      "type": "function"
    },
    {
      "inputs": [],
      "name": "UNVERIFIED_SLOT_LIMIT",
      "outputs": [
        {
          "internalType": "uint8",
          "name": "",
          "type": "uint8"
        }
      ],
      "stateMutability": "view",
      "type": "function"
    },
    {
      "inputs": [],
      "name": "UPGRADER_ROLE",
      "outputs": [
        {
          "internalType": "bytes32",
          "name": "",
          "type": "bytes32"
        }
      ],
      "stateMutability": "view",
      "type": "function"
    },
    {
      "inputs": [],
      "name": "UPGRADE_INTERFACE_VERSION",
      "outputs": [
        {
          "internalType": "string",
          "name": "",
          "type": "string"
        }
      ],
      "stateMutability": "view",
      "type": "function"
    },
    {
      "inputs": [
        {
          "internalType": "address",
          "name": "",
          "type": "address"
        }
      ],
      "name": "activePoolId",
      "outputs": [
        {
          "internalType": "uint256",
          "name": "",
          "type": "uint256"
        }
      ],
      "stateMutability": "view",
      "type": "function"
    },
    {
      "inputs": [
        {
          "internalType": "address[]",
          "name": "users",
          "type": "address[]"
        }
      ],
      "name": "batchResetActivePoolId",
      "outputs": [],
      "stateMutability": "nonpayable",
      "type": "function"
    },
    {
      "inputs": [
        {
          "internalType": "address[]",
          "name": "users",
          "type": "address[]"
        }
      ],
      "name": "batchResetPlayerSlotCount",
      "outputs": [],
      "stateMutability": "nonpayable",
      "type": "function"
    },
    {
      "inputs": [
        {
          "internalType": "uint256",
          "name": "poolId",
          "type": "uint256"
        }
      ],
      "name": "claimPrize",
      "outputs": [],
      "stateMutability": "nonpayable",
      "type": "function"
    },
    {
      "inputs": [],
      "name": "currentPoolId",
      "outputs": [
        {
          "internalType": "uint256",
          "name": "",
          "type": "uint256"
        }
      ],
      "stateMutability": "view",
      "type": "function"
    },
    {
      "inputs": [],
      "name": "emergencyWithdraw",
      "outputs": [],
      "stateMutability": "nonpayable",
      "type": "function"
    },
    {
      "inputs": [
        {
          "internalType": "uint256",
          "name": "poolId",
          "type": "uint256"
        }
      ],
      "name": "finalizePool",
      "outputs": [],
      "stateMutability": "nonpayable",
      "type": "function"
    },
    {
      "inputs": [
        {
          "internalType": "uint256",
          "name": "poolId",
          "type": "uint256"
        },
        {
          "internalType": "uint8",
          "name": "index",
          "type": "uint8"
        }
      ],
      "name": "getPlayer",
      "outputs": [
        {
          "internalType": "address",
          "name": "wallet",
          "type": "address"
        },
        {
          "internalType": "uint256",
          "name": "fid",
          "type": "uint256"
        },
        {
          "internalType": "uint16",
          "name": "accuracy",
          "type": "uint16"
        },
        {
          "internalType": "uint32",
          "name": "timestamp",
          "type": "uint32"
        },
        {
          "internalType": "bool",
          "name": "hasSubmitted",
          "type": "bool"
        }
      ],
      "stateMutability": "view",
      "type": "function"
    },
    {
      "inputs": [
        {
          "internalType": "uint256",
          "name": "poolId",
          "type": "uint256"
        }
      ],
      "name": "getPool",
      "outputs": [
        {
          "internalType": "uint256",
          "name": "id",
          "type": "uint256"
        },
        {
          "internalType": "uint8",
          "name": "playerCount",
          "type": "uint8"
        },
        {
          "internalType": "bool",
          "name": "isActive",
          "type": "bool"
        },
        {
          "internalType": "bool",
          "name": "isCompleted",
          "type": "bool"
        },
        {
          "internalType": "uint32",
          "name": "startTime",
          "type": "uint32"
        },
        {
          "internalType": "bytes32",
          "name": "targetColor",
          "type": "bytes32"
        }
      ],
      "stateMutability": "view",
      "type": "function"
    },
    {
      "inputs": [
        {
          "internalType": "uint256",
          "name": "poolId",
          "type": "uint256"
        }
      ],
      "name": "getPoolWinners",
      "outputs": [
        {
          "internalType": "address[3]",
          "name": "winners",
          "type": "address[3]"
        },
        {
          "internalType": "bool[3]",
          "name": "claimed",
          "type": "bool[3]"
        }
      ],
      "stateMutability": "view",
      "type": "function"
    },
    {
      "inputs": [
        {
          "internalType": "bytes32",
          "name": "role",
          "type": "bytes32"
        }
      ],
      "name": "getRoleAdmin",
      "outputs": [
        {
          "internalType": "bytes32",
          "name": "",
          "type": "bytes32"
        }
      ],
      "stateMutability": "view",
      "type": "function"
    },
    {
      "inputs": [
        {
          "internalType": "bytes32",
          "name": "role",
          "type": "bytes32"
        },
        {
          "internalType": "uint256",
          "name": "index",
          "type": "uint256"
        }
      ],
      "name": "getRoleMember",
      "outputs": [
        {
          "internalType": "address",
          "name": "",
          "type": "address"
        }
      ],
      "stateMutability": "view",
      "type": "function"
    },
    {
      "inputs": [
        {
          "internalType": "bytes32",
          "name": "role",
          "type": "bytes32"
        }
      ],
      "name": "getRoleMemberCount",
      "outputs": [
        {
          "internalType": "uint256",
          "name": "",
          "type": "uint256"
        }
      ],
      "stateMutability": "view",
      "type": "function"
    },
    {
      "inputs": [
        {
          "internalType": "bytes32",
          "name": "role",
          "type": "bytes32"
        }
      ],
      "name": "getRoleMembers",
      "outputs": [
        {
          "internalType": "address[]",
          "name": "",
          "type": "address[]"
        }
      ],
      "stateMutability": "view",
      "type": "function"
    },
    {
      "inputs": [
        {
          "internalType": "address",
          "name": "user",
          "type": "address"
        }
      ],
      "name": "getUserFullStats",
      "outputs": [
        {
          "internalType": "bool",
          "name": "isVerified",
          "type": "bool"
        },
        {
          "internalType": "uint8",
          "name": "currentPoolSlots",
          "type": "uint8"
        },
        {
          "internalType": "uint8",
          "name": "maxPoolSlots",
          "type": "uint8"
        },
        {
          "internalType": "uint8",
          "name": "lifetimeSlots",
          "type": "uint8"
        },
        {
          "internalType": "bool",
          "name": "canJoin",
          "type": "bool"
        },
        {
          "internalType": "uint256",
          "name": "totalClaimed",
          "type": "uint256"
        },
        {
          "internalType": "uint256",
          "name": "totalSpent",
          "type": "uint256"
        },
        {
          "internalType": "uint32",
          "name": "gamesPlayed",
          "type": "uint32"
        },
        {
          "internalType": "uint16",
          "name": "wins1st",
          "type": "uint16"
        },
        {
          "internalType": "uint16",
          "name": "wins2nd",
          "type": "uint16"
        },
        {
          "internalType": "uint16",
          "name": "wins3rd",
          "type": "uint16"
        }
      ],
      "stateMutability": "view",
      "type": "function"
    },
    {
      "inputs": [
        {
          "internalType": "uint256",
          "name": "poolId",
          "type": "uint256"
        },
        {
          "internalType": "address",
          "name": "user",
          "type": "address"
        }
      ],
      "name": "getUserPoolSlots",
      "outputs": [
        {
          "internalType": "uint8",
          "name": "slots",
          "type": "uint8"
        }
      ],
      "stateMutability": "view",
      "type": "function"
    },
    {
      "inputs": [
        {
          "internalType": "uint256",
          "name": "poolId",
          "type": "uint256"
        },
        {
          "internalType": "address",
          "name": "user",
          "type": "address"
        }
      ],
      "name": "getUserPrizeInPool",
      "outputs": [
        {
          "internalType": "uint8",
          "name": "rank",
          "type": "uint8"
        },
        {
          "internalType": "uint256",
          "name": "amount",
          "type": "uint256"
        }
      ],
      "stateMutability": "view",
      "type": "function"
    },
    {
      "inputs": [
        {
          "internalType": "address",
          "name": "user",
          "type": "address"
        }
      ],
      "name": "getUserStatus",
      "outputs": [
        {
          "internalType": "bool",
          "name": "isVerified",
          "type": "bool"
        },
        {
          "internalType": "uint8",
          "name": "slotsUsed",
          "type": "uint8"
        },
        {
          "internalType": "uint8",
          "name": "slotsAvailable",
          "type": "uint8"
        },
        {
          "internalType": "bool",
          "name": "canJoin",
          "type": "bool"
        }
      ],
      "stateMutability": "view",
      "type": "function"
    },
    {
      "inputs": [
        {
          "internalType": "bytes32",
          "name": "role",
          "type": "bytes32"
        },
        {
          "internalType": "address",
          "name": "account",
          "type": "address"
        }
      ],
      "name": "grantRole",
      "outputs": [],
      "stateMutability": "nonpayable",
      "type": "function"
    },
    {
      "inputs": [
        {
          "internalType": "bytes32",
          "name": "role",
          "type": "bytes32"
        },
        {
          "internalType": "address",
          "name": "account",
          "type": "address"
        }
      ],
      "name": "hasRole",
      "outputs": [
        {
          "internalType": "bool",
          "name": "",
          "type": "bool"
        }
      ],
      "stateMutability": "view",
      "type": "function"
    },
    {
      "inputs": [
        {
          "internalType": "address",
          "name": "_admin",
          "type": "address"
        },
        {
          "internalType": "address",
          "name": "_upgrader",
          "type": "address"
        },
        {
          "internalType": "address",
          "name": "_treasury1",
          "type": "address"
        },
        {
          "internalType": "address",
          "name": "_treasury2",
          "type": "address"
        },
        {
          "internalType": "address",
          "name": "_verifier",
          "type": "address"
        }
      ],
      "name": "initialize",
      "outputs": [],
      "stateMutability": "nonpayable",
      "type": "function"
    },
    {
      "inputs": [
        {
          "internalType": "uint256",
          "name": "fid",
          "type": "uint256"
        }
      ],
      "name": "joinPool",
      "outputs": [],
      "stateMutability": "payable",
      "type": "function"
    },
    {
      "inputs": [],
      "name": "pause",
      "outputs": [],
      "stateMutability": "nonpayable",
      "type": "function"
    },
    {
      "inputs": [],
      "name": "paused",
      "outputs": [
        {
          "internalType": "bool",
          "name": "",
          "type": "bool"
        }
      ],
      "stateMutability": "view",
      "type": "function"
    },
    {
      "inputs": [
        {
          "internalType": "address",
          "name": "",
          "type": "address"
        }
      ],
      "name": "playerSlotCount",
      "outputs": [
        {
          "internalType": "uint8",
          "name": "",
          "type": "uint8"
        }
      ],
      "stateMutability": "view",
      "type": "function"
    },
    {
      "inputs": [
        {
          "internalType": "uint256",
          "name": "",
          "type": "uint256"
        },
        {
          "internalType": "address",
          "name": "",
          "type": "address"
        }
      ],
      "name": "poolSlotCount",
      "outputs": [
        {
          "internalType": "uint8",
          "name": "",
          "type": "uint8"
        }
      ],
      "stateMutability": "view",
      "type": "function"
    },
    {
      "inputs": [
        {
          "internalType": "uint256",
          "name": "",
          "type": "uint256"
        },
        {
          "internalType": "uint8",
          "name": "",
          "type": "uint8"
        }
      ],
      "name": "poolWinners",
      "outputs": [
        {
          "internalType": "address",
          "name": "",
          "type": "address"
        }
      ],
      "stateMutability": "view",
      "type": "function"
    },
    {
      "inputs": [
        {
          "internalType": "uint256",
          "name": "",
          "type": "uint256"
        }
      ],
      "name": "pools",
      "outputs": [
        {
          "internalType": "uint256",
          "name": "id",
          "type": "uint256"
        },
        {
          "internalType": "uint8",
          "name": "playerCount",
          "type": "uint8"
        },
        {
          "internalType": "bool",
          "name": "isActive",
          "type": "bool"
        },
        {
          "internalType": "bool",
          "name": "isCompleted",
          "type": "bool"
        },
        {
          "internalType": "uint32",
          "name": "startTime",
          "type": "uint32"
        },
        {
          "internalType": "bytes32",
          "name": "targetColor",
          "type": "bytes32"
        }
      ],
      "stateMutability": "view",
      "type": "function"
    },
    {
      "inputs": [
        {
          "internalType": "uint256",
          "name": "",
          "type": "uint256"
        },
        {
          "internalType": "uint8",
          "name": "",
          "type": "uint8"
        }
      ],
      "name": "prizeClaimed",
      "outputs": [
        {
          "internalType": "bool",
          "name": "",
          "type": "bool"
        }
      ],
      "stateMutability": "view",
      "type": "function"
    },
    {
      "inputs": [],
      "name": "proxiableUUID",
      "outputs": [
        {
          "internalType": "bytes32",
          "name": "",
          "type": "bytes32"
        }
      ],
      "stateMutability": "view",
      "type": "function"
    },
    {
      "inputs": [
        {
          "internalType": "bytes32",
          "name": "role",
          "type": "bytes32"
        },
        {
          "internalType": "address",
          "name": "callerConfirmation",
          "type": "address"
        }
      ],
      "name": "renounceRole",
      "outputs": [],
      "stateMutability": "nonpayable",
      "type": "function"
    },
    {
      "inputs": [
        {
          "internalType": "address",
          "name": "user",
          "type": "address"
        }
      ],
      "name": "resetActivePoolId",
      "outputs": [],
      "stateMutability": "nonpayable",
      "type": "function"
    },
    {
      "inputs": [
        {
          "internalType": "address",
          "name": "user",
          "type": "address"
        }
      ],
      "name": "resetPlayerSlotCount",
      "outputs": [],
      "stateMutability": "nonpayable",
      "type": "function"
    },
    {
      "inputs": [
        {
          "internalType": "bytes32",
          "name": "role",
          "type": "bytes32"
        },
        {
          "internalType": "address",
          "name": "account",
          "type": "address"
        }
      ],
      "name": "revokeRole",
      "outputs": [],
      "stateMutability": "nonpayable",
      "type": "function"
    },
    {
      "inputs": [
        {
          "internalType": "address",
          "name": "_treasury1",
          "type": "address"
        },
        {
          "internalType": "address",
          "name": "_treasury2",
          "type": "address"
        }
      ],
      "name": "setTreasuries",
      "outputs": [],
      "stateMutability": "nonpayable",
      "type": "function"
    },
    {
      "inputs": [
        {
          "internalType": "address",
          "name": "user",
          "type": "address"
        },
        {
          "internalType": "bool",
          "name": "verified",
          "type": "bool"
        }
      ],
      "name": "setUserVerification",
      "outputs": [],
      "stateMutability": "nonpayable",
      "type": "function"
    },
    {
      "inputs": [
        {
          "internalType": "address",
          "name": "newVerifier",
          "type": "address"
        }
      ],
      "name": "setVerifier",
      "outputs": [],
      "stateMutability": "nonpayable",
      "type": "function"
    },
    {
      "inputs": [
        {
          "internalType": "uint256",
          "name": "poolId",
          "type": "uint256"
        },
        {
          "internalType": "uint16",
          "name": "accuracy",
          "type": "uint16"
        }
      ],
      "name": "submitScore",
      "outputs": [],
      "stateMutability": "nonpayable",
      "type": "function"
    },
    {
      "inputs": [
        {
          "internalType": "bytes4",
          "name": "interfaceId",
          "type": "bytes4"
        }
      ],
      "name": "supportsInterface",
      "outputs": [
        {
          "internalType": "bool",
          "name": "",
          "type": "bool"
        }
      ],
      "stateMutability": "view",
      "type": "function"
    },
    {
      "inputs": [],
      "name": "treasury1",
      "outputs": [
        {
          "internalType": "address",
          "name": "",
          "type": "address"
        }
      ],
      "stateMutability": "view",
      "type": "function"
    },
    {
      "inputs": [],
      "name": "treasury2",
      "outputs": [
        {
          "internalType": "address",
          "name": "",
          "type": "address"
        }
      ],
      "stateMutability": "view",
      "type": "function"
    },
    {
      "inputs": [
        {
          "internalType": "address",
          "name": "",
          "type": "address"
        }
      ],
      "name": "unclaimedPrizes",
      "outputs": [
        {
          "internalType": "uint256",
          "name": "",
          "type": "uint256"
        }
      ],
      "stateMutability": "view",
      "type": "function"
    },
    {
      "inputs": [],
      "name": "unpause",
      "outputs": [],
      "stateMutability": "nonpayable",
      "type": "function"
    },
    {
      "inputs": [
        {
          "internalType": "address",
          "name": "newImplementation",
          "type": "address"
        },
        {
          "internalType": "bytes",
          "name": "data",
          "type": "bytes"
        }
      ],
      "name": "upgradeToAndCall",
      "outputs": [],
      "stateMutability": "payable",
      "type": "function"
    },
    {
      "inputs": [
        {
          "internalType": "address",
          "name": "",
          "type": "address"
        }
      ],
      "name": "userStats",
      "outputs": [
        {
          "internalType": "uint256",
          "name": "totalClaimed",
          "type": "uint256"
        },
        {
          "internalType": "uint256",
          "name": "totalSpent",
          "type": "uint256"
        },
        {
          "internalType": "uint32",
          "name": "gamesPlayed",
          "type": "uint32"
        },
        {
          "internalType": "uint16",
          "name": "wins1st",
          "type": "uint16"
        },
        {
          "internalType": "uint16",
          "name": "wins2nd",
          "type": "uint16"
        },
        {
          "internalType": "uint16",
          "name": "wins3rd",
          "type": "uint16"
        }
      ],
      "stateMutability": "view",
      "type": "function"
    },
    {
      "inputs": [
        {
          "internalType": "address",
          "name": "",
          "type": "address"
        }
      ],
      "name": "verifiedUsers",
      "outputs": [
        {
          "internalType": "bool",
          "name": "",
          "type": "bool"
        }
      ],
      "stateMutability": "view",
      "type": "function"
    },
    {
      "inputs": [],
      "name": "verifier",
      "outputs": [
        {
          "internalType": "address",
          "name": "",
          "type": "address"
        }
      ],
      "stateMutability": "view",
      "type": "function"
    },
    {
      "inputs": [],
      "name": "version",
      "outputs": [
        {
          "internalType": "string",
          "name": "",
          "type": "string"
        }
      ],
      "stateMutability": "pure",
      "type": "function"
    }
  ],
  "bytecode": "0x60a0604052306080523480156200001557600080fd5b506200002062000026565b620000da565b7ff0c57e16840df040f15088dc2f81fe391c3923bec73e23a9662efc9c229c6a00805468010000000000000000900460ff1615620000775760405163f92ee8a960e01b815260040160405180910390fd5b80546001600160401b0390811614620000d75780546001600160401b0319166001600160401b0390811782556040519081527fc7f505b2f371ae2175ee4913f4499e1f2633a7b5936321eed1cdaeb6115181d29060200160405180910390a15b50565b608051613d9d62000104600039600081816127cc015281816127f501526129d30152613d9d6000f3fe6080604052600436106103ad5760003560e01c80638a65d874116101e7578063d2581e4d1161010d578063e2f71741116100a0578063ebc5163b1161006f578063ebc5163b14610e7d578063f2717a8014610e93578063f6d361cc14610ed4578063f72c0d8b14610ef057600080fd5b8063e2f7174114610d6d578063e35fe36614610d9a578063e5d1d26014610dca578063ea0d5dcd14610dea57600080fd5b8063d7098154116100dc578063d709815414610cdd578063daf1d69614610cfd578063db2e21bc14610d1d578063e2a57fd614610d3257600080fd5b8063d2581e4d14610c6c578063d2bd2f2214610c81578063d547741f14610ca1578063d62fbc3514610cc157600080fd5b80639f3c093c11610185578063ad3cb1cc11610154578063ad3cb1cc14610b99578063b99b121114610bca578063c5a1f43414610c2c578063ca15c87314610c4c57600080fd5b80639f3c093c14610abd578063a217fddf14610af6578063a3246ad314610b0b578063ac4afa3814610b3857600080fd5b806391d14854116101c157806391d1485414610a4857806391f5800d14610a68578063997f524a14610a7d5780639a99a09814610a9d57600080fd5b80638a65d874146109575780638e235d06146109fb5780639010d07c14610a2857600080fd5b80634d158c64116102d757806356ade98c1161026a5780636a70a7cc116102395780636a70a7cc146108ba5780636ed2bee2146108da57806375b238fc146109205780638456cb591461094257600080fd5b806356ade98c1461072d5780635c975abb1461074d5780636486053f1461077257806364e280ce1461088a57600080fd5b806352d1902d116102a657806352d1902d146106c157806353c210f2146106ac5780635437988d146106d657806354fd4d50146106f657600080fd5b80634d158c641461064b5780634d7c0f5b1461066b5780634f1ef286146106995780634f9daac6146106ac57600080fd5b8063291b3d601161034f5780633299cf411161031e5780633299cf41146105dc57806334e7a19f1461060357806336568abe146106165780633f4ba83a1461063657600080fd5b8063291b3d601461056457806329dd29c7146105805780632b7ac3f31461059c5780632f2ff15d146105bc57600080fd5b8063129f55021161038b578063129f5502146104af5780631459457a146104e757806317ee395b14610509578063248a9ca31461054457600080fd5b806301ffc9a7146103b2578063068bcd8d146103e75780630ca4f9d914610485575b600080fd5b3480156103be57600080fd5b506103d26103cd3660046136e5565b610f24565b60405190151581526020015b60405180910390f35b3480156103f357600080fd5b5061044961040236600461370f565b600090815260208190526040902080546031820154603290920154909260ff80841693610100810482169362010000820490921692630100000090910463ffffffff169190565b6040805196875260ff9095166020870152921515938501939093521515606084015263ffffffff909116608083015260a082015260c0016103de565b34801561049157600080fd5b506104a1670214e8348c4f000081565b6040519081526020016103de565b3480156104bb57600080fd5b506005546104cf906001600160a01b031681565b6040516001600160a01b0390911681526020016103de565b3480156104f357600080fd5b50610507610502366004613744565b610f4f565b005b34801561051557600080fd5b506103d26105243660046137a9565b600860209081526000928352604080842090915290825290205460ff1681565b34801561055057600080fd5b506104a161055f36600461370f565b611190565b34801561057057600080fd5b506104a16709b6e64a8ec6000081565b34801561058c57600080fd5b506104a16706f05b59d3b2000081565b3480156105a857600080fd5b50600a546104cf906001600160a01b031681565b3480156105c857600080fd5b506105076105d73660046137df565b6111b2565b3480156105e857600080fd5b506105f1600281565b60405160ff90911681526020016103de565b61050761061136600461370f565b6111d4565b34801561062257600080fd5b506105076106313660046137df565b611599565b34801561064257600080fd5b506105076115d1565b34801561065757600080fd5b5061050761066636600461380b565b6115f1565b34801561067757600080fd5b5061068b61068636600461370f565b6116a3565b6040516103de929190613835565b6105076106a73660046138b2565b611777565b3480156106b857600080fd5b506105f1601081565b3480156106cd57600080fd5b506104a1611796565b3480156106e257600080fd5b506105076106f1366004613974565b6117b3565b34801561070257600080fd5b506040805180820190915260058152640342e302e360dc1b60208201525b6040516103de91906139b3565b34801561073957600080fd5b50610507610748366004613974565b611845565b34801561075957600080fd5b50600080516020613d088339815191525460ff166103d2565b34801561077e57600080fd5b5061082061078d366004613974565b6001600160a01b03166000818152600360209081526040808320546004548452600b835281842094845293825280832054600280845282852054600180865284872054600c9096529390952080549381015491015460ff96871697928716969586169415939263ffffffff82169161ffff6401000000008204811692600160301b8304821692600160401b900490911690565b604080519b15158c5260ff9a8b1660208d0152988a16988b0198909852959097166060890152921515608088015260a087019190915260c086015263ffffffff1660e085015261ffff928316610100850152821661012084015216610140820152610160016103de565b34801561089657600080fd5b506105f16108a5366004613974565b60026020526000908152604090205460ff1681565b3480156108c657600080fd5b506105076108d53660046139e6565b6118a2565b3480156108e657600080fd5b506105f16108f53660046137df565b6000918252600b602090815260408084206001600160a01b0393909316845291905290205460ff1690565b34801561092c57600080fd5b506104a1600080516020613d4883398151915281565b34801561094e57600080fd5b50610507611970565b34801561096357600080fd5b506109bc610972366004613974565b600c6020526000908152604090208054600182015460029092015490919063ffffffff81169061ffff6401000000008204811691600160301b8104821691600160401b9091041686565b60408051968752602087019590955263ffffffff9093169385019390935261ffff908116606085015291821660808401521660a082015260c0016103de565b348015610a0757600080fd5b506104a1610a16366004613974565b60096020526000908152604090205481565b348015610a3457600080fd5b506104cf610a43366004613a5b565b611990565b348015610a5457600080fd5b506103d2610a633660046137df565b6119bf565b348015610a7457600080fd5b506104a1607881565b348015610a8957600080fd5b50610507610a98366004613a7d565b6119f7565b348015610aa957600080fd5b50610507610ab8366004613974565b611a81565b348015610ac957600080fd5b50610add610ad83660046137df565b611ae3565b6040805160ff90931683526020830191909152016103de565b348015610b0257600080fd5b506104a1600081565b348015610b1757600080fd5b50610b2b610b2636600461370f565b611bb9565b6040516103de9190613aae565b348015610b4457600080fd5b50610449610b5336600461370f565b600060208190529081526040902080546031820154603290920154909160ff808216926101008304821692620100008104909216916301000000900463ffffffff169086565b348015610ba557600080fd5b50610720604051806040016040528060058152602001640352e302e360dc1b81525081565b348015610bd657600080fd5b50610bea610be53660046137a9565b611beb565b604080516001600160a01b039096168652602086019490945261ffff9092169284019290925263ffffffff90911660608301521515608082015260a0016103de565b348015610c3857600080fd5b50610507610c4736600461370f565b611c98565b348015610c5857600080fd5b506104a1610c6736600461370f565b611dc7565b348015610c7857600080fd5b506105f1600481565b348015610c8d57600080fd5b50610507610c9c366004613afb565b611ded565b348015610cad57600080fd5b50610507610cbc3660046137df565b612078565b348015610ccd57600080fd5b506104a16703782dace9d9000081565b348015610ce957600080fd5b50610507610cf836600461370f565b612094565b348015610d0957600080fd5b50610507610d183660046139e6565b6123c4565b348015610d2957600080fd5b506105076124a3565b348015610d3e57600080fd5b506105f1610d4d3660046137df565b600b60209081526000928352604080842090915290825290205460ff1681565b348015610d7957600080fd5b506104a1610d88366004613974565b60016020526000908152604090205481565b348015610da657600080fd5b506103d2610db5366004613974565b60036020526000908152604090205460ff1681565b348015610dd657600080fd5b506006546104cf906001600160a01b031681565b348015610df657600080fd5b50610e4f610e05366004613974565b6001600160a01b03166000818152600360209081526040808320546004548452600b83528184209484529382528083205460019092529091205460ff928316939183169291901590565b6040516103de9493929190931515845260ff9283166020850152911660408301521515606082015260800190565b348015610e8957600080fd5b506104a160045481565b348015610e9f57600080fd5b506104cf610eae3660046137a9565b60076020908152600092835260408084209091529082529020546001600160a01b031681565b348015610ee057600080fd5b506104a167016345785d8a000081565b348015610efc57600080fd5b506104a17f189ab7a9244df0848122154315af71fe140f3db0fe014031783b0946b8c9d2e381565b60006001600160e01b03198216635a05180f60e01b1480610f495750610f4982612546565b92915050565b6000610f5961257b565b805490915060ff600160401b820416159067ffffffffffffffff16600081158015610f815750825b905060008267ffffffffffffffff166001148015610f9e5750303b155b905081158015610fac575080155b15610fca5760405163f92ee8a960e01b815260040160405180910390fd5b845467ffffffffffffffff191660011785558315610ff457845460ff60401b1916600160401b1785555b6001600160a01b038a16158061101157506001600160a01b038916155b1561102f5760405163cfe2ea6360e01b815260040160405180910390fd5b6001600160a01b038816158061104c57506001600160a01b038716155b1561106a5760405163cfe2ea6360e01b815260040160405180910390fd5b6001600160a01b0386166110915760405163043103a360e21b815260040160405180910390fd5b6110996125a4565b6110a16125ae565b6110a96125a4565b6110b460008b6125be565b506110cd600080516020613d488339815191528b6125be565b506110f87f189ab7a9244df0848122154315af71fe140f3db0fe014031783b0946b8c9d2e38a6125be565b50600580546001600160a01b03808b166001600160a01b031992831617909255600680548a8416908316179055600a80549289169290911691909117905561113e612603565b831561118457845460ff60401b19168555604051600181527fc7f505b2f371ae2175ee4913f4499e1f2633a7b5936321eed1cdaeb6115181d29060200160405180910390a15b50505050505050505050565b6000908152600080516020613ce8833981519152602052604090206001015490565b6111bb82611190565b6111c48161269e565b6111ce83836125be565b50505050565b6111dc6126a8565b6111e46126e0565b67016345785d8a0000341461120c57604051636fe6a4c960e01b815260040160405180910390fd5b8060000361122d5760405163c1408aaf60e01b815260040160405180910390fd5b336000908152600160205260409020541561125b57604051630f2c3adf60e11b815260040160405180910390fd5b60045460009081526020819052604090206031810154601060ff90911610611296576040516327a01e0760e21b815260040160405180910390fd5b6004546000908152600b602090815260408083203380855290835281842054825160a081018452918252928101869052908101839052606081018390526080810192909252603183015460ff9182169291600185019116601081106112fd576112fd613b27565b82516003919091029190910180546001600160a01b039092166001600160a01b03199092169190911781556020820151600182015560408201516002909101805460608401516080909401511515600160301b0266ff0000000000001963ffffffff909516620100000265ffffffffffff1990921661ffff90941693909317179290921617905560318201805460ff1690600061139983613b53565b82546101009290920a60ff8181021990931691831602179091556004543360009081526001602090815260408083209390935560029052908120805490921692506113e383613b53565b82546101009290920a60ff8181021990931691831602179091556004546000908152600b6020908152604080832033845290915281208054909216925061142983613b53565b825460ff9182166101009390930a928302919092021990911617905550336000908152600c60205260408120600101805467016345785d8a00009290611470908490613b72565b909155505060ff81166000036114c457336000908152600c60205260408120600201805463ffffffff16916114a483613b85565b91906101000a81548163ffffffff021916908363ffffffff160217905550505b6004546040518481523391907f03dfbe1fcb4e2d61f3b4a0c93d8f814c92250618b3387f396cc9fc9fafe2c2039060200160405180910390a3603182015460ff16600f190161157d5760318201805463ffffffff428116630100000090810266ffffffff00ff0019909316929092176101001792839055600454604051929093041681527fe095f2953657e5e67e41ed2a85f51575a89d28199b24c9c038a76ded7be608689060200160405180910390a261157d612603565b50506115966001600080516020613d2883398151915255565b50565b6001600160a01b03811633146115c25760405163334bd91960e11b815260040160405180910390fd5b6115cc8282612725565b505050565b600080516020613d488339815191526115e98161269e565b611596612761565b600080516020613d488339815191526116098161269e565b6001600160a01b038316158061162657506001600160a01b038216155b156116445760405163cfe2ea6360e01b815260040160405180910390fd5b600580546001600160a01b03199081166001600160a01b03868116918217909355600680549092169285169283179091556040517f4ab5be82436d353e61ca18726e984e561f5c1cc7c6d38b29d2553c790434705a90600090a3505050565b6116ab6136c7565b6116b36136c7565b60015b60038160ff161161177157600084815260076020908152604080832060ff851684529091529020546001600160a01b0316836116f3600184613ba8565b60ff166003811061170657611706613b27565b6001600160a01b0390921660209283029190910152600085815260088252604080822060ff808616845293529020541682611742600184613ba8565b60ff166003811061175557611755613b27565b911515602090920201528061176981613b53565b9150506116b6565b50915091565b61177f6127c1565b61178882612866565b611792828261290b565b5050565b60006117a06129c8565b50600080516020613cc883398151915290565b600080516020613d488339815191526117cb8161269e565b6001600160a01b0382166117f25760405163043103a360e21b815260040160405180910390fd5b600a80546001600160a01b038481166001600160a01b0319831681179093556040519116919082907f0243549a92b2412f7a3caf7a2e56d65b8821b91345363faa5f57195384065fcc90600090a3505050565b600080516020613d4883398151915261185d8161269e565b6001600160a01b038216600081815260016020526040808220829055517faff9322337711a9f6d7a3a9322989f6d09b0fcbc6b84f2256056a59aa5a5b0aa9190a25050565b600080516020613d488339815191526118ba8161269e565b60005b828110156111ce576000600160008686858181106118dd576118dd613b27565b90506020020160208101906118f29190613974565b6001600160a01b0316815260208101919091526040016000205583838281811061191e5761191e613b27565b90506020020160208101906119339190613974565b6001600160a01b03167faff9322337711a9f6d7a3a9322989f6d09b0fcbc6b84f2256056a59aa5a5b0aa60405160405180910390a26001016118bd565b600080516020613d488339815191526119888161269e565b611596612a11565b6000828152600080516020613ca88339815191526020819052604082206119b79084612a5a565b949350505050565b6000918252600080516020613ce8833981519152602090815260408084206001600160a01b0393909316845291905290205460ff1690565b600a546001600160a01b03163314611a225760405163b9857aa160e01b815260040160405180910390fd5b6001600160a01b038216600081815260036020908152604091829020805460ff191685151590811790915591519182527f34736af44d2b91cd43fa896d4cfe0861ec1e6b4538583d385fc671639e9153b2910160405180910390a25050565b600080516020613d48833981519152611a998161269e565b6001600160a01b038216600081815260026020526040808220805460ff19169055517ffba900bea8c42defbbf3e9e84151351a5a87adcf37f3186ae2b698b2d987ddf39190a25050565b60008060015b60038160ff1611611ba957600085815260076020908152604080832060ff851684529091529020546001600160a01b038581169116148015611b475750600085815260086020908152604080832060ff808616855292529091205416155b15611b975760008160ff16600103611b6857506709b6e64a8ec60000611b8d565b8160ff16600203611b8257506706f05b59d3b20000611b8d565b506703782dace9d900005b9092509050611bb2565b80611ba181613b53565b915050611ae9565b50600080915091505b9250929050565b6000818152600080516020613ca88339815191526020819052604090912060609190611be490612a66565b9392505050565b600082815260208190526040812060310154819081908190819060ff90811690871610611c2b57604051636bad456160e01b815260040160405180910390fd5b600087815260208190526040812060010160ff881660108110611c5057611c50613b27565b60030201805460018201546002909201546001600160a01b039091169a91995061ffff8116985062010000810463ffffffff169750600160301b900460ff1695509350505050565b611ca06126a8565b611ca86126e0565b600454811115611ccb576040516302721e1f60e61b815260040160405180910390fd5b60008181526020819052604090206031810154610100900460ff161580611cfc5750603181015462010000900460ff165b15611d1a576040516338c0a90160e11b815260040160405180910390fd5b600160005b603183015460ff9081169082161015611d7457826001018160ff1660108110611d4a57611d4a613b27565b6003020160020160069054906101000a900460ff16611d6c5760009150611d74565b600101611d1f565b5080158015611da057506031820154611d9c906078906301000000900463ffffffff16613b72565b4211155b15611dbe57604051630867d2ed60e41b815260040160405180910390fd5b61157d83612a73565b6000818152600080516020613ca8833981519152602081905260408220611be490612d0b565b611df56126a8565b611dfd6126e0565b600454821115611e20576040516302721e1f60e61b815260040160405180910390fd5b6127108161ffff161115611e47576040516312aa4f0360e21b815260040160405180910390fd5b336000908152600160205260409020548214611e7657604051636bad456160e01b815260040160405180910390fd5b6000828152602081905260409020603181015462010000900460ff1615611eb0576040516338c0a90160e11b815260040160405180910390fd5b6000805b603183015460ff9081169082161015611feb57336001840160ff831660108110611ee057611ee0613b27565b60030201546001600160a01b0316148015611f255750826001018160ff1660108110611f0e57611f0e613b27565b6003020160020160069054906101000a900460ff16155b15611fe35783836001018260ff1660108110611f4357611f43613b27565b6003020160020160006101000a81548161ffff021916908361ffff16021790555042836001018260ff1660108110611f7d57611f7d613b27565b6003020160020160026101000a81548163ffffffff021916908363ffffffff1602179055506001836001018260ff1660108110611fbc57611fbc613b27565b6003020160020160066101000a81548160ff02191690831515021790555060019150611feb565b600101611eb4565b508061200a57604051639fbfc58960e01b815260040160405180910390fd5b33600081815260016020908152604080832092909255905161ffff8616815286917f55e4b82d5d0bc2616d47cddd97399d4b662cec042f68f52723f60d7cbbc44d6b910160405180910390a361205f84612d15565b50506117926001600080516020613d2883398151915255565b61208182611190565b61208a8161269e565b6111ce8383612725565b61209c6126a8565b6120a46126e0565b6000818152602081905260409020603181015462010000900460ff166120dd576040516338c0a90160e11b815260040160405180910390fd5b600060015b60038160ff161161215c57600084815260076020908152604080832060ff851684529091529020546001600160a01b03163314801561213d5750600084815260086020908152604080832060ff808616855292529091205416155b1561214a5780915061215c565b8061215481613b53565b9150506120e2565b508060ff1660000361218157604051630fe160f360e11b815260040160405180910390fd5b600083815260086020908152604080832060ff851680855292528220805460ff19166001908117909155036121bf57506709b6e64a8ec600006121e4565b8160ff166002036121d957506706f05b59d3b200006121e4565b506703782dace9d900005b3360009081526009602052604081208054839290612203908490613bc1565b9091555050336000908152600c602052604081208054839290612227908490613b72565b909155505060ff821660010361228357336000908152600c602052604090206002018054640100000000900461ffff1690600461226383613bd4565b91906101000a81548161ffff021916908361ffff16021790555050612300565b8160ff166002036122b957336000908152600c602052604090206002018054600160301b900461ffff1690600661226383613bd4565b336000908152600c602052604090206002018054600160401b900461ffff169060086122e483613bd4565b91906101000a81548161ffff021916908361ffff160217905550505b604051600090339083908381818185875af1925050503d8060008114612342576040519150601f19603f3d011682016040523d82523d6000602084013e612347565b606091505b5050905080612369576040516312171d8360e31b815260040160405180910390fd5b6040805160ff8516815260208101849052339187917f3e4f68b30a745aad7a761efb657b19f1d7bed16ff77ea15b967f425202bdc4f6910160405180910390a3505050506115966001600080516020613d2883398151915255565b600080516020613d488339815191526123dc8161269e565b60005b828110156111ce576000600260008686858181106123ff576123ff613b27565b90506020020160208101906124149190613974565b6001600160a01b031681526020810191909152604001600020805460ff191660ff9290921691909117905583838281811061245157612451613b27565b90506020020160208101906124669190613974565b6001600160a01b03167ffba900bea8c42defbbf3e9e84151351a5a87adcf37f3186ae2b698b2d987ddf360405160405180910390a26001016123df565b600080516020613d488339815191526124bb8161269e565b6124c3612d9c565b4760006124d08180611990565b90506000816001600160a01b03168360405160006040518083038185875af1925050503d806000811461251f576040519150601f19603f3d011682016040523d82523d6000602084013e612524565b606091505b50509050806111ce576040516312171d8360e31b815260040160405180910390fd5b60006001600160e01b03198216637965db0b60e01b1480610f4957506301ffc9a760e01b6001600160e01b0319831614610f49565b6000807ff0c57e16840df040f15088dc2f81fe391c3923bec73e23a9662efc9c229c6a00610f49565b6125ac612dcc565b565b6125b6612dcc565b6125ac612df1565b6000600080516020613ca8833981519152816125da8585612df9565b905080156119b75760008581526020839052604090206125fa9085612e9e565b50949350505050565b6004805490600061261383613beb565b90915550506004546000818152602081815260409182902083815582514292810192909252918101929092524460608301529060800160408051808303601f1901815290829052805160209182012060328401819055600454908352917f5b062af8aa7c7c247b6805332e9acd582d651a0f292a6832e35964511e688e00910160405180910390a250565b6115968133612eb3565b600080516020613d288339815191528054600119016126da57604051633ee5aeb560e01b815260040160405180910390fd5b60029055565b600080516020613d088339815191525460ff16156125ac5760405163d93c066560e01b815260040160405180910390fd5b6001600080516020613d2883398151915255565b6000600080516020613ca8833981519152816127418585612eec565b905080156119b75760008581526020839052604090206125fa9085612f68565b612769612d9c565b600080516020613d08833981519152805460ff191681557f5db9ee0a495bf2e6ff9c91a7834c1ba4fdd244a5e8aa4e537bd38aeae4b073aa335b6040516001600160a01b03909116815260200160405180910390a150565b306001600160a01b037f000000000000000000000000000000000000000000000000000000000000000016148061284857507f00000000000000000000000000000000000000000000000000000000000000006001600160a01b031661283c600080516020613cc8833981519152546001600160a01b031690565b6001600160a01b031614155b156125ac5760405163703e46dd60e11b815260040160405180910390fd5b61287e600080516020613d48833981519152336119bf565b806128ae57506128ae7f189ab7a9244df0848122154315af71fe140f3db0fe014031783b0946b8c9d2e3336119bf565b6115965760405162461bcd60e51b815260206004820152602360248201527f43616c6c6572206973206e6f7420617574686f72697a656420746f207570677260448201526261646560e81b60648201526084015b60405180910390fd5b816001600160a01b03166352d1902d6040518163ffffffff1660e01b8152600401602060405180830381865afa925050508015612965575060408051601f3d908101601f1916820190925261296291810190613c04565b60015b61298d57604051634c9c8ce360e01b81526001600160a01b0383166004820152602401612902565b600080516020613cc883398151915281146129be57604051632a87526960e21b815260048101829052602401612902565b6115cc8383612f7d565b306001600160a01b037f000000000000000000000000000000000000000000000000000000000000000016146125ac5760405163703e46dd60e11b815260040160405180910390fd5b612a196126e0565b600080516020613d08833981519152805460ff191660011781557f62e78cea01bee320cd4e420270b5ea74000d11b0c9f74754ebdbfc544b05a258336127a3565b6000611be48383612fd3565b60606000611be483612ffd565b6000818152602081905260409020603181015462010000900460ff1615612aad576040516338c0a90160e11b815260040160405180910390fd5b60318101805462ff00001916620100001790556000612acb83613059565b90506000612ae26002670214e8348c4f0000613c1d565b600554909150612afb906001600160a01b03168261333b565b600654612b11906001600160a01b03168261333b565b604080516060810182526709b6e64a8ec6000081526706f05b59d3b2000060208201526703782dace9d900009181019190915260005b60038160ff161015612c565760008460ff831660038110612b6a57612b6a613b27565b60200201516001600160a01b031614612c4e576000612b8a826001613c3f565b9050848260ff1660038110612ba157612ba1613b27565b60209081029190910151600089815260078352604080822060ff86811684529452902080546001600160a01b0319166001600160a01b039092169190911790558390831660038110612bf557612bf5613b27565b602002015160096000878560ff1660038110612c1357612c13613b27565b60200201516001600160a01b03166001600160a01b031681526020019081526020016000206000828254612c479190613b72565b9091555050505b600101612b47565b5060005b603185015460ff9081169082161015612cb25760016000866001018360ff1660108110612c8957612c89613b27565b60030201546001600160a01b031681526020810191909152604001600090812055600101612c5a565b50602080840151845160408087015190516001600160a01b0391821681529281169391169188917f0f9d63a53536052f5920f0b3a056b5b97a3fed41803fdcc7ef4728eb9947ee01910160405180910390a45050505050565b6000610f49825490565b60008181526020819052604090206031810154601060ff9091161015612d39575050565b600160005b601060ff82161015612d8c57826001018160ff1660108110612d6257612d62613b27565b6003020160020160069054906101000a900460ff16612d845760009150612d8c565b600101612d3e565b5080156115cc576115cc83612a73565b600080516020613d088339815191525460ff166125ac57604051638dfc202b60e01b815260040160405180910390fd5b612dd46133f7565b6125ac57604051631afcd79f60e31b815260040160405180910390fd5b612711612dcc565b6000600080516020613ce8833981519152612e1484846119bf565b612e94576000848152602082815260408083206001600160a01b03871684529091529020805460ff19166001179055612e4a3390565b6001600160a01b0316836001600160a01b0316857f2f8788117e7eff1d82e926ec794901d17c78024a50270940304540a733656f0d60405160405180910390a46001915050610f49565b6000915050610f49565b6000611be4836001600160a01b038416613411565b612ebd82826119bf565b6117925760405163e2517d3f60e01b81526001600160a01b038216600482015260248101839052604401612902565b6000600080516020613ce8833981519152612f0784846119bf565b15612e94576000848152602082815260408083206001600160a01b0387168085529252808320805460ff1916905551339287917ff6391f5c32d9c69d2a47ea670b442974b53935d1edc7fd64eb21e047a839171b9190a46001915050610f49565b6000611be4836001600160a01b038416613460565b612f8682613549565b6040516001600160a01b038316907fbc7cd75a20ee27fd9adebab32041f755214dbc6bffa90cc0225b39da2e5c2d3b90600090a2805115612fcb576115cc82826135ae565b611792613624565b6000826000018281548110612fea57612fea613b27565b9060005260206000200154905092915050565b60608160000180548060200260200160405190810160405280929190818152602001828054801561304d57602002820191906000526020600020905b815481526020019060010190808311613039575b50505050509050919050565b6130616136c7565b60008281526020819052604090206130776136c7565b6040805160608101825260ff808252602082018190529181019190915260005b603184015460ff9081169082161015613331576000846001018260ff16601081106130c4576130c4613b27565b6003020190508060020160069054906101000a900460ff166130e65750613329565b60005b60038160ff1610156133265760ff848282166003811061310b5761310b613b27565b602002015160ff16036131765782848260ff166003811061312e5761312e613b27565b60ff928316602091909102919091015282546001600160a01b031690869083166003811061315e5761315e613b27565b6001600160a01b039092166020929092020152613326565b600086600101858360ff166003811061319157613191613b27565b602002015160ff16601081106131a9576131a9613b27565b600302016002818101549085015491925061ffff9081169116118061320357506002808201549084015461ffff908116911614801561320357506002808201549084015463ffffffff620100009283900481169290910416105b1561331d5760025b8260ff168160ff1611156132bd5785613225600183613ba8565b60ff166003811061323857613238613b27565b6020020151868260ff166003811061325257613252613b27565b60ff90921660209290920201528661326b600183613ba8565b60ff166003811061327e5761327e613b27565b6020020151878260ff166003811061329857613298613b27565b6001600160a01b039092166020929092020152806132b581613c58565b91505061320b565b5083858360ff16600381106132d4576132d4613b27565b60ff928316602091909102919091015283546001600160a01b031690879084166003811061330457613304613b27565b6001600160a01b03909216602092909202015250613326565b506001016130e9565b50505b600101613097565b5090949350505050565b6000826001600160a01b03168260405160006040518083038185875af1925050503d8060008114613388576040519150601f19603f3d011682016040523d82523d6000602084013e61338d565b606091505b50509050806133af576040516312171d8360e31b815260040160405180910390fd5b826001600160a01b03167fff3cae93fb596d1d15d930842d5acf78c6d54434b5f9ccdd4c3913bea876a9fd836040516133ea91815260200190565b60405180910390a2505050565b600061340161257b565b54600160401b900460ff16919050565b600081815260018301602052604081205461345857508154600181810184556000848152602080822090930184905584548482528286019093526040902091909155610f49565b506000610f49565b60008181526001830160205260408120548015612e94576000613484600183613bc1565b855490915060009061349890600190613bc1565b90508082146134fd5760008660000182815481106134b8576134b8613b27565b90600052602060002001549050808760000184815481106134db576134db613b27565b6000918252602080832090910192909255918252600188019052604090208390555b855486908061350e5761350e613c75565b600190038181906000526020600020016000905590558560010160008681526020019081526020016000206000905560019350505050610f49565b806001600160a01b03163b60000361357f57604051634c9c8ce360e01b81526001600160a01b0382166004820152602401612902565b600080516020613cc883398151915280546001600160a01b0319166001600160a01b0392909216919091179055565b6060600080846001600160a01b0316846040516135cb9190613c8b565b600060405180830381855af49150503d8060008114613606576040519150601f19603f3d011682016040523d82523d6000602084013e61360b565b606091505b509150915061361b858383613643565b95945050505050565b34156125ac5760405163b398979f60e01b815260040160405180910390fd5b606082613658576136538261369f565b611be4565b815115801561366f57506001600160a01b0384163b155b1561369857604051639996b31560e01b81526001600160a01b0385166004820152602401612902565b5092915050565b8051156136ae57805160208201fd5b60405163d6bda27560e01b815260040160405180910390fd5b60405180606001604052806003906020820280368337509192915050565b6000602082840312156136f757600080fd5b81356001600160e01b031981168114611be457600080fd5b60006020828403121561372157600080fd5b5035919050565b80356001600160a01b038116811461373f57600080fd5b919050565b600080600080600060a0868803121561375c57600080fd5b61376586613728565b945061377360208701613728565b935061378160408701613728565b925061378f60608701613728565b915061379d60808701613728565b90509295509295909350565b600080604083850312156137bc57600080fd5b82359150602083013560ff811681146137d457600080fd5b809150509250929050565b600080604083850312156137f257600080fd5b8235915061380260208401613728565b90509250929050565b6000806040838503121561381e57600080fd5b61382783613728565b915061380260208401613728565b60c08101818460005b60038110156138665781516001600160a01b031683526020928301929091019060010161383e565b505050606082018360005b60038110156138925781511515835260209283019290910190600101613871565b5050509392505050565b634e487b7160e01b600052604160045260246000fd5b600080604083850312156138c557600080fd5b6138ce83613728565b9150602083013567ffffffffffffffff808211156138eb57600080fd5b818501915085601f8301126138ff57600080fd5b8135818111156139115761391161389c565b604051601f8201601f19908116603f011681019083821181831017156139395761393961389c565b8160405282815288602084870101111561395257600080fd5b8260208601602083013760006020848301015280955050505050509250929050565b60006020828403121561398657600080fd5b611be482613728565b60005b838110156139aa578181015183820152602001613992565b50506000910152565b60208152600082518060208401526139d281604085016020870161398f565b601f01601f19169190910160400192915050565b600080602083850312156139f957600080fd5b823567ffffffffffffffff80821115613a1157600080fd5b818501915085601f830112613a2557600080fd5b813581811115613a3457600080fd5b8660208260051b8501011115613a4957600080fd5b60209290920196919550909350505050565b60008060408385031215613a6e57600080fd5b50508035926020909101359150565b60008060408385031215613a9057600080fd5b613a9983613728565b9150602083013580151581146137d457600080fd5b6020808252825182820181905260009190848201906040850190845b81811015613aef5783516001600160a01b031683529284019291840191600101613aca565b50909695505050505050565b60008060408385031215613b0e57600080fd5b82359150602083013561ffff811681146137d457600080fd5b634e487b7160e01b600052603260045260246000fd5b634e487b7160e01b600052601160045260246000fd5b600060ff821660ff8103613b6957613b69613b3d565b60010192915050565b80820180821115610f4957610f49613b3d565b600063ffffffff808316818103613b9e57613b9e613b3d565b6001019392505050565b60ff8281168282160390811115610f4957610f49613b3d565b81810381811115610f4957610f49613b3d565b600061ffff808316818103613b9e57613b9e613b3d565b600060018201613bfd57613bfd613b3d565b5060010190565b600060208284031215613c1657600080fd5b5051919050565b600082613c3a57634e487b7160e01b600052601260045260246000fd5b500490565b60ff8181168382160190811115610f4957610f49613b3d565b600060ff821680613c6b57613c6b613b3d565b6000190192915050565b634e487b7160e01b600052603160045260246000fd5b60008251613c9d81846020870161398f565b919091019291505056fec1f6fe24621ce81ec5827caf0253cadb74709b061630e6b55e82371705932000360894a13ba1a3210667c828492db98dca3e2076cc3735a920a3ca505d382bbc02dd7bc7dec4dceedda775e58dd541e08a116c6c53815c0bd028192f7b626800cd5ed15c6e187e77e9aee88184c21f4f2182ab5827cb3b7e07fbedcd63f033009b779b17422d0df92223018b32b4d1fa46e071723d6817e2486d003becc55f00a49807205ce4d355092ef5a8a18f56e8913cf4a201fbe287825b095693c21775a2646970667358221220b9e6e5416ca0e2dee7757fb2a0ace91bd923566800c92f8b385d46daadf89ac064736f6c63430008160033",
  "linkReferences": {},
  "deployedLinkReferences": {}
}