{
  "_format": "hh-sol-artifact-1",
  "contractName": "ColorDropPool",
  "sourceName": "contracts/ColorDropPool.sol",
  "abi": [
    {
      "inputs": [],
      "stateMutability": "nonpayable",
      "type": "constructor"
    },
    {
      "inputs": [],
      "name": "AccessControlBadConfirmation",
      "type": "error"
    },
    {
      "inputs": [
        {
          "internalType": "address",
          "name": "account",
          "type": "address"
        },
        {
          "internalType": "bytes32",
          "name": "neededRole",
          "type": "bytes32"
        }
      ],
      "name": "AccessControlUnauthorizedAccount",
      "type": "error"
    },
    {
      "inputs": [
        {
          "internalType": "address",
          "name": "target",
          "type": "address"
        }
      ],
      "name": "AddressEmptyCode",
      "type": "error"
    },
    {
      "inputs": [],
      "name": "AlreadyInActivePool",
      "type": "error"
    },
    {
      "inputs": [],
      "name": "AlreadySubmitted",
      "type": "error"
    },
    {
      "inputs": [
        {
          "internalType": "address",
          "name": "implementation",
          "type": "address"
        }
      ],
      "name": "ERC1967InvalidImplementation",
      "type": "error"
    },
    {
      "inputs": [],
      "name": "ERC1967NonPayable",
      "type": "error"
    },
    {
      "inputs": [],
      "name": "EnforcedPause",
      "type": "error"
    },
    {
      "inputs": [],
      "name": "ExpectedPause",
      "type": "error"
    },
    {
      "inputs": [],
      "name": "FailedCall",
      "type": "error"
    },
    {
      "inputs": [],
      "name": "InvalidAccuracy",
      "type": "error"
    },
    {
      "inputs": [],
      "name": "InvalidEntryFee",
      "type": "error"
    },
    {
      "inputs": [],
      "name": "InvalidFID",
      "type": "error"
    },
    {
      "inputs": [],
      "name": "InvalidInitialization",
      "type": "error"
    },
    {
      "inputs": [],
      "name": "InvalidTreasuryAddress",
      "type": "error"
    },
    {
      "inputs": [],
      "name": "InvalidVerifierAddress",
      "type": "error"
    },
    {
      "inputs": [],
      "name": "NoPrizeToClaim",
      "type": "error"
    },
    {
      "inputs": [],
      "name": "NotInPool",
      "type": "error"
    },
    {
      "inputs": [],
      "name": "NotInitializing",
      "type": "error"
    },
    {
      "inputs": [],
      "name": "PoolDoesNotExist",
      "type": "error"
    },
    {
      "inputs": [],
      "name": "PoolFull",
      "type": "error"
    },
    {
      "inputs": [],
      "name": "PoolNotActive",
      "type": "error"
    },
    {
      "inputs": [],
      "name": "PoolNotReady",
      "type": "error"
    },
    {
      "inputs": [],
      "name": "PrizeAlreadyClaimed",
      "type": "error"
    },
    {
      "inputs": [],
      "name": "ReentrancyGuardReentrantCall",
      "type": "error"
    },
    {
      "inputs": [],
      "name": "SlotLimitExceeded",
      "type": "error"
    },
    {
      "inputs": [],
      "name": "TransferFailed",
      "type": "error"
    },
    {
      "inputs": [],
      "name": "UUPSUnauthorizedCallContext",
      "type": "error"
    },
    {
      "inputs": [
        {
          "internalType": "bytes32",
          "name": "slot",
          "type": "bytes32"
        }
      ],
      "name": "UUPSUnsupportedProxiableUUID",
      "type": "error"
    },
    {
      "inputs": [],
      "name": "UnauthorizedVerifier",
      "type": "error"
    },
    {
      "anonymous": false,
      "inputs": [
        {
          "indexed": true,
          "internalType": "address",
          "name": "user",
          "type": "address"
        }
      ],
      "name": "ActivePoolIdReset",
      "type": "event"
    },
    {
      "anonymous": false,
      "inputs": [
        {
          "indexed": false,
          "internalType": "uint64",
          "name": "version",
          "type": "uint64"
        }
      ],
      "name": "Initialized",
      "type": "event"
    },
    {
      "anonymous": false,
      "inputs": [
        {
          "indexed": false,
          "internalType": "address",
          "name": "account",
          "type": "address"
        }
      ],
      "name": "Paused",
      "type": "event"
    },
    {
      "anonymous": false,
      "inputs": [
        {
          "indexed": true,
          "internalType": "uint256",
          "name": "poolId",
          "type": "uint256"
        },
        {
          "indexed": true,
          "internalType": "address",
          "name": "player",
          "type": "address"
        },
        {
          "indexed": false,
          "internalType": "uint256",
          "name": "fid",
          "type": "uint256"
        }
      ],
      "name": "PlayerJoined",
      "type": "event"
    },
    {
      "anonymous": false,
      "inputs": [
        {
          "indexed": true,
          "internalType": "address",
          "name": "user",
          "type": "address"
        }
      ],
      "name": "PlayerSlotCountReset",
      "type": "event"
    },
    {
      "anonymous": false,
      "inputs": [
        {
          "indexed": true,
          "internalType": "uint256",
          "name": "poolId",
          "type": "uint256"
        },
        {
          "indexed": true,
          "internalType": "address",
          "name": "first",
          "type": "address"
        },
        {
          "indexed": true,
          "internalType": "address",
          "name": "second",
          "type": "address"
        },
        {
          "indexed": false,
          "internalType": "address",
          "name": "third",
          "type": "address"
        }
      ],
      "name": "PoolCompleted",
      "type": "event"
    },
    {
      "anonymous": false,
      "inputs": [
        {
          "indexed": true,
          "internalType": "uint256",
          "name": "poolId",
          "type": "uint256"
        },
        {
          "indexed": false,
          "internalType": "bytes32",
          "name": "targetColor",
          "type": "bytes32"
        }
      ],
      "name": "PoolCreated",
      "type": "event"
    },
    {
      "anonymous": false,
      "inputs": [
        {
          "indexed": true,
          "internalType": "uint256",
          "name": "poolId",
          "type": "uint256"
        },
        {
          "indexed": false,
          "internalType": "uint32",
          "name": "startTime",
          "type": "uint32"
        }
      ],
      "name": "PoolStarted",
      "type": "event"
    },
    {
      "anonymous": false,
      "inputs": [
        {
          "indexed": true,
          "internalType": "uint256",
          "name": "poolId",
          "type": "uint256"
        },
        {
          "indexed": true,
          "internalType": "address",
          "name": "winner",
          "type": "address"
        },
        {
          "indexed": false,
          "internalType": "uint8",
          "name": "rank",
          "type": "uint8"
        },
        {
          "indexed": false,
          "internalType": "uint256",
          "name": "amount",
          "type": "uint256"
        }
      ],
      "name": "PrizeClaimed",
      "type": "event"
    },
    {
      "anonymous": false,
      "inputs": [
        {
          "indexed": true,
          "internalType": "address",
          "name": "winner",
          "type": "address"
        },
        {
          "indexed": false,
          "internalType": "uint256",
          "name": "amount",
          "type": "uint256"
        }
      ],
      "name": "PrizePaid",
      "type": "event"
    },
    {
      "anonymous": false,
      "inputs": [
        {
          "indexed": true,
          "internalType": "bytes32",
          "name": "role",
          "type": "bytes32"
        },
        {
          "indexed": true,
          "internalType": "bytes32",
          "name": "previousAdminRole",
          "type": "bytes32"
        },
        {
          "indexed": true,
          "internalType": "bytes32",
          "name": "newAdminRole",
          "type": "bytes32"
        }
      ],
      "name": "RoleAdminChanged",
      "type": "event"
    },
    {
      "anonymous": false,
      "inputs": [
        {
          "indexed": true,
          "internalType": "bytes32",
          "name": "role",
          "type": "bytes32"
        },
        {
          "indexed": true,
          "internalType": "address",
          "name": "account",
          "type": "address"
        },
        {
          "indexed": true,
          "internalType": "address",
          "name": "sender",
          "type": "address"
        }
      ],
      "name": "RoleGranted",
      "type": "event"
    },
    {
      "anonymous": false,
      "inputs": [
        {
          "indexed": true,
          "internalType": "bytes32",
          "name": "role",
          "type": "bytes32"
        },
        {
          "indexed": true,
          "internalType": "address",
          "name": "account",
          "type": "address"
        },
        {
          "indexed": true,
          "internalType": "address",
          "name": "sender",
          "type": "address"
        }
      ],
      "name": "RoleRevoked",
      "type": "event"
    },
    {
      "anonymous": false,
      "inputs": [
        {
          "indexed": true,
          "internalType": "uint256",
          "name": "poolId",
          "type": "uint256"
        },
        {
          "indexed": true,
          "internalType": "address",
          "name": "player",
          "type": "address"
        },
        {
          "indexed": false,
          "internalType": "uint16",
          "name": "accuracy",
          "type": "uint16"
        }
      ],
      "name": "ScoreSubmitted",
      "type": "event"
    },
    {
      "anonymous": false,
      "inputs": [
        {
          "indexed": true,
          "internalType": "address",
          "name": "treasury",
          "type": "address"
        },
        {
          "indexed": false,
          "internalType": "uint256",
          "name": "amount",
          "type": "uint256"
        }
      ],
      "name": "SystemFeePaid",
      "type": "event"
    },
    {
      "anonymous": false,
      "inputs": [
        {
          "indexed": true,
          "internalType": "address",
          "name": "treasury1",
          "type": "address"
        },
        {
          "indexed": true,
          "internalType": "address",
          "name": "treasury2",
          "type": "address"
        }
      ],
      "name": "TreasuryUpdated",
      "type": "event"
    },
    {
      "anonymous": false,
      "inputs": [
        {
          "indexed": false,
          "internalType": "address",
          "name": "account",
          "type": "address"
        }
      ],
      "name": "Unpaused",
      "type": "event"
    },
    {
      "anonymous": false,
      "inputs": [
        {
          "indexed": true,
          "internalType": "address",
          "name": "implementation",
          "type": "address"
        }
      ],
      "name": "Upgraded",
      "type": "event"
    },
    {
      "anonymous": false,
      "inputs": [
        {
          "indexed": true,
          "internalType": "address",
          "name": "user",
          "type": "address"
        },
        {
          "indexed": false,
          "internalType": "bool",
          "name": "verified",
          "type": "bool"
        }
      ],
      "name": "UserVerified",
      "type": "event"
    },
    {
      "anonymous": false,
      "inputs": [
        {
          "indexed": true,
          "internalType": "address",
          "name": "oldVerifier",
          "type": "address"
        },
        {
          "indexed": true,
          "internalType": "address",
          "name": "newVerifier",
          "type": "address"
        }
      ],
      "name": "VerifierUpdated",
      "type": "event"
    },
    {
      "inputs": [],
      "name": "ADMIN_ROLE",
      "outputs": [
        {
          "internalType": "bytes32",
          "name": "",
          "type": "bytes32"
        }
      ],
      "stateMutability": "view",
      "type": "function"
    },
    {
      "inputs": [],
      "name": "DEFAULT_ADMIN_ROLE",
      "outputs": [
        {
          "internalType": "bytes32",
          "name": "",
          "type": "bytes32"
        }
      ],
      "stateMutability": "view",
      "type": "function"
    },
    {
      "inputs": [],
      "name": "ENTRY_FEE",
      "outputs": [
        {
          "internalType": "uint256",
          "name": "",
          "type": "uint256"
        }
      ],
      "stateMutability": "view",
      "type": "function"
    },
    {
      "inputs": [],
      "name": "FINALIZATION_TIMEOUT",
      "outputs": [
        {
          "internalType": "uint256",
          "name": "",
          "type": "uint256"
        }
      ],
      "stateMutability": "view",
      "type": "function"
    },
    {
      "inputs": [],
      "name": "POOL_SIZE",
      "outputs": [
        {
          "internalType": "uint8",
          "name": "",
          "type": "uint8"
        }
      ],
      "stateMutability": "view",
      "type": "function"
    },
    {
      "inputs": [],
      "name": "PRIZE_1ST",
      "outputs": [
        {
          "internalType": "uint256",
          "name": "",
          "type": "uint256"
        }
      ],
      "stateMutability": "view",
      "type": "function"
    },
    {
      "inputs": [],
      "name": "PRIZE_2ND",
      "outputs": [
        {
          "internalType": "uint256",
          "name": "",
          "type": "uint256"
        }
      ],
      "stateMutability": "view",
      "type": "function"
    },
    {
      "inputs": [],
      "name": "PRIZE_3RD",
      "outputs": [
        {
          "internalType": "uint256",
          "name": "",
          "type": "uint256"
        }
      ],
      "stateMutability": "view",
      "type": "function"
    },
    {
      "inputs": [],
      "name": "STORAGE_POOL_SIZE",
      "outputs": [
        {
          "internalType": "uint8",
          "name": "",
          "type": "uint8"
        }
      ],
      "stateMutability": "view",
      "type": "function"
    },
    {
      "inputs": [],
      "name": "SYSTEM_FEE",
      "outputs": [
        {
          "internalType": "uint256",
          "name": "",
          "type": "uint256"
        }
      ],
      "stateMutability": "view",
      "type": "function"
    },
    {
      "inputs": [],
      "name": "UNVERIFIED_POOL_SLOT_LIMIT",
      "outputs": [
        {
          "internalType": "uint8",
          "name": "",
          "type": "uint8"
        }
      ],
      "stateMutability": "view",
      "type": "function"
    },
    {
      "inputs": [],
      "name": "UNVERIFIED_SLOT_LIMIT",
      "outputs": [
        {
          "internalType": "uint8",
          "name": "",
          "type": "uint8"
        }
      ],
      "stateMutability": "view",
      "type": "function"
    },
    {
      "inputs": [],
      "name": "UPGRADER_ROLE",
      "outputs": [
        {
          "internalType": "bytes32",
          "name": "",
          "type": "bytes32"
        }
      ],
      "stateMutability": "view",
      "type": "function"
    },
    {
      "inputs": [],
      "name": "UPGRADE_INTERFACE_VERSION",
      "outputs": [
        {
          "internalType": "string",
          "name": "",
          "type": "string"
        }
      ],
      "stateMutability": "view",
      "type": "function"
    },
    {
      "inputs": [
        {
          "internalType": "address",
          "name": "",
          "type": "address"
        }
      ],
      "name": "activePoolId",
      "outputs": [
        {
          "internalType": "uint256",
          "name": "",
          "type": "uint256"
        }
      ],
      "stateMutability": "view",
      "type": "function"
    },
    {
      "inputs": [
        {
          "internalType": "address[]",
          "name": "users",
          "type": "address[]"
        }
      ],
      "name": "batchResetActivePoolId",
      "outputs": [],
      "stateMutability": "nonpayable",
      "type": "function"
    },
    {
      "inputs": [
        {
          "internalType": "address[]",
          "name": "users",
          "type": "address[]"
        }
      ],
      "name": "batchResetPlayerSlotCount",
      "outputs": [],
      "stateMutability": "nonpayable",
      "type": "function"
    },
    {
      "inputs": [
        {
          "internalType": "uint256",
          "name": "poolId",
          "type": "uint256"
        }
      ],
      "name": "claimPrize",
      "outputs": [],
      "stateMutability": "nonpayable",
      "type": "function"
    },
    {
      "inputs": [],
      "name": "currentPoolId",
      "outputs": [
        {
          "internalType": "uint256",
          "name": "",
          "type": "uint256"
        }
      ],
      "stateMutability": "view",
      "type": "function"
    },
    {
      "inputs": [],
      "name": "emergencyWithdraw",
      "outputs": [],
      "stateMutability": "nonpayable",
      "type": "function"
    },
    {
      "inputs": [
        {
          "internalType": "uint256",
          "name": "poolId",
          "type": "uint256"
        }
      ],
      "name": "finalizePool",
      "outputs": [],
      "stateMutability": "nonpayable",
      "type": "function"
    },
    {
      "inputs": [
        {
          "internalType": "uint256",
          "name": "poolId",
          "type": "uint256"
        },
        {
          "internalType": "uint8",
          "name": "index",
          "type": "uint8"
        }
      ],
      "name": "getPlayer",
      "outputs": [
        {
          "internalType": "address",
          "name": "wallet",
          "type": "address"
        },
        {
          "internalType": "uint256",
          "name": "fid",
          "type": "uint256"
        },
        {
          "internalType": "uint16",
          "name": "accuracy",
          "type": "uint16"
        },
        {
          "internalType": "uint32",
          "name": "timestamp",
          "type": "uint32"
        },
        {
          "internalType": "bool",
          "name": "hasSubmitted",
          "type": "bool"
        }
      ],
      "stateMutability": "view",
      "type": "function"
    },
    {
      "inputs": [
        {
          "internalType": "uint256",
          "name": "poolId",
          "type": "uint256"
        }
      ],
      "name": "getPool",
      "outputs": [
        {
          "internalType": "uint256",
          "name": "id",
          "type": "uint256"
        },
        {
          "internalType": "uint8",
          "name": "playerCount",
          "type": "uint8"
        },
        {
          "internalType": "bool",
          "name": "isActive",
          "type": "bool"
        },
        {
          "internalType": "bool",
          "name": "isCompleted",
          "type": "bool"
        },
        {
          "internalType": "uint32",
          "name": "startTime",
          "type": "uint32"
        },
        {
          "internalType": "bytes32",
          "name": "targetColor",
          "type": "bytes32"
        }
      ],
      "stateMutability": "view",
      "type": "function"
    },
    {
      "inputs": [
        {
          "internalType": "uint256",
          "name": "poolId",
          "type": "uint256"
        }
      ],
      "name": "getPoolWinners",
      "outputs": [
        {
          "internalType": "address[3]",
          "name": "winners",
          "type": "address[3]"
        },
        {
          "internalType": "bool[3]",
          "name": "claimed",
          "type": "bool[3]"
        }
      ],
      "stateMutability": "view",
      "type": "function"
    },
    {
      "inputs": [
        {
          "internalType": "bytes32",
          "name": "role",
          "type": "bytes32"
        }
      ],
      "name": "getRoleAdmin",
      "outputs": [
        {
          "internalType": "bytes32",
          "name": "",
          "type": "bytes32"
        }
      ],
      "stateMutability": "view",
      "type": "function"
    },
    {
      "inputs": [
        {
          "internalType": "bytes32",
          "name": "role",
          "type": "bytes32"
        },
        {
          "internalType": "uint256",
          "name": "index",
          "type": "uint256"
        }
      ],
      "name": "getRoleMember",
      "outputs": [
        {
          "internalType": "address",
          "name": "",
          "type": "address"
        }
      ],
      "stateMutability": "view",
      "type": "function"
    },
    {
      "inputs": [
        {
          "internalType": "bytes32",
          "name": "role",
          "type": "bytes32"
        }
      ],
      "name": "getRoleMemberCount",
      "outputs": [
        {
          "internalType": "uint256",
          "name": "",
          "type": "uint256"
        }
      ],
      "stateMutability": "view",
      "type": "function"
    },
    {
      "inputs": [
        {
          "internalType": "bytes32",
          "name": "role",
          "type": "bytes32"
        }
      ],
      "name": "getRoleMembers",
      "outputs": [
        {
          "internalType": "address[]",
          "name": "",
          "type": "address[]"
        }
      ],
      "stateMutability": "view",
      "type": "function"
    },
    {
      "inputs": [
        {
          "internalType": "address",
          "name": "user",
          "type": "address"
        }
      ],
      "name": "getUserFullStats",
      "outputs": [
        {
          "internalType": "bool",
          "name": "isVerified",
          "type": "bool"
        },
        {
          "internalType": "uint8",
          "name": "currentPoolSlots",
          "type": "uint8"
        },
        {
          "internalType": "uint8",
          "name": "maxPoolSlots",
          "type": "uint8"
        },
        {
          "internalType": "uint8",
          "name": "lifetimeSlots",
          "type": "uint8"
        },
        {
          "internalType": "bool",
          "name": "canJoin",
          "type": "bool"
        },
        {
          "internalType": "uint256",
          "name": "totalClaimed",
          "type": "uint256"
        },
        {
          "internalType": "uint256",
          "name": "totalSpent",
          "type": "uint256"
        },
        {
          "internalType": "uint32",
          "name": "gamesPlayed",
          "type": "uint32"
        },
        {
          "internalType": "uint16",
          "name": "wins1st",
          "type": "uint16"
        },
        {
          "internalType": "uint16",
          "name": "wins2nd",
          "type": "uint16"
        },
        {
          "internalType": "uint16",
          "name": "wins3rd",
          "type": "uint16"
        }
      ],
      "stateMutability": "view",
      "type": "function"
    },
    {
      "inputs": [
        {
          "internalType": "uint256",
          "name": "poolId",
          "type": "uint256"
        },
        {
          "internalType": "address",
          "name": "user",
          "type": "address"
        }
      ],
      "name": "getUserPoolSlots",
      "outputs": [
        {
          "internalType": "uint8",
          "name": "slots",
          "type": "uint8"
        }
      ],
      "stateMutability": "view",
      "type": "function"
    },
    {
      "inputs": [
        {
          "internalType": "uint256",
          "name": "poolId",
          "type": "uint256"
        },
        {
          "internalType": "address",
          "name": "user",
          "type": "address"
        }
      ],
      "name": "getUserPrizeInPool",
      "outputs": [
        {
          "internalType": "uint8",
          "name": "rank",
          "type": "uint8"
        },
        {
          "internalType": "uint256",
          "name": "amount",
          "type": "uint256"
        }
      ],
      "stateMutability": "view",
      "type": "function"
    },
    {
      "inputs": [
        {
          "internalType": "address",
          "name": "user",
          "type": "address"
        }
      ],
      "name": "getUserStatus",
      "outputs": [
        {
          "internalType": "bool",
          "name": "isVerified",
          "type": "bool"
        },
        {
          "internalType": "uint8",
          "name": "slotsUsed",
          "type": "uint8"
        },
        {
          "internalType": "uint8",
          "name": "slotsAvailable",
          "type": "uint8"
        },
        {
          "internalType": "bool",
          "name": "canJoin",
          "type": "bool"
        }
      ],
      "stateMutability": "view",
      "type": "function"
    },
    {
      "inputs": [
        {
          "internalType": "bytes32",
          "name": "role",
          "type": "bytes32"
        },
        {
          "internalType": "address",
          "name": "account",
          "type": "address"
        }
      ],
      "name": "grantRole",
      "outputs": [],
      "stateMutability": "nonpayable",
      "type": "function"
    },
    {
      "inputs": [
        {
          "internalType": "bytes32",
          "name": "role",
          "type": "bytes32"
        },
        {
          "internalType": "address",
          "name": "account",
          "type": "address"
        }
      ],
      "name": "hasRole",
      "outputs": [
        {
          "internalType": "bool",
          "name": "",
          "type": "bool"
        }
      ],
      "stateMutability": "view",
      "type": "function"
    },
    {
      "inputs": [
        {
          "internalType": "address",
          "name": "_admin",
          "type": "address"
        },
        {
          "internalType": "address",
          "name": "_upgrader",
          "type": "address"
        },
        {
          "internalType": "address",
          "name": "_treasury1",
          "type": "address"
        },
        {
          "internalType": "address",
          "name": "_treasury2",
          "type": "address"
        },
        {
          "internalType": "address",
          "name": "_verifier",
          "type": "address"
        }
      ],
      "name": "initialize",
      "outputs": [],
      "stateMutability": "nonpayable",
      "type": "function"
    },
    {
      "inputs": [
        {
          "internalType": "uint256",
          "name": "fid",
          "type": "uint256"
        }
      ],
      "name": "joinPool",
      "outputs": [],
      "stateMutability": "payable",
      "type": "function"
    },
    {
      "inputs": [],
      "name": "pause",
      "outputs": [],
      "stateMutability": "nonpayable",
      "type": "function"
    },
    {
      "inputs": [],
      "name": "paused",
      "outputs": [
        {
          "internalType": "bool",
          "name": "",
          "type": "bool"
        }
      ],
      "stateMutability": "view",
      "type": "function"
    },
    {
      "inputs": [
        {
          "internalType": "address",
          "name": "",
          "type": "address"
        }
      ],
      "name": "playerSlotCount",
      "outputs": [
        {
          "internalType": "uint8",
          "name": "",
          "type": "uint8"
        }
      ],
      "stateMutability": "view",
      "type": "function"
    },
    {
      "inputs": [
        {
          "internalType": "uint256",
          "name": "",
          "type": "uint256"
        },
        {
          "internalType": "address",
          "name": "",
          "type": "address"
        }
      ],
      "name": "poolSlotCount",
      "outputs": [
        {
          "internalType": "uint8",
          "name": "",
          "type": "uint8"
        }
      ],
      "stateMutability": "view",
      "type": "function"
    },
    {
      "inputs": [
        {
          "internalType": "uint256",
          "name": "",
          "type": "uint256"
        },
        {
          "internalType": "uint8",
          "name": "",
          "type": "uint8"
        }
      ],
      "name": "poolWinners",
      "outputs": [
        {
          "internalType": "address",
          "name": "",
          "type": "address"
        }
      ],
      "stateMutability": "view",
      "type": "function"
    },
    {
      "inputs": [
        {
          "internalType": "uint256",
          "name": "",
          "type": "uint256"
        }
      ],
      "name": "pools",
      "outputs": [
        {
          "internalType": "uint256",
          "name": "id",
          "type": "uint256"
        },
        {
          "internalType": "uint8",
          "name": "playerCount",
          "type": "uint8"
        },
        {
          "internalType": "bool",
          "name": "isActive",
          "type": "bool"
        },
        {
          "internalType": "bool",
          "name": "isCompleted",
          "type": "bool"
        },
        {
          "internalType": "uint32",
          "name": "startTime",
          "type": "uint32"
        },
        {
          "internalType": "bytes32",
          "name": "targetColor",
          "type": "bytes32"
        }
      ],
      "stateMutability": "view",
      "type": "function"
    },
    {
      "inputs": [
        {
          "internalType": "uint256",
          "name": "",
          "type": "uint256"
        },
        {
          "internalType": "uint8",
          "name": "",
          "type": "uint8"
        }
      ],
      "name": "prizeClaimed",
      "outputs": [
        {
          "internalType": "bool",
          "name": "",
          "type": "bool"
        }
      ],
      "stateMutability": "view",
      "type": "function"
    },
    {
      "inputs": [],
      "name": "proxiableUUID",
      "outputs": [
        {
          "internalType": "bytes32",
          "name": "",
          "type": "bytes32"
        }
      ],
      "stateMutability": "view",
      "type": "function"
    },
    {
      "inputs": [
        {
          "internalType": "bytes32",
          "name": "role",
          "type": "bytes32"
        },
        {
          "internalType": "address",
          "name": "callerConfirmation",
          "type": "address"
        }
      ],
      "name": "renounceRole",
      "outputs": [],
      "stateMutability": "nonpayable",
      "type": "function"
    },
    {
      "inputs": [
        {
          "internalType": "address",
          "name": "user",
          "type": "address"
        }
      ],
      "name": "resetActivePoolId",
      "outputs": [],
      "stateMutability": "nonpayable",
      "type": "function"
    },
    {
      "inputs": [
        {
          "internalType": "address",
          "name": "user",
          "type": "address"
        }
      ],
      "name": "resetPlayerSlotCount",
      "outputs": [],
      "stateMutability": "nonpayable",
      "type": "function"
    },
    {
      "inputs": [
        {
          "internalType": "bytes32",
          "name": "role",
          "type": "bytes32"
        },
        {
          "internalType": "address",
          "name": "account",
          "type": "address"
        }
      ],
      "name": "revokeRole",
      "outputs": [],
      "stateMutability": "nonpayable",
      "type": "function"
    },
    {
      "inputs": [
        {
          "internalType": "address",
          "name": "_treasury1",
          "type": "address"
        },
        {
          "internalType": "address",
          "name": "_treasury2",
          "type": "address"
        }
      ],
      "name": "setTreasuries",
      "outputs": [],
      "stateMutability": "nonpayable",
      "type": "function"
    },
    {
      "inputs": [
        {
          "internalType": "address",
          "name": "user",
          "type": "address"
        },
        {
          "internalType": "bool",
          "name": "verified",
          "type": "bool"
        }
      ],
      "name": "setUserVerification",
      "outputs": [],
      "stateMutability": "nonpayable",
      "type": "function"
    },
    {
      "inputs": [
        {
          "internalType": "address",
          "name": "newVerifier",
          "type": "address"
        }
      ],
      "name": "setVerifier",
      "outputs": [],
      "stateMutability": "nonpayable",
      "type": "function"
    },
    {
      "inputs": [
        {
          "internalType": "uint256",
          "name": "poolId",
          "type": "uint256"
        },
        {
          "internalType": "uint16",
          "name": "accuracy",
          "type": "uint16"
        }
      ],
      "name": "submitScore",
      "outputs": [],
      "stateMutability": "nonpayable",
      "type": "function"
    },
    {
      "inputs": [
        {
          "internalType": "bytes4",
          "name": "interfaceId",
          "type": "bytes4"
        }
      ],
      "name": "supportsInterface",
      "outputs": [
        {
          "internalType": "bool",
          "name": "",
          "type": "bool"
        }
      ],
      "stateMutability": "view",
      "type": "function"
    },
    {
      "inputs": [],
      "name": "treasury1",
      "outputs": [
        {
          "internalType": "address",
          "name": "",
          "type": "address"
        }
      ],
      "stateMutability": "view",
      "type": "function"
    },
    {
      "inputs": [],
      "name": "treasury2",
      "outputs": [
        {
          "internalType": "address",
          "name": "",
          "type": "address"
        }
      ],
      "stateMutability": "view",
      "type": "function"
    },
    {
      "inputs": [
        {
          "internalType": "address",
          "name": "",
          "type": "address"
        }
      ],
      "name": "unclaimedPrizes",
      "outputs": [
        {
          "internalType": "uint256",
          "name": "",
          "type": "uint256"
        }
      ],
      "stateMutability": "view",
      "type": "function"
    },
    {
      "inputs": [],
      "name": "unpause",
      "outputs": [],
      "stateMutability": "nonpayable",
      "type": "function"
    },
    {
      "inputs": [
        {
          "internalType": "address",
          "name": "newImplementation",
          "type": "address"
        },
        {
          "internalType": "bytes",
          "name": "data",
          "type": "bytes"
        }
      ],
      "name": "upgradeToAndCall",
      "outputs": [],
      "stateMutability": "payable",
      "type": "function"
    },
    {
      "inputs": [
        {
          "internalType": "address",
          "name": "",
          "type": "address"
        }
      ],
      "name": "userStats",
      "outputs": [
        {
          "internalType": "uint256",
          "name": "totalClaimed",
          "type": "uint256"
        },
        {
          "internalType": "uint256",
          "name": "totalSpent",
          "type": "uint256"
        },
        {
          "internalType": "uint32",
          "name": "gamesPlayed",
          "type": "uint32"
        },
        {
          "internalType": "uint16",
          "name": "wins1st",
          "type": "uint16"
        },
        {
          "internalType": "uint16",
          "name": "wins2nd",
          "type": "uint16"
        },
        {
          "internalType": "uint16",
          "name": "wins3rd",
          "type": "uint16"
        }
      ],
      "stateMutability": "view",
      "type": "function"
    },
    {
      "inputs": [
        {
          "internalType": "address",
          "name": "",
          "type": "address"
        }
      ],
      "name": "verifiedUsers",
      "outputs": [
        {
          "internalType": "bool",
          "name": "",
          "type": "bool"
        }
      ],
      "stateMutability": "view",
      "type": "function"
    },
    {
      "inputs": [],
      "name": "verifier",
      "outputs": [
        {
          "internalType": "address",
          "name": "",
          "type": "address"
        }
      ],
      "stateMutability": "view",
      "type": "function"
    },
    {
      "inputs": [],
      "name": "version",
      "outputs": [
        {
          "internalType": "string",
          "name": "",
          "type": "string"
        }
      ],
      "stateMutability": "pure",
      "type": "function"
    }
  ],
  "bytecode": "0x60a0604052306080523480156200001557600080fd5b506200002062000026565b620000da565b7ff0c57e16840df040f15088dc2f81fe391c3923bec73e23a9662efc9c229c6a00805468010000000000000000900460ff1615620000775760405163f92ee8a960e01b815260040160405180910390fd5b80546001600160401b0390811614620000d75780546001600160401b0319166001600160401b0390811782556040519081527fc7f505b2f371ae2175ee4913f4499e1f2633a7b5936321eed1cdaeb6115181d29060200160405180910390a15b50565b608051613ea862000104600039600081816128d7015281816129000152612ade0152613ea86000f3fe6080604052600436106103ad5760003560e01c80638a65d874116101e7578063d2581e4d1161010d578063e2f71741116100a0578063ebc5163b1161006f578063ebc5163b14610daa578063f2717a8014610dc0578063f6d361cc14610e01578063f72c0d8b14610e1d57600080fd5b8063e2f7174114610cdf578063e35fe36614610d0c578063e5d1d26014610d3c578063ea0d5dcd14610d5c57600080fd5b8063d7098154116100dc578063d709815414610c4f578063daf1d69614610c6f578063db2e21bc14610c8f578063e2a57fd614610ca457600080fd5b8063d2581e4d14610bde578063d2bd2f2214610bf3578063d547741f14610c13578063d62fbc3514610c3357600080fd5b80639f3c093c11610185578063ad3cb1cc11610154578063ad3cb1cc14610b0b578063b99b121114610b3c578063c5a1f43414610b9e578063ca15c87314610bbe57600080fd5b80639f3c093c14610a2f578063a217fddf14610a68578063a3246ad314610a7d578063ac4afa3814610aaa57600080fd5b806391d14854116101c157806391d14854146109ba57806391f5800d146109da578063997f524a146109ef5780639a99a09814610a0f57600080fd5b80638a65d874146108c95780638e235d061461096d5780639010d07c1461099a57600080fd5b80634d158c64116102d757806356ade98c1161026a5780636a70a7cc116102395780636a70a7cc1461082c5780636ed2bee21461084c57806375b238fc146108925780638456cb59146108b457600080fd5b806356ade98c1461072d5780635c975abb1461074d5780636486053f1461077257806364e280ce146107fc57600080fd5b806352d1902d116102a657806352d1902d146106c157806353c210f2146106ac5780635437988d146106d657806354fd4d50146106f657600080fd5b80634d158c641461064b5780634d7c0f5b1461066b5780634f1ef286146106995780634f9daac6146106ac57600080fd5b8063291b3d601161034f5780633299cf411161031e5780633299cf41146105dc57806334e7a19f1461060357806336568abe146106165780633f4ba83a1461063657600080fd5b8063291b3d601461056457806329dd29c7146105805780632b7ac3f31461059c5780632f2ff15d146105bc57600080fd5b8063129f55021161038b578063129f5502146104af5780631459457a146104e757806317ee395b14610509578063248a9ca31461054457600080fd5b806301ffc9a7146103b2578063068bcd8d146103e75780630ca4f9d914610485575b600080fd5b3480156103be57600080fd5b506103d26103cd3660046137f0565b610e51565b60405190151581526020015b60405180910390f35b3480156103f357600080fd5b5061044961040236600461381a565b600090815260208190526040902080546031820154603290920154909260ff80841693610100810482169362010000820490921692630100000090910463ffffffff169190565b6040805196875260ff9095166020870152921515938501939093521515606084015263ffffffff909116608083015260a082015260c0016103de565b34801561049157600080fd5b506104a1670214e8348c4f000081565b6040519081526020016103de565b3480156104bb57600080fd5b506005546104cf906001600160a01b031681565b6040516001600160a01b0390911681526020016103de565b3480156104f357600080fd5b5061050761050236600461384f565b610e7c565b005b34801561051557600080fd5b506103d26105243660046138b4565b600860209081526000928352604080842090915290825290205460ff1681565b34801561055057600080fd5b506104a161055f36600461381a565b6110bd565b34801561057057600080fd5b506104a16709b6e64a8ec6000081565b34801561058c57600080fd5b506104a16706f05b59d3b2000081565b3480156105a857600080fd5b50600a546104cf906001600160a01b031681565b3480156105c857600080fd5b506105076105d73660046138ea565b6110df565b3480156105e857600080fd5b506105f1600281565b60405160ff90911681526020016103de565b61050761061136600461381a565b611101565b34801561062257600080fd5b506105076106313660046138ea565b611508565b34801561064257600080fd5b50610507611540565b34801561065757600080fd5b50610507610666366004613916565b611560565b34801561067757600080fd5b5061068b61068636600461381a565b611612565b6040516103de929190613940565b6105076106a73660046139bd565b6116e6565b3480156106b857600080fd5b506105f1601081565b3480156106cd57600080fd5b506104a1611705565b3480156106e257600080fd5b506105076106f1366004613a7f565b611722565b34801561070257600080fd5b506040805180820190915260058152640332e392e360dc1b60208201525b6040516103de9190613abe565b34801561073957600080fd5b50610507610748366004613a7f565b6117b4565b34801561075957600080fd5b50600080516020613e138339815191525460ff166103d2565b34801561077e57600080fd5b5061079261078d366004613a7f565b611811565b604080519b15158c5260ff9a8b1660208d0152988a16988b0198909852959097166060890152921515608088015260a087019190915260c086015263ffffffff1660e085015261ffff928316610100850152821661012084015216610140820152610160016103de565b34801561080857600080fd5b506105f1610817366004613a7f565b60026020526000908152604090205460ff1681565b34801561083857600080fd5b50610507610847366004613af1565b61190e565b34801561085857600080fd5b506105f16108673660046138ea565b6000918252600b602090815260408084206001600160a01b0393909316845291905290205460ff1690565b34801561089e57600080fd5b506104a1600080516020613e5383398151915281565b3480156108c057600080fd5b506105076119dc565b3480156108d557600080fd5b5061092e6108e4366004613a7f565b600c6020526000908152604090208054600182015460029092015490919063ffffffff81169061ffff6401000000008204811691600160301b8104821691600160401b9091041686565b60408051968752602087019590955263ffffffff9093169385019390935261ffff908116606085015291821660808401521660a082015260c0016103de565b34801561097957600080fd5b506104a1610988366004613a7f565b60096020526000908152604090205481565b3480156109a657600080fd5b506104cf6109b5366004613b66565b6119fc565b3480156109c657600080fd5b506103d26109d53660046138ea565b611a2b565b3480156109e657600080fd5b506104a1607881565b3480156109fb57600080fd5b50610507610a0a366004613b88565b611a63565b348015610a1b57600080fd5b50610507610a2a366004613a7f565b611aed565b348015610a3b57600080fd5b50610a4f610a4a3660046138ea565b611b4f565b6040805160ff90931683526020830191909152016103de565b348015610a7457600080fd5b506104a1600081565b348015610a8957600080fd5b50610a9d610a9836600461381a565b611c25565b6040516103de9190613bb9565b348015610ab657600080fd5b50610449610ac536600461381a565b600060208190529081526040902080546031820154603290920154909160ff808216926101008304821692620100008104909216916301000000900463ffffffff169086565b348015610b1757600080fd5b50610720604051806040016040528060058152602001640352e302e360dc1b81525081565b348015610b4857600080fd5b50610b5c610b573660046138b4565b611c57565b604080516001600160a01b039096168652602086019490945261ffff9092169284019290925263ffffffff90911660608301521515608082015260a0016103de565b348015610baa57600080fd5b50610507610bb936600461381a565b611d04565b348015610bca57600080fd5b506104a1610bd936600461381a565b611e4c565b348015610bea57600080fd5b506105f1600481565b348015610bff57600080fd5b50610507610c0e366004613c06565b611e72565b348015610c1f57600080fd5b50610507610c2e3660046138ea565b6120fd565b348015610c3f57600080fd5b506104a16703782dace9d9000081565b348015610c5b57600080fd5b50610507610c6a36600461381a565b612119565b348015610c7b57600080fd5b50610507610c8a366004613af1565b612449565b348015610c9b57600080fd5b50610507612528565b348015610cb057600080fd5b506105f1610cbf3660046138ea565b600b60209081526000928352604080842090915290825290205460ff1681565b348015610ceb57600080fd5b506104a1610cfa366004613a7f565b60016020526000908152604090205481565b348015610d1857600080fd5b506103d2610d27366004613a7f565b60036020526000908152604090205460ff1681565b348015610d4857600080fd5b506006546104cf906001600160a01b031681565b348015610d6857600080fd5b50610d7c610d77366004613a7f565b6125cb565b6040516103de9493929190931515845260ff9283166020850152911660408301521515606082015260800190565b348015610db657600080fd5b506104a160045481565b348015610dcc57600080fd5b506104cf610ddb3660046138b4565b60076020908152600092835260408084209091529082529020546001600160a01b031681565b348015610e0d57600080fd5b506104a167016345785d8a000081565b348015610e2957600080fd5b506104a17f189ab7a9244df0848122154315af71fe140f3db0fe014031783b0946b8c9d2e381565b60006001600160e01b03198216635a05180f60e01b1480610e765750610e7682612651565b92915050565b6000610e86612686565b805490915060ff600160401b820416159067ffffffffffffffff16600081158015610eae5750825b905060008267ffffffffffffffff166001148015610ecb5750303b155b905081158015610ed9575080155b15610ef75760405163f92ee8a960e01b815260040160405180910390fd5b845467ffffffffffffffff191660011785558315610f2157845460ff60401b1916600160401b1785555b6001600160a01b038a161580610f3e57506001600160a01b038916155b15610f5c5760405163cfe2ea6360e01b815260040160405180910390fd5b6001600160a01b0388161580610f7957506001600160a01b038716155b15610f975760405163cfe2ea6360e01b815260040160405180910390fd5b6001600160a01b038616610fbe5760405163043103a360e21b815260040160405180910390fd5b610fc66126af565b610fce6126b9565b610fd66126af565b610fe160008b6126c9565b50610ffa600080516020613e538339815191528b6126c9565b506110257f189ab7a9244df0848122154315af71fe140f3db0fe014031783b0946b8c9d2e38a6126c9565b50600580546001600160a01b03808b166001600160a01b031992831617909255600680548a8416908316179055600a80549289169290911691909117905561106b61270e565b83156110b157845460ff60401b19168555604051600181527fc7f505b2f371ae2175ee4913f4499e1f2633a7b5936321eed1cdaeb6115181d29060200160405180910390a15b50505050505050505050565b6000908152600080516020613df3833981519152602052604090206001015490565b6110e8826110bd565b6110f1816127a9565b6110fb83836126c9565b50505050565b6111096127b3565b6111116127eb565b67016345785d8a0000341461113957604051636fe6a4c960e01b815260040160405180910390fd5b8060000361115a5760405163c1408aaf60e01b815260040160405180910390fd5b336000908152600160205260409020541561118857604051630f2c3adf60e11b815260040160405180910390fd5b336000818152600360209081526040808320546004548452600b83528184209484529390915290205460ff9182169116811580156111ca5750600260ff821610155b156111e85760405163f50e7f9d60e01b815260040160405180910390fd5b60045460009081526020819052604090206031810154601060ff90911610611223576040516327a01e0760e21b815260040160405180910390fd5b6040805160a0810182523381526020810186905260009181018290526060810182905260808101919091526031820154600183019060ff166010811061126b5761126b613c32565b82516003919091029190910180546001600160a01b039092166001600160a01b03199092169190911781556020820151600182015560408201516002909101805460608401516080909401511515600160301b0266ff0000000000001963ffffffff909516620100000265ffffffffffff1990921661ffff90941693909317179290921617905560318101805460ff1690600061130783613c5e565b82546101009290920a60ff81810219909316918316021790915560045433600090815260016020908152604080832093909355600290529081208054909216925061135183613c5e565b82546101009290920a60ff8181021990931691831602179091556004546000908152600b6020908152604080832033845290915281208054909216925061139783613c5e565b825460ff9182166101009390930a928302919092021990911617905550336000908152600c60205260408120600101805467016345785d8a000092906113de908490613c7d565b909155505060ff821660000361143257336000908152600c60205260408120600201805463ffffffff169161141283613c90565b91906101000a81548163ffffffff021916908363ffffffff160217905550505b6004546040518581523391907f03dfbe1fcb4e2d61f3b4a0c93d8f814c92250618b3387f396cc9fc9fafe2c2039060200160405180910390a3603181015460ff16600f19016114eb5760318101805463ffffffff428116630100000090810266ffffffff00ff0019909316929092176101001792839055600454604051929093041681527fe095f2953657e5e67e41ed2a85f51575a89d28199b24c9c038a76ded7be608689060200160405180910390a26114eb61270e565b5050506115056001600080516020613e3383398151915255565b50565b6001600160a01b03811633146115315760405163334bd91960e11b815260040160405180910390fd5b61153b8282612830565b505050565b600080516020613e53833981519152611558816127a9565b61150561286c565b600080516020613e53833981519152611578816127a9565b6001600160a01b038316158061159557506001600160a01b038216155b156115b35760405163cfe2ea6360e01b815260040160405180910390fd5b600580546001600160a01b03199081166001600160a01b03868116918217909355600680549092169285169283179091556040517f4ab5be82436d353e61ca18726e984e561f5c1cc7c6d38b29d2553c790434705a90600090a3505050565b61161a6137d2565b6116226137d2565b60015b60038160ff16116116e057600084815260076020908152604080832060ff851684529091529020546001600160a01b031683611662600184613cb3565b60ff166003811061167557611675613c32565b6001600160a01b0390921660209283029190910152600085815260088252604080822060ff8086168452935290205416826116b1600184613cb3565b60ff16600381106116c4576116c4613c32565b91151560209092020152806116d881613c5e565b915050611625565b50915091565b6116ee6128cc565b6116f782612971565b6117018282612a16565b5050565b600061170f612ad3565b50600080516020613dd383398151915290565b600080516020613e5383398151915261173a816127a9565b6001600160a01b0382166117615760405163043103a360e21b815260040160405180910390fd5b600a80546001600160a01b038481166001600160a01b0319831681179093556040519116919082907f0243549a92b2412f7a3caf7a2e56d65b8821b91345363faa5f57195384065fcc90600090a3505050565b600080516020613e538339815191526117cc816127a9565b6001600160a01b038216600081815260016020526040808220829055517faff9322337711a9f6d7a3a9322989f6d09b0fcbc6b84f2256056a59aa5a5b0aa9190a25050565b6001600160a01b0381166000818152600360209081526040808320546004548452600b83528184209484529390915281205460ff92831692169080808080808080808a61185f576002611862565b60ff5b6001600160a01b038d16600090815260026020908152604080832054600190925290912054919a5060ff1698501580156118a657508a806118a65750600260ff8b16105b6001600160a01b03909c166000908152600c60205260409020805460018201546002909201549c9e9b9d9a9c999b909991985063ffffffff8216975061ffff640100000000830481169750600160301b830481169650600160401b9092049091169350915050565b600080516020613e53833981519152611926816127a9565b60005b828110156110fb5760006001600086868581811061194957611949613c32565b905060200201602081019061195e9190613a7f565b6001600160a01b0316815260208101919091526040016000205583838281811061198a5761198a613c32565b905060200201602081019061199f9190613a7f565b6001600160a01b03167faff9322337711a9f6d7a3a9322989f6d09b0fcbc6b84f2256056a59aa5a5b0aa60405160405180910390a2600101611929565b600080516020613e538339815191526119f4816127a9565b611505612b1c565b6000828152600080516020613db3833981519152602081905260408220611a239084612b65565b949350505050565b6000918252600080516020613df3833981519152602090815260408084206001600160a01b0393909316845291905290205460ff1690565b600a546001600160a01b03163314611a8e5760405163b9857aa160e01b815260040160405180910390fd5b6001600160a01b038216600081815260036020908152604091829020805460ff191685151590811790915591519182527f34736af44d2b91cd43fa896d4cfe0861ec1e6b4538583d385fc671639e9153b2910160405180910390a25050565b600080516020613e53833981519152611b05816127a9565b6001600160a01b038216600081815260026020526040808220805460ff19169055517ffba900bea8c42defbbf3e9e84151351a5a87adcf37f3186ae2b698b2d987ddf39190a25050565b60008060015b60038160ff1611611c1557600085815260076020908152604080832060ff851684529091529020546001600160a01b038581169116148015611bb35750600085815260086020908152604080832060ff808616855292529091205416155b15611c035760008160ff16600103611bd457506709b6e64a8ec60000611bf9565b8160ff16600203611bee57506706f05b59d3b20000611bf9565b506703782dace9d900005b9092509050611c1e565b80611c0d81613c5e565b915050611b55565b50600080915091505b9250929050565b6000818152600080516020613db38339815191526020819052604090912060609190611c5090612b71565b9392505050565b600082815260208190526040812060310154819081908190819060ff90811690871610611c9757604051636bad456160e01b815260040160405180910390fd5b600087815260208190526040812060010160ff881660108110611cbc57611cbc613c32565b60030201805460018201546002909201546001600160a01b039091169a91995061ffff8116985062010000810463ffffffff169750600160301b900460ff1695509350505050565b611d0c6127b3565b611d146127eb565b600454811115611d37576040516302721e1f60e61b815260040160405180910390fd5b60008181526020819052604090206031810154610100900460ff161580611d685750603181015462010000900460ff165b15611d86576040516338c0a90160e11b815260040160405180910390fd5b600160005b603183015460ff9081169082161015611de057826001018160ff1660108110611db657611db6613c32565b6003020160020160069054906101000a900460ff16611dd85760009150611de0565b600101611d8b565b5080158015611e0c57506031820154611e08906078906301000000900463ffffffff16613c7d565b4211155b15611e2a57604051630867d2ed60e41b815260040160405180910390fd5b611e3383612b7e565b50506115056001600080516020613e3383398151915255565b6000818152600080516020613db3833981519152602081905260408220611c5090612e16565b611e7a6127b3565b611e826127eb565b600454821115611ea5576040516302721e1f60e61b815260040160405180910390fd5b6127108161ffff161115611ecc576040516312aa4f0360e21b815260040160405180910390fd5b336000908152600160205260409020548214611efb57604051636bad456160e01b815260040160405180910390fd5b6000828152602081905260409020603181015462010000900460ff1615611f35576040516338c0a90160e11b815260040160405180910390fd5b6000805b603183015460ff908116908216101561207057336001840160ff831660108110611f6557611f65613c32565b60030201546001600160a01b0316148015611faa5750826001018160ff1660108110611f9357611f93613c32565b6003020160020160069054906101000a900460ff16155b156120685783836001018260ff1660108110611fc857611fc8613c32565b6003020160020160006101000a81548161ffff021916908361ffff16021790555042836001018260ff166010811061200257612002613c32565b6003020160020160026101000a81548163ffffffff021916908363ffffffff1602179055506001836001018260ff166010811061204157612041613c32565b6003020160020160066101000a81548160ff02191690831515021790555060019150612070565b600101611f39565b508061208f57604051639fbfc58960e01b815260040160405180910390fd5b33600081815260016020908152604080832092909255905161ffff8616815286917f55e4b82d5d0bc2616d47cddd97399d4b662cec042f68f52723f60d7cbbc44d6b910160405180910390a36120e484612e20565b50506117016001600080516020613e3383398151915255565b612106826110bd565b61210f816127a9565b6110fb8383612830565b6121216127b3565b6121296127eb565b6000818152602081905260409020603181015462010000900460ff16612162576040516338c0a90160e11b815260040160405180910390fd5b600060015b60038160ff16116121e157600084815260076020908152604080832060ff851684529091529020546001600160a01b0316331480156121c25750600084815260086020908152604080832060ff808616855292529091205416155b156121cf578091506121e1565b806121d981613c5e565b915050612167565b508060ff1660000361220657604051630fe160f360e11b815260040160405180910390fd5b600083815260086020908152604080832060ff851680855292528220805460ff191660019081179091550361224457506709b6e64a8ec60000612269565b8160ff1660020361225e57506706f05b59d3b20000612269565b506703782dace9d900005b3360009081526009602052604081208054839290612288908490613ccc565b9091555050336000908152600c6020526040812080548392906122ac908490613c7d565b909155505060ff821660010361230857336000908152600c602052604090206002018054640100000000900461ffff169060046122e883613cdf565b91906101000a81548161ffff021916908361ffff16021790555050612385565b8160ff1660020361233e57336000908152600c602052604090206002018054600160301b900461ffff169060066122e883613cdf565b336000908152600c602052604090206002018054600160401b900461ffff1690600861236983613cdf565b91906101000a81548161ffff021916908361ffff160217905550505b604051600090339083908381818185875af1925050503d80600081146123c7576040519150601f19603f3d011682016040523d82523d6000602084013e6123cc565b606091505b50509050806123ee576040516312171d8360e31b815260040160405180910390fd5b6040805160ff8516815260208101849052339187917f3e4f68b30a745aad7a761efb657b19f1d7bed16ff77ea15b967f425202bdc4f6910160405180910390a3505050506115056001600080516020613e3383398151915255565b600080516020613e53833981519152612461816127a9565b60005b828110156110fb5760006002600086868581811061248457612484613c32565b90506020020160208101906124999190613a7f565b6001600160a01b031681526020810191909152604001600020805460ff191660ff929092169190911790558383828181106124d6576124d6613c32565b90506020020160208101906124eb9190613a7f565b6001600160a01b03167ffba900bea8c42defbbf3e9e84151351a5a87adcf37f3186ae2b698b2d987ddf360405160405180910390a2600101612464565b600080516020613e53833981519152612540816127a9565b612548612ea7565b47600061255581806119fc565b90506000816001600160a01b03168360405160006040518083038185875af1925050503d80600081146125a4576040519150601f19603f3d011682016040523d82523d6000602084013e6125a9565b606091505b50509050806110fb576040516312171d8360e31b815260040160405180910390fd5b6001600160a01b0381166000818152600360209081526040808320546004548452600b83528184209484529390915281205460ff9283169216908083612612576002612615565b60ff5b6001600160a01b038616600090815260016020526040902054909250158015612648575083806126485750600260ff8416105b90509193509193565b60006001600160e01b03198216637965db0b60e01b1480610e7657506301ffc9a760e01b6001600160e01b0319831614610e76565b6000807ff0c57e16840df040f15088dc2f81fe391c3923bec73e23a9662efc9c229c6a00610e76565b6126b7612ed7565b565b6126c1612ed7565b6126b7612efc565b6000600080516020613db3833981519152816126e58585612f04565b90508015611a235760008581526020839052604090206127059085612fa9565b50949350505050565b6004805490600061271e83613cf6565b90915550506004546000818152602081815260409182902083815582514292810192909252918101929092524460608301529060800160408051808303601f1901815290829052805160209182012060328401819055600454908352917f5b062af8aa7c7c247b6805332e9acd582d651a0f292a6832e35964511e688e00910160405180910390a250565b6115058133612fbe565b600080516020613e338339815191528054600119016127e557604051633ee5aeb560e01b815260040160405180910390fd5b60029055565b600080516020613e138339815191525460ff16156126b75760405163d93c066560e01b815260040160405180910390fd5b6001600080516020613e3383398151915255565b6000600080516020613db38339815191528161284c8585612ff7565b90508015611a235760008581526020839052604090206127059085613073565b612874612ea7565b600080516020613e13833981519152805460ff191681557f5db9ee0a495bf2e6ff9c91a7834c1ba4fdd244a5e8aa4e537bd38aeae4b073aa335b6040516001600160a01b03909116815260200160405180910390a150565b306001600160a01b037f000000000000000000000000000000000000000000000000000000000000000016148061295357507f00000000000000000000000000000000000000000000000000000000000000006001600160a01b0316612947600080516020613dd3833981519152546001600160a01b031690565b6001600160a01b031614155b156126b75760405163703e46dd60e11b815260040160405180910390fd5b612989600080516020613e5383398151915233611a2b565b806129b957506129b97f189ab7a9244df0848122154315af71fe140f3db0fe014031783b0946b8c9d2e333611a2b565b6115055760405162461bcd60e51b815260206004820152602360248201527f43616c6c6572206973206e6f7420617574686f72697a656420746f207570677260448201526261646560e81b60648201526084015b60405180910390fd5b816001600160a01b03166352d1902d6040518163ffffffff1660e01b8152600401602060405180830381865afa925050508015612a70575060408051601f3d908101601f19168201909252612a6d91810190613d0f565b60015b612a9857604051634c9c8ce360e01b81526001600160a01b0383166004820152602401612a0d565b600080516020613dd38339815191528114612ac957604051632a87526960e21b815260048101829052602401612a0d565b61153b8383613088565b306001600160a01b037f000000000000000000000000000000000000000000000000000000000000000016146126b75760405163703e46dd60e11b815260040160405180910390fd5b612b246127eb565b600080516020613e13833981519152805460ff191660011781557f62e78cea01bee320cd4e420270b5ea74000d11b0c9f74754ebdbfc544b05a258336128ae565b6000611c5083836130de565b60606000611c5083613108565b6000818152602081905260409020603181015462010000900460ff1615612bb8576040516338c0a90160e11b815260040160405180910390fd5b60318101805462ff00001916620100001790556000612bd683613164565b90506000612bed6002670214e8348c4f0000613d28565b600554909150612c06906001600160a01b031682613446565b600654612c1c906001600160a01b031682613446565b604080516060810182526709b6e64a8ec6000081526706f05b59d3b2000060208201526703782dace9d900009181019190915260005b60038160ff161015612d615760008460ff831660038110612c7557612c75613c32565b60200201516001600160a01b031614612d59576000612c95826001613d4a565b9050848260ff1660038110612cac57612cac613c32565b60209081029190910151600089815260078352604080822060ff86811684529452902080546001600160a01b0319166001600160a01b039092169190911790558390831660038110612d0057612d00613c32565b602002015160096000878560ff1660038110612d1e57612d1e613c32565b60200201516001600160a01b03166001600160a01b031681526020019081526020016000206000828254612d529190613c7d565b9091555050505b600101612c52565b5060005b603185015460ff9081169082161015612dbd5760016000866001018360ff1660108110612d9457612d94613c32565b60030201546001600160a01b031681526020810191909152604001600090812055600101612d65565b50602080840151845160408087015190516001600160a01b0391821681529281169391169188917f0f9d63a53536052f5920f0b3a056b5b97a3fed41803fdcc7ef4728eb9947ee01910160405180910390a45050505050565b6000610e76825490565b60008181526020819052604090206031810154601060ff9091161015612e44575050565b600160005b601060ff82161015612e9757826001018160ff1660108110612e6d57612e6d613c32565b6003020160020160069054906101000a900460ff16612e8f5760009150612e97565b600101612e49565b50801561153b5761153b83612b7e565b600080516020613e138339815191525460ff166126b757604051638dfc202b60e01b815260040160405180910390fd5b612edf613502565b6126b757604051631afcd79f60e31b815260040160405180910390fd5b61281c612ed7565b6000600080516020613df3833981519152612f1f8484611a2b565b612f9f576000848152602082815260408083206001600160a01b03871684529091529020805460ff19166001179055612f553390565b6001600160a01b0316836001600160a01b0316857f2f8788117e7eff1d82e926ec794901d17c78024a50270940304540a733656f0d60405160405180910390a46001915050610e76565b6000915050610e76565b6000611c50836001600160a01b03841661351c565b612fc88282611a2b565b6117015760405163e2517d3f60e01b81526001600160a01b038216600482015260248101839052604401612a0d565b6000600080516020613df38339815191526130128484611a2b565b15612f9f576000848152602082815260408083206001600160a01b0387168085529252808320805460ff1916905551339287917ff6391f5c32d9c69d2a47ea670b442974b53935d1edc7fd64eb21e047a839171b9190a46001915050610e76565b6000611c50836001600160a01b03841661356b565b61309182613654565b6040516001600160a01b038316907fbc7cd75a20ee27fd9adebab32041f755214dbc6bffa90cc0225b39da2e5c2d3b90600090a28051156130d65761153b82826136b9565b61170161372f565b60008260000182815481106130f5576130f5613c32565b9060005260206000200154905092915050565b60608160000180548060200260200160405190810160405280929190818152602001828054801561315857602002820191906000526020600020905b815481526020019060010190808311613144575b50505050509050919050565b61316c6137d2565b60008281526020819052604090206131826137d2565b6040805160608101825260ff808252602082018190529181019190915260005b603184015460ff908116908216101561343c576000846001018260ff16601081106131cf576131cf613c32565b6003020190508060020160069054906101000a900460ff166131f15750613434565b60005b60038160ff1610156134315760ff848282166003811061321657613216613c32565b602002015160ff16036132815782848260ff166003811061323957613239613c32565b60ff928316602091909102919091015282546001600160a01b031690869083166003811061326957613269613c32565b6001600160a01b039092166020929092020152613431565b600086600101858360ff166003811061329c5761329c613c32565b602002015160ff16601081106132b4576132b4613c32565b600302016002818101549085015491925061ffff9081169116118061330e57506002808201549084015461ffff908116911614801561330e57506002808201549084015463ffffffff620100009283900481169290910416105b156134285760025b8260ff168160ff1611156133c85785613330600183613cb3565b60ff166003811061334357613343613c32565b6020020151868260ff166003811061335d5761335d613c32565b60ff909216602092909202015286613376600183613cb3565b60ff166003811061338957613389613c32565b6020020151878260ff16600381106133a3576133a3613c32565b6001600160a01b039092166020929092020152806133c081613d63565b915050613316565b5083858360ff16600381106133df576133df613c32565b60ff928316602091909102919091015283546001600160a01b031690879084166003811061340f5761340f613c32565b6001600160a01b03909216602092909202015250613431565b506001016131f4565b50505b6001016131a2565b5090949350505050565b6000826001600160a01b03168260405160006040518083038185875af1925050503d8060008114613493576040519150601f19603f3d011682016040523d82523d6000602084013e613498565b606091505b50509050806134ba576040516312171d8360e31b815260040160405180910390fd5b826001600160a01b03167fff3cae93fb596d1d15d930842d5acf78c6d54434b5f9ccdd4c3913bea876a9fd836040516134f591815260200190565b60405180910390a2505050565b600061350c612686565b54600160401b900460ff16919050565b600081815260018301602052604081205461356357508154600181810184556000848152602080822090930184905584548482528286019093526040902091909155610e76565b506000610e76565b60008181526001830160205260408120548015612f9f57600061358f600183613ccc565b85549091506000906135a390600190613ccc565b90508082146136085760008660000182815481106135c3576135c3613c32565b90600052602060002001549050808760000184815481106135e6576135e6613c32565b6000918252602080832090910192909255918252600188019052604090208390555b855486908061361957613619613d80565b600190038181906000526020600020016000905590558560010160008681526020019081526020016000206000905560019350505050610e76565b806001600160a01b03163b60000361368a57604051634c9c8ce360e01b81526001600160a01b0382166004820152602401612a0d565b600080516020613dd383398151915280546001600160a01b0319166001600160a01b0392909216919091179055565b6060600080846001600160a01b0316846040516136d69190613d96565b600060405180830381855af49150503d8060008114613711576040519150601f19603f3d011682016040523d82523d6000602084013e613716565b606091505b509150915061372685838361374e565b95945050505050565b34156126b75760405163b398979f60e01b815260040160405180910390fd5b6060826137635761375e826137aa565b611c50565b815115801561377a57506001600160a01b0384163b155b156137a357604051639996b31560e01b81526001600160a01b0385166004820152602401612a0d565b5092915050565b8051156137b957805160208201fd5b60405163d6bda27560e01b815260040160405180910390fd5b60405180606001604052806003906020820280368337509192915050565b60006020828403121561380257600080fd5b81356001600160e01b031981168114611c5057600080fd5b60006020828403121561382c57600080fd5b5035919050565b80356001600160a01b038116811461384a57600080fd5b919050565b600080600080600060a0868803121561386757600080fd5b61387086613833565b945061387e60208701613833565b935061388c60408701613833565b925061389a60608701613833565b91506138a860808701613833565b90509295509295909350565b600080604083850312156138c757600080fd5b82359150602083013560ff811681146138df57600080fd5b809150509250929050565b600080604083850312156138fd57600080fd5b8235915061390d60208401613833565b90509250929050565b6000806040838503121561392957600080fd5b61393283613833565b915061390d60208401613833565b60c08101818460005b60038110156139715781516001600160a01b0316835260209283019290910190600101613949565b505050606082018360005b600381101561399d578151151583526020928301929091019060010161397c565b5050509392505050565b634e487b7160e01b600052604160045260246000fd5b600080604083850312156139d057600080fd5b6139d983613833565b9150602083013567ffffffffffffffff808211156139f657600080fd5b818501915085601f830112613a0a57600080fd5b813581811115613a1c57613a1c6139a7565b604051601f8201601f19908116603f01168101908382118183101715613a4457613a446139a7565b81604052828152886020848701011115613a5d57600080fd5b8260208601602083013760006020848301015280955050505050509250929050565b600060208284031215613a9157600080fd5b611c5082613833565b60005b83811015613ab5578181015183820152602001613a9d565b50506000910152565b6020815260008251806020840152613add816040850160208701613a9a565b601f01601f19169190910160400192915050565b60008060208385031215613b0457600080fd5b823567ffffffffffffffff80821115613b1c57600080fd5b818501915085601f830112613b3057600080fd5b813581811115613b3f57600080fd5b8660208260051b8501011115613b5457600080fd5b60209290920196919550909350505050565b60008060408385031215613b7957600080fd5b50508035926020909101359150565b60008060408385031215613b9b57600080fd5b613ba483613833565b9150602083013580151581146138df57600080fd5b6020808252825182820181905260009190848201906040850190845b81811015613bfa5783516001600160a01b031683529284019291840191600101613bd5565b50909695505050505050565b60008060408385031215613c1957600080fd5b82359150602083013561ffff811681146138df57600080fd5b634e487b7160e01b600052603260045260246000fd5b634e487b7160e01b600052601160045260246000fd5b600060ff821660ff8103613c7457613c74613c48565b60010192915050565b80820180821115610e7657610e76613c48565b600063ffffffff808316818103613ca957613ca9613c48565b6001019392505050565b60ff8281168282160390811115610e7657610e76613c48565b81810381811115610e7657610e76613c48565b600061ffff808316818103613ca957613ca9613c48565b600060018201613d0857613d08613c48565b5060010190565b600060208284031215613d2157600080fd5b5051919050565b600082613d4557634e487b7160e01b600052601260045260246000fd5b500490565b60ff8181168382160190811115610e7657610e76613c48565b600060ff821680613d7657613d76613c48565b6000190192915050565b634e487b7160e01b600052603160045260246000fd5b60008251613da8818460208701613a9a565b919091019291505056fec1f6fe24621ce81ec5827caf0253cadb74709b061630e6b55e82371705932000360894a13ba1a3210667c828492db98dca3e2076cc3735a920a3ca505d382bbc02dd7bc7dec4dceedda775e58dd541e08a116c6c53815c0bd028192f7b626800cd5ed15c6e187e77e9aee88184c21f4f2182ab5827cb3b7e07fbedcd63f033009b779b17422d0df92223018b32b4d1fa46e071723d6817e2486d003becc55f00a49807205ce4d355092ef5a8a18f56e8913cf4a201fbe287825b095693c21775a26469706673582212200ff20df64d302f75345e37eb4809386a2fc2b273cbfbbad060eb5e89da213fef64736f6c63430008160033",
  "linkReferences": {},
  "deployedLinkReferences": {}
}