{
  "_format": "hh-sol-artifact-1",
  "contractName": "ColorDropPool",
  "sourceName": "contracts/ColorDropPool.sol",
  "abi": [
    {
      "inputs": [],
      "stateMutability": "nonpayable",
      "type": "constructor"
    },
    {
      "inputs": [],
      "name": "AccessControlBadConfirmation",
      "type": "error"
    },
    {
      "inputs": [
        {
          "internalType": "address",
          "name": "account",
          "type": "address"
        },
        {
          "internalType": "bytes32",
          "name": "neededRole",
          "type": "bytes32"
        }
      ],
      "name": "AccessControlUnauthorizedAccount",
      "type": "error"
    },
    {
      "inputs": [
        {
          "internalType": "address",
          "name": "target",
          "type": "address"
        }
      ],
      "name": "AddressEmptyCode",
      "type": "error"
    },
    {
      "inputs": [],
      "name": "AlreadyInActivePool",
      "type": "error"
    },
    {
      "inputs": [],
      "name": "AlreadySubmitted",
      "type": "error"
    },
    {
      "inputs": [
        {
          "internalType": "address",
          "name": "implementation",
          "type": "address"
        }
      ],
      "name": "ERC1967InvalidImplementation",
      "type": "error"
    },
    {
      "inputs": [],
      "name": "ERC1967NonPayable",
      "type": "error"
    },
    {
      "inputs": [],
      "name": "EnforcedPause",
      "type": "error"
    },
    {
      "inputs": [],
      "name": "ExpectedPause",
      "type": "error"
    },
    {
      "inputs": [],
      "name": "FailedCall",
      "type": "error"
    },
    {
      "inputs": [],
      "name": "InvalidAccuracy",
      "type": "error"
    },
    {
      "inputs": [],
      "name": "InvalidEntryFee",
      "type": "error"
    },
    {
      "inputs": [],
      "name": "InvalidFID",
      "type": "error"
    },
    {
      "inputs": [],
      "name": "InvalidInitialization",
      "type": "error"
    },
    {
      "inputs": [],
      "name": "InvalidTreasuryAddress",
      "type": "error"
    },
    {
      "inputs": [],
      "name": "InvalidVerifierAddress",
      "type": "error"
    },
    {
      "inputs": [],
      "name": "NotInPool",
      "type": "error"
    },
    {
      "inputs": [],
      "name": "NotInitializing",
      "type": "error"
    },
    {
      "inputs": [],
      "name": "PoolDoesNotExist",
      "type": "error"
    },
    {
      "inputs": [],
      "name": "PoolFull",
      "type": "error"
    },
    {
      "inputs": [],
      "name": "PoolNotActive",
      "type": "error"
    },
    {
      "inputs": [],
      "name": "PoolNotReady",
      "type": "error"
    },
    {
      "inputs": [],
      "name": "ReentrancyGuardReentrantCall",
      "type": "error"
    },
    {
      "inputs": [],
      "name": "SlotLimitExceeded",
      "type": "error"
    },
    {
      "inputs": [],
      "name": "TransferFailed",
      "type": "error"
    },
    {
      "inputs": [],
      "name": "UUPSUnauthorizedCallContext",
      "type": "error"
    },
    {
      "inputs": [
        {
          "internalType": "bytes32",
          "name": "slot",
          "type": "bytes32"
        }
      ],
      "name": "UUPSUnsupportedProxiableUUID",
      "type": "error"
    },
    {
      "inputs": [],
      "name": "UnauthorizedVerifier",
      "type": "error"
    },
    {
      "anonymous": false,
      "inputs": [
        {
          "indexed": false,
          "internalType": "uint64",
          "name": "version",
          "type": "uint64"
        }
      ],
      "name": "Initialized",
      "type": "event"
    },
    {
      "anonymous": false,
      "inputs": [
        {
          "indexed": false,
          "internalType": "address",
          "name": "account",
          "type": "address"
        }
      ],
      "name": "Paused",
      "type": "event"
    },
    {
      "anonymous": false,
      "inputs": [
        {
          "indexed": true,
          "internalType": "uint256",
          "name": "poolId",
          "type": "uint256"
        },
        {
          "indexed": true,
          "internalType": "address",
          "name": "player",
          "type": "address"
        },
        {
          "indexed": false,
          "internalType": "uint256",
          "name": "fid",
          "type": "uint256"
        }
      ],
      "name": "PlayerJoined",
      "type": "event"
    },
    {
      "anonymous": false,
      "inputs": [
        {
          "indexed": true,
          "internalType": "uint256",
          "name": "poolId",
          "type": "uint256"
        },
        {
          "indexed": true,
          "internalType": "address",
          "name": "first",
          "type": "address"
        },
        {
          "indexed": true,
          "internalType": "address",
          "name": "second",
          "type": "address"
        },
        {
          "indexed": false,
          "internalType": "address",
          "name": "third",
          "type": "address"
        }
      ],
      "name": "PoolCompleted",
      "type": "event"
    },
    {
      "anonymous": false,
      "inputs": [
        {
          "indexed": true,
          "internalType": "uint256",
          "name": "poolId",
          "type": "uint256"
        },
        {
          "indexed": false,
          "internalType": "bytes32",
          "name": "targetColor",
          "type": "bytes32"
        }
      ],
      "name": "PoolCreated",
      "type": "event"
    },
    {
      "anonymous": false,
      "inputs": [
        {
          "indexed": true,
          "internalType": "uint256",
          "name": "poolId",
          "type": "uint256"
        },
        {
          "indexed": false,
          "internalType": "uint32",
          "name": "startTime",
          "type": "uint32"
        }
      ],
      "name": "PoolStarted",
      "type": "event"
    },
    {
      "anonymous": false,
      "inputs": [
        {
          "indexed": true,
          "internalType": "address",
          "name": "winner",
          "type": "address"
        },
        {
          "indexed": false,
          "internalType": "uint256",
          "name": "amount",
          "type": "uint256"
        }
      ],
      "name": "PrizePaid",
      "type": "event"
    },
    {
      "anonymous": false,
      "inputs": [
        {
          "indexed": true,
          "internalType": "bytes32",
          "name": "role",
          "type": "bytes32"
        },
        {
          "indexed": true,
          "internalType": "bytes32",
          "name": "previousAdminRole",
          "type": "bytes32"
        },
        {
          "indexed": true,
          "internalType": "bytes32",
          "name": "newAdminRole",
          "type": "bytes32"
        }
      ],
      "name": "RoleAdminChanged",
      "type": "event"
    },
    {
      "anonymous": false,
      "inputs": [
        {
          "indexed": true,
          "internalType": "bytes32",
          "name": "role",
          "type": "bytes32"
        },
        {
          "indexed": true,
          "internalType": "address",
          "name": "account",
          "type": "address"
        },
        {
          "indexed": true,
          "internalType": "address",
          "name": "sender",
          "type": "address"
        }
      ],
      "name": "RoleGranted",
      "type": "event"
    },
    {
      "anonymous": false,
      "inputs": [
        {
          "indexed": true,
          "internalType": "bytes32",
          "name": "role",
          "type": "bytes32"
        },
        {
          "indexed": true,
          "internalType": "address",
          "name": "account",
          "type": "address"
        },
        {
          "indexed": true,
          "internalType": "address",
          "name": "sender",
          "type": "address"
        }
      ],
      "name": "RoleRevoked",
      "type": "event"
    },
    {
      "anonymous": false,
      "inputs": [
        {
          "indexed": true,
          "internalType": "uint256",
          "name": "poolId",
          "type": "uint256"
        },
        {
          "indexed": true,
          "internalType": "address",
          "name": "player",
          "type": "address"
        },
        {
          "indexed": false,
          "internalType": "uint16",
          "name": "accuracy",
          "type": "uint16"
        }
      ],
      "name": "ScoreSubmitted",
      "type": "event"
    },
    {
      "anonymous": false,
      "inputs": [
        {
          "indexed": true,
          "internalType": "address",
          "name": "treasury",
          "type": "address"
        },
        {
          "indexed": false,
          "internalType": "uint256",
          "name": "amount",
          "type": "uint256"
        }
      ],
      "name": "SystemFeePaid",
      "type": "event"
    },
    {
      "anonymous": false,
      "inputs": [
        {
          "indexed": true,
          "internalType": "address",
          "name": "treasury1",
          "type": "address"
        },
        {
          "indexed": true,
          "internalType": "address",
          "name": "treasury2",
          "type": "address"
        }
      ],
      "name": "TreasuryUpdated",
      "type": "event"
    },
    {
      "anonymous": false,
      "inputs": [
        {
          "indexed": false,
          "internalType": "address",
          "name": "account",
          "type": "address"
        }
      ],
      "name": "Unpaused",
      "type": "event"
    },
    {
      "anonymous": false,
      "inputs": [
        {
          "indexed": true,
          "internalType": "address",
          "name": "implementation",
          "type": "address"
        }
      ],
      "name": "Upgraded",
      "type": "event"
    },
    {
      "anonymous": false,
      "inputs": [
        {
          "indexed": true,
          "internalType": "address",
          "name": "user",
          "type": "address"
        },
        {
          "indexed": false,
          "internalType": "bool",
          "name": "verified",
          "type": "bool"
        }
      ],
      "name": "UserVerified",
      "type": "event"
    },
    {
      "anonymous": false,
      "inputs": [
        {
          "indexed": true,
          "internalType": "address",
          "name": "oldVerifier",
          "type": "address"
        },
        {
          "indexed": true,
          "internalType": "address",
          "name": "newVerifier",
          "type": "address"
        }
      ],
      "name": "VerifierUpdated",
      "type": "event"
    },
    {
      "inputs": [],
      "name": "ADMIN_ROLE",
      "outputs": [
        {
          "internalType": "bytes32",
          "name": "",
          "type": "bytes32"
        }
      ],
      "stateMutability": "view",
      "type": "function"
    },
    {
      "inputs": [],
      "name": "DEFAULT_ADMIN_ROLE",
      "outputs": [
        {
          "internalType": "bytes32",
          "name": "",
          "type": "bytes32"
        }
      ],
      "stateMutability": "view",
      "type": "function"
    },
    {
      "inputs": [],
      "name": "ENTRY_FEE",
      "outputs": [
        {
          "internalType": "uint256",
          "name": "",
          "type": "uint256"
        }
      ],
      "stateMutability": "view",
      "type": "function"
    },
    {
      "inputs": [],
      "name": "FINALIZATION_TIMEOUT",
      "outputs": [
        {
          "internalType": "uint256",
          "name": "",
          "type": "uint256"
        }
      ],
      "stateMutability": "view",
      "type": "function"
    },
    {
      "inputs": [],
      "name": "POOL_SIZE",
      "outputs": [
        {
          "internalType": "uint8",
          "name": "",
          "type": "uint8"
        }
      ],
      "stateMutability": "view",
      "type": "function"
    },
    {
      "inputs": [],
      "name": "PRIZE_1ST",
      "outputs": [
        {
          "internalType": "uint256",
          "name": "",
          "type": "uint256"
        }
      ],
      "stateMutability": "view",
      "type": "function"
    },
    {
      "inputs": [],
      "name": "PRIZE_2ND",
      "outputs": [
        {
          "internalType": "uint256",
          "name": "",
          "type": "uint256"
        }
      ],
      "stateMutability": "view",
      "type": "function"
    },
    {
      "inputs": [],
      "name": "PRIZE_3RD",
      "outputs": [
        {
          "internalType": "uint256",
          "name": "",
          "type": "uint256"
        }
      ],
      "stateMutability": "view",
      "type": "function"
    },
    {
      "inputs": [],
      "name": "SYSTEM_FEE",
      "outputs": [
        {
          "internalType": "uint256",
          "name": "",
          "type": "uint256"
        }
      ],
      "stateMutability": "view",
      "type": "function"
    },
    {
      "inputs": [],
      "name": "UNVERIFIED_SLOT_LIMIT",
      "outputs": [
        {
          "internalType": "uint8",
          "name": "",
          "type": "uint8"
        }
      ],
      "stateMutability": "view",
      "type": "function"
    },
    {
      "inputs": [],
      "name": "UPGRADER_ROLE",
      "outputs": [
        {
          "internalType": "bytes32",
          "name": "",
          "type": "bytes32"
        }
      ],
      "stateMutability": "view",
      "type": "function"
    },
    {
      "inputs": [],
      "name": "UPGRADE_INTERFACE_VERSION",
      "outputs": [
        {
          "internalType": "string",
          "name": "",
          "type": "string"
        }
      ],
      "stateMutability": "view",
      "type": "function"
    },
    {
      "inputs": [
        {
          "internalType": "address",
          "name": "",
          "type": "address"
        }
      ],
      "name": "activePoolId",
      "outputs": [
        {
          "internalType": "uint256",
          "name": "",
          "type": "uint256"
        }
      ],
      "stateMutability": "view",
      "type": "function"
    },
    {
      "inputs": [],
      "name": "currentPoolId",
      "outputs": [
        {
          "internalType": "uint256",
          "name": "",
          "type": "uint256"
        }
      ],
      "stateMutability": "view",
      "type": "function"
    },
    {
      "inputs": [],
      "name": "emergencyWithdraw",
      "outputs": [],
      "stateMutability": "nonpayable",
      "type": "function"
    },
    {
      "inputs": [
        {
          "internalType": "uint256",
          "name": "poolId",
          "type": "uint256"
        }
      ],
      "name": "finalizePool",
      "outputs": [],
      "stateMutability": "nonpayable",
      "type": "function"
    },
    {
      "inputs": [
        {
          "internalType": "uint256",
          "name": "poolId",
          "type": "uint256"
        },
        {
          "internalType": "uint8",
          "name": "index",
          "type": "uint8"
        }
      ],
      "name": "getPlayer",
      "outputs": [
        {
          "internalType": "address",
          "name": "wallet",
          "type": "address"
        },
        {
          "internalType": "uint256",
          "name": "fid",
          "type": "uint256"
        },
        {
          "internalType": "uint16",
          "name": "accuracy",
          "type": "uint16"
        },
        {
          "internalType": "uint32",
          "name": "timestamp",
          "type": "uint32"
        },
        {
          "internalType": "bool",
          "name": "hasSubmitted",
          "type": "bool"
        }
      ],
      "stateMutability": "view",
      "type": "function"
    },
    {
      "inputs": [
        {
          "internalType": "uint256",
          "name": "poolId",
          "type": "uint256"
        }
      ],
      "name": "getPool",
      "outputs": [
        {
          "internalType": "uint256",
          "name": "id",
          "type": "uint256"
        },
        {
          "internalType": "uint8",
          "name": "playerCount",
          "type": "uint8"
        },
        {
          "internalType": "bool",
          "name": "isActive",
          "type": "bool"
        },
        {
          "internalType": "bool",
          "name": "isCompleted",
          "type": "bool"
        },
        {
          "internalType": "uint32",
          "name": "startTime",
          "type": "uint32"
        },
        {
          "internalType": "bytes32",
          "name": "targetColor",
          "type": "bytes32"
        }
      ],
      "stateMutability": "view",
      "type": "function"
    },
    {
      "inputs": [
        {
          "internalType": "bytes32",
          "name": "role",
          "type": "bytes32"
        }
      ],
      "name": "getRoleAdmin",
      "outputs": [
        {
          "internalType": "bytes32",
          "name": "",
          "type": "bytes32"
        }
      ],
      "stateMutability": "view",
      "type": "function"
    },
    {
      "inputs": [
        {
          "internalType": "bytes32",
          "name": "role",
          "type": "bytes32"
        },
        {
          "internalType": "uint256",
          "name": "index",
          "type": "uint256"
        }
      ],
      "name": "getRoleMember",
      "outputs": [
        {
          "internalType": "address",
          "name": "",
          "type": "address"
        }
      ],
      "stateMutability": "view",
      "type": "function"
    },
    {
      "inputs": [
        {
          "internalType": "bytes32",
          "name": "role",
          "type": "bytes32"
        }
      ],
      "name": "getRoleMemberCount",
      "outputs": [
        {
          "internalType": "uint256",
          "name": "",
          "type": "uint256"
        }
      ],
      "stateMutability": "view",
      "type": "function"
    },
    {
      "inputs": [
        {
          "internalType": "bytes32",
          "name": "role",
          "type": "bytes32"
        }
      ],
      "name": "getRoleMembers",
      "outputs": [
        {
          "internalType": "address[]",
          "name": "",
          "type": "address[]"
        }
      ],
      "stateMutability": "view",
      "type": "function"
    },
    {
      "inputs": [
        {
          "internalType": "address",
          "name": "user",
          "type": "address"
        }
      ],
      "name": "getUserStatus",
      "outputs": [
        {
          "internalType": "bool",
          "name": "isVerified",
          "type": "bool"
        },
        {
          "internalType": "uint8",
          "name": "slotsUsed",
          "type": "uint8"
        },
        {
          "internalType": "uint8",
          "name": "slotsAvailable",
          "type": "uint8"
        },
        {
          "internalType": "bool",
          "name": "canJoin",
          "type": "bool"
        }
      ],
      "stateMutability": "view",
      "type": "function"
    },
    {
      "inputs": [
        {
          "internalType": "bytes32",
          "name": "role",
          "type": "bytes32"
        },
        {
          "internalType": "address",
          "name": "account",
          "type": "address"
        }
      ],
      "name": "grantRole",
      "outputs": [],
      "stateMutability": "nonpayable",
      "type": "function"
    },
    {
      "inputs": [
        {
          "internalType": "bytes32",
          "name": "role",
          "type": "bytes32"
        },
        {
          "internalType": "address",
          "name": "account",
          "type": "address"
        }
      ],
      "name": "hasRole",
      "outputs": [
        {
          "internalType": "bool",
          "name": "",
          "type": "bool"
        }
      ],
      "stateMutability": "view",
      "type": "function"
    },
    {
      "inputs": [
        {
          "internalType": "address",
          "name": "_admin",
          "type": "address"
        },
        {
          "internalType": "address",
          "name": "_upgrader",
          "type": "address"
        },
        {
          "internalType": "address",
          "name": "_treasury1",
          "type": "address"
        },
        {
          "internalType": "address",
          "name": "_treasury2",
          "type": "address"
        },
        {
          "internalType": "address",
          "name": "_verifier",
          "type": "address"
        }
      ],
      "name": "initialize",
      "outputs": [],
      "stateMutability": "nonpayable",
      "type": "function"
    },
    {
      "inputs": [
        {
          "internalType": "uint256",
          "name": "fid",
          "type": "uint256"
        }
      ],
      "name": "joinPool",
      "outputs": [],
      "stateMutability": "payable",
      "type": "function"
    },
    {
      "inputs": [],
      "name": "pause",
      "outputs": [],
      "stateMutability": "nonpayable",
      "type": "function"
    },
    {
      "inputs": [],
      "name": "paused",
      "outputs": [
        {
          "internalType": "bool",
          "name": "",
          "type": "bool"
        }
      ],
      "stateMutability": "view",
      "type": "function"
    },
    {
      "inputs": [
        {
          "internalType": "address",
          "name": "",
          "type": "address"
        }
      ],
      "name": "playerSlotCount",
      "outputs": [
        {
          "internalType": "uint8",
          "name": "",
          "type": "uint8"
        }
      ],
      "stateMutability": "view",
      "type": "function"
    },
    {
      "inputs": [
        {
          "internalType": "uint256",
          "name": "",
          "type": "uint256"
        }
      ],
      "name": "pools",
      "outputs": [
        {
          "internalType": "uint256",
          "name": "id",
          "type": "uint256"
        },
        {
          "internalType": "uint8",
          "name": "playerCount",
          "type": "uint8"
        },
        {
          "internalType": "bool",
          "name": "isActive",
          "type": "bool"
        },
        {
          "internalType": "bool",
          "name": "isCompleted",
          "type": "bool"
        },
        {
          "internalType": "uint32",
          "name": "startTime",
          "type": "uint32"
        },
        {
          "internalType": "bytes32",
          "name": "targetColor",
          "type": "bytes32"
        }
      ],
      "stateMutability": "view",
      "type": "function"
    },
    {
      "inputs": [],
      "name": "proxiableUUID",
      "outputs": [
        {
          "internalType": "bytes32",
          "name": "",
          "type": "bytes32"
        }
      ],
      "stateMutability": "view",
      "type": "function"
    },
    {
      "inputs": [
        {
          "internalType": "bytes32",
          "name": "role",
          "type": "bytes32"
        },
        {
          "internalType": "address",
          "name": "callerConfirmation",
          "type": "address"
        }
      ],
      "name": "renounceRole",
      "outputs": [],
      "stateMutability": "nonpayable",
      "type": "function"
    },
    {
      "inputs": [
        {
          "internalType": "bytes32",
          "name": "role",
          "type": "bytes32"
        },
        {
          "internalType": "address",
          "name": "account",
          "type": "address"
        }
      ],
      "name": "revokeRole",
      "outputs": [],
      "stateMutability": "nonpayable",
      "type": "function"
    },
    {
      "inputs": [
        {
          "internalType": "address",
          "name": "_treasury1",
          "type": "address"
        },
        {
          "internalType": "address",
          "name": "_treasury2",
          "type": "address"
        }
      ],
      "name": "setTreasuries",
      "outputs": [],
      "stateMutability": "nonpayable",
      "type": "function"
    },
    {
      "inputs": [
        {
          "internalType": "address",
          "name": "user",
          "type": "address"
        },
        {
          "internalType": "bool",
          "name": "verified",
          "type": "bool"
        }
      ],
      "name": "setUserVerification",
      "outputs": [],
      "stateMutability": "nonpayable",
      "type": "function"
    },
    {
      "inputs": [
        {
          "internalType": "address",
          "name": "newVerifier",
          "type": "address"
        }
      ],
      "name": "setVerifier",
      "outputs": [],
      "stateMutability": "nonpayable",
      "type": "function"
    },
    {
      "inputs": [
        {
          "internalType": "uint256",
          "name": "poolId",
          "type": "uint256"
        },
        {
          "internalType": "uint16",
          "name": "accuracy",
          "type": "uint16"
        }
      ],
      "name": "submitScore",
      "outputs": [],
      "stateMutability": "nonpayable",
      "type": "function"
    },
    {
      "inputs": [
        {
          "internalType": "bytes4",
          "name": "interfaceId",
          "type": "bytes4"
        }
      ],
      "name": "supportsInterface",
      "outputs": [
        {
          "internalType": "bool",
          "name": "",
          "type": "bool"
        }
      ],
      "stateMutability": "view",
      "type": "function"
    },
    {
      "inputs": [],
      "name": "treasury1",
      "outputs": [
        {
          "internalType": "address",
          "name": "",
          "type": "address"
        }
      ],
      "stateMutability": "view",
      "type": "function"
    },
    {
      "inputs": [],
      "name": "treasury2",
      "outputs": [
        {
          "internalType": "address",
          "name": "",
          "type": "address"
        }
      ],
      "stateMutability": "view",
      "type": "function"
    },
    {
      "inputs": [],
      "name": "unpause",
      "outputs": [],
      "stateMutability": "nonpayable",
      "type": "function"
    },
    {
      "inputs": [
        {
          "internalType": "address",
          "name": "newImplementation",
          "type": "address"
        },
        {
          "internalType": "bytes",
          "name": "data",
          "type": "bytes"
        }
      ],
      "name": "upgradeToAndCall",
      "outputs": [],
      "stateMutability": "payable",
      "type": "function"
    },
    {
      "inputs": [
        {
          "internalType": "address",
          "name": "",
          "type": "address"
        }
      ],
      "name": "verifiedUsers",
      "outputs": [
        {
          "internalType": "bool",
          "name": "",
          "type": "bool"
        }
      ],
      "stateMutability": "view",
      "type": "function"
    },
    {
      "inputs": [],
      "name": "verifier",
      "outputs": [
        {
          "internalType": "address",
          "name": "",
          "type": "address"
        }
      ],
      "stateMutability": "view",
      "type": "function"
    },
    {
      "inputs": [],
      "name": "version",
      "outputs": [
        {
          "internalType": "string",
          "name": "",
          "type": "string"
        }
      ],
      "stateMutability": "pure",
      "type": "function"
    }
  ],
  "bytecode": "0x60a0604052306080523480156200001557600080fd5b506200002062000026565b620000da565b7ff0c57e16840df040f15088dc2f81fe391c3923bec73e23a9662efc9c229c6a00805468010000000000000000900460ff1615620000775760405163f92ee8a960e01b815260040160405180910390fd5b80546001600160401b0390811614620000d75780546001600160401b0319166001600160401b0390811782556040519081527fc7f505b2f371ae2175ee4913f4499e1f2633a7b5936321eed1cdaeb6115181d29060200160405180910390a15b50565b608051612f3c6200010460003960008181611b0401528181611b2d0152611d0b0152612f3c6000f3fe60806040526004361061027d5760003560e01c80639010d07c1161014f578063d2581e4d116100c1578063e35fe3661161007a578063e35fe366146108a9578063e5d1d260146108d9578063ea0d5dcd146108f9578063ebc5163b14610947578063f6d361cc1461084b578063f72c0d8b1461095d57600080fd5b8063d2581e4d146107f6578063d2bd2f221461080b578063d547741f1461082b578063d62fbc351461084b578063db2e21bc14610867578063e2f717411461087c57600080fd5b8063a3246ad311610113578063a3246ad314610695578063ac4afa38146106c2578063ad3cb1cc14610723578063b99b121114610754578063c5a1f434146107b6578063ca15c873146107d657600080fd5b80639010d07c1461060b57806391d148541461062b57806391f5800d1461064b578063997f524a14610660578063a217fddf1461068057600080fd5b806336568abe116101f35780635437988d116101ac5780635437988d1461052857806354fd4d50146105485780635c975abb1461057f57806364e280ce146105a457806375b238fc146105d45780638456cb59146105f657600080fd5b806336568abe146104845780633f4ba83a146104a45780634d158c64146104b95780634f1ef286146104d95780634f9daac6146104ec57806352d1902d1461051357600080fd5b8063248a9ca311610245578063248a9ca3146103d9578063291b3d60146103f957806329dd29c7146104155780632b7ac3f3146104315780632f2ff15d1461045157806334e7a19f1461047157600080fd5b806301ffc9a714610282578063068bcd8d146102b75780630ca4f9d914610355578063129f55021461037f5780631459457a146103b7575b600080fd5b34801561028e57600080fd5b506102a261029d3660046129b3565b610991565b60405190151581526020015b60405180910390f35b3480156102c357600080fd5b506103196102d23660046129dd565b600090815260208190526040902080546025820154602690920154909260ff80841693610100810482169362010000820490921692630100000090910463ffffffff169190565b6040805196875260ff9095166020870152921515938501939093521515606084015263ffffffff909116608083015260a082015260c0016102ae565b34801561036157600080fd5b506103716702c68af0bb14000081565b6040519081526020016102ae565b34801561038b57600080fd5b5060055461039f906001600160a01b031681565b6040516001600160a01b0390911681526020016102ae565b3480156103c357600080fd5b506103d76103d2366004612a12565b6109bc565b005b3480156103e557600080fd5b506103716103f43660046129dd565b610bfd565b34801561040557600080fd5b50610371670853a0d2313c000081565b34801561042157600080fd5b50610371670429d069189e000081565b34801561043d57600080fd5b5060075461039f906001600160a01b031681565b34801561045d57600080fd5b506103d761046c366004612a77565b610c1f565b6103d761047f3660046129dd565b610c41565b34801561049057600080fd5b506103d761049f366004612a77565b610f83565b3480156104b057600080fd5b506103d7610fbb565b3480156104c557600080fd5b506103d76104d4366004612aa3565b610fdb565b6103d76104e7366004612ae3565b61108d565b3480156104f857600080fd5b50610501600c81565b60405160ff90911681526020016102ae565b34801561051f57600080fd5b506103716110ac565b34801561053457600080fd5b506103d7610543366004612ba5565b6110c9565b34801561055457600080fd5b50604080518082019091526005815264332e302e3160d81b60208201525b6040516102ae9190612be4565b34801561058b57600080fd5b50600080516020612ea78339815191525460ff166102a2565b3480156105b057600080fd5b506105016105bf366004612ba5565b60026020526000908152604090205460ff1681565b3480156105e057600080fd5b50610371600080516020612ee783398151915281565b34801561060257600080fd5b506103d761115b565b34801561061757600080fd5b5061039f610626366004612c17565b61117b565b34801561063757600080fd5b506102a2610646366004612a77565b6111aa565b34801561065757600080fd5b50610371607881565b34801561066c57600080fd5b506103d761067b366004612c39565b6111e2565b34801561068c57600080fd5b50610371600081565b3480156106a157600080fd5b506106b56106b03660046129dd565b61126c565b6040516102ae9190612c75565b3480156106ce57600080fd5b506103196106dd3660046129dd565b600060208190529081526040902080546025820154602690920154909160ff808216926101008304821692620100008104909216916301000000900463ffffffff169086565b34801561072f57600080fd5b50610572604051806040016040528060058152602001640352e302e360dc1b81525081565b34801561076057600080fd5b5061077461076f366004612cc2565b61129e565b604080516001600160a01b039096168652602086019490945261ffff9092169284019290925263ffffffff90911660608301521515608082015260a0016102ae565b3480156107c257600080fd5b506103d76107d13660046129dd565b61134e565b3480156107e257600080fd5b506103716107f13660046129dd565b61147d565b34801561080257600080fd5b50610501600481565b34801561081757600080fd5b506103d7610826366004612ced565b6114a3565b34801561083757600080fd5b506103d7610846366004612a77565b611746565b34801561085757600080fd5b5061037167016345785d8a000081565b34801561087357600080fd5b506103d7611762565b34801561088857600080fd5b50610371610897366004612ba5565b60016020526000908152604090205481565b3480156108b557600080fd5b506102a26108c4366004612ba5565b60036020526000908152604090205460ff1681565b3480156108e557600080fd5b5060065461039f906001600160a01b031681565b34801561090557600080fd5b50610919610914366004612ba5565b611805565b6040516102ae9493929190931515845260ff9283166020850152911660408301521515606082015260800190565b34801561095357600080fd5b5061037160045481565b34801561096957600080fd5b506103717f189ab7a9244df0848122154315af71fe140f3db0fe014031783b0946b8c9d2e381565b60006001600160e01b03198216635a05180f60e01b14806109b657506109b68261187e565b92915050565b60006109c66118b3565b805490915060ff600160401b820416159067ffffffffffffffff166000811580156109ee5750825b905060008267ffffffffffffffff166001148015610a0b5750303b155b905081158015610a19575080155b15610a375760405163f92ee8a960e01b815260040160405180910390fd5b845467ffffffffffffffff191660011785558315610a6157845460ff60401b1916600160401b1785555b6001600160a01b038a161580610a7e57506001600160a01b038916155b15610a9c5760405163cfe2ea6360e01b815260040160405180910390fd5b6001600160a01b0388161580610ab957506001600160a01b038716155b15610ad75760405163cfe2ea6360e01b815260040160405180910390fd5b6001600160a01b038616610afe5760405163043103a360e21b815260040160405180910390fd5b610b066118dc565b610b0e6118e6565b610b166118dc565b610b2160008b6118f6565b50610b3a600080516020612ee78339815191528b6118f6565b50610b657f189ab7a9244df0848122154315af71fe140f3db0fe014031783b0946b8c9d2e38a6118f6565b50600580546001600160a01b03808b166001600160a01b031992831617909255600680548a84169083161790556007805492891692909116919091179055610bab61193b565b8315610bf157845460ff60401b19168555604051600181527fc7f505b2f371ae2175ee4913f4499e1f2633a7b5936321eed1cdaeb6115181d29060200160405180910390a15b50505050505050505050565b6000908152600080516020612e87833981519152602052604090206001015490565b610c2882610bfd565b610c31816119d6565b610c3b83836118f6565b50505050565b610c496119e0565b610c51611a18565b67016345785d8a00003414610c7957604051636fe6a4c960e01b815260040160405180910390fd5b80600003610c9a5760405163c1408aaf60e01b815260040160405180910390fd5b3360009081526001602052604090205415610cc857604051630f2c3adf60e11b815260040160405180910390fd5b3360009081526003602052604090205460ff1680158015610cfe575033600090815260026020526040902054600460ff90911610155b15610d1c5760405163f50e7f9d60e01b815260040160405180910390fd5b60045460009081526020819052604090206025810154600c60ff90911610610d57576040516327a01e0760e21b815260040160405180910390fd5b6040805160a0810182523381526020810185905260009181018290526060810182905260808101919091526025820154600183019060ff16600c8110610d9f57610d9f612d19565b82516003919091029190910180546001600160a01b039092166001600160a01b0319909216919091178155602082015160018201556040820151600290910180546060840151608090940151151566010000000000000266ff0000000000001963ffffffff909516620100000265ffffffffffff1990921661ffff90941693909317179290921617905560258101805460ff16906000610e3e83612d45565b82546101009290920a60ff818102199093169183160217909155600454336000908152600160209081526040808320939093556002905290812080549092169250610e8883612d45565b91906101000a81548160ff021916908360ff16021790555050336001600160a01b03166004547f03dfbe1fcb4e2d61f3b4a0c93d8f814c92250618b3387f396cc9fc9fafe2c20385604051610edf91815260200190565b60405180910390a3602581015460ff16600b1901610f675760258101805463ffffffff428116630100000090810266ffffffff00ff0019909316929092176101001792839055600454604051929093041681527fe095f2953657e5e67e41ed2a85f51575a89d28199b24c9c038a76ded7be608689060200160405180910390a2610f6761193b565b5050610f806001600080516020612ec783398151915255565b50565b6001600160a01b0381163314610fac5760405163334bd91960e11b815260040160405180910390fd5b610fb68282611a5d565b505050565b600080516020612ee7833981519152610fd3816119d6565b610f80611a99565b600080516020612ee7833981519152610ff3816119d6565b6001600160a01b038316158061101057506001600160a01b038216155b1561102e5760405163cfe2ea6360e01b815260040160405180910390fd5b600580546001600160a01b03199081166001600160a01b03868116918217909355600680549092169285169283179091556040517f4ab5be82436d353e61ca18726e984e561f5c1cc7c6d38b29d2553c790434705a90600090a3505050565b611095611af9565b61109e82611b9e565b6110a88282611c43565b5050565b60006110b6611d00565b50600080516020612e6783398151915290565b600080516020612ee78339815191526110e1816119d6565b6001600160a01b0382166111085760405163043103a360e21b815260040160405180910390fd5b600780546001600160a01b038481166001600160a01b0319831681179093556040519116919082907f0243549a92b2412f7a3caf7a2e56d65b8821b91345363faa5f57195384065fcc90600090a3505050565b600080516020612ee7833981519152611173816119d6565b610f80611d49565b6000828152600080516020612e478339815191526020819052604082206111a29084611d92565b949350505050565b6000918252600080516020612e87833981519152602090815260408084206001600160a01b0393909316845291905290205460ff1690565b6007546001600160a01b0316331461120d5760405163b9857aa160e01b815260040160405180910390fd5b6001600160a01b038216600081815260036020908152604091829020805460ff191685151590811790915591519182527f34736af44d2b91cd43fa896d4cfe0861ec1e6b4538583d385fc671639e9153b2910160405180910390a25050565b6000818152600080516020612e47833981519152602081905260409091206060919061129790611d9e565b9392505050565b600082815260208190526040812060250154819081908190819060ff908116908716106112de57604051636bad456160e01b815260040160405180910390fd5b600087815260208190526040812060010160ff8816600c811061130357611303612d19565b60030201805460018201546002909201546001600160a01b039091169a91995061ffff8116985062010000810463ffffffff1697506601000000000000900460ff1695509350505050565b6113566119e0565b61135e611a18565b600454811115611381576040516302721e1f60e61b815260040160405180910390fd5b60008181526020819052604090206025810154610100900460ff1615806113b25750602581015462010000900460ff165b156113d0576040516338c0a90160e11b815260040160405180910390fd5b600160005b602583015460ff908116908216101561142a57826001018160ff16600c811061140057611400612d19565b6003020160020160069054906101000a900460ff16611422576000915061142a565b6001016113d5565b508015801561145657506025820154611452906078906301000000900463ffffffff16612d64565b4211155b1561147457604051630867d2ed60e41b815260040160405180910390fd5b610f6783611dab565b6000818152600080516020612e4783398151915260208190526040822061129790611f3e565b6114ab6119e0565b6114b3611a18565b6004548211156114d6576040516302721e1f60e61b815260040160405180910390fd5b6127108161ffff1611156114fd576040516312aa4f0360e21b815260040160405180910390fd5b33600090815260016020526040902054821461152c57604051636bad456160e01b815260040160405180910390fd5b60008281526020819052604090206025810154610100900460ff16158061155d5750602581015462010000900460ff165b1561157b576040516338c0a90160e11b815260040160405180910390fd5b6000805b602583015460ff90811690821610156116ca57336001840160ff8316600c81106115ab576115ab612d19565b60030201546001600160a01b0316036116c257826001018160ff16600c81106115d6576115d6612d19565b6003020160020160069054906101000a900460ff161561160957604051639fbfc58960e01b815260040160405180910390fd5b83836001018260ff16600c811061162257611622612d19565b6003020160020160006101000a81548161ffff021916908361ffff16021790555042836001018260ff16600c811061165c5761165c612d19565b6003020160020160026101000a81548163ffffffff021916908363ffffffff1602179055506001836001018260ff16600c811061169b5761169b612d19565b6003020160020160066101000a81548160ff021916908315150217905550600191506116ca565b60010161157f565b50806116e957604051636bad456160e01b815260040160405180910390fd5b60405161ffff84168152339085907f55e4b82d5d0bc2616d47cddd97399d4b662cec042f68f52723f60d7cbbc44d6b9060200160405180910390a361172d84611f48565b50506110a86001600080516020612ec783398151915255565b61174f82610bfd565b611758816119d6565b610c3b8383611a5d565b600080516020612ee783398151915261177a816119d6565b611782611fc0565b47600061178f818061117b565b90506000816001600160a01b03168360405160006040518083038185875af1925050503d80600081146117de576040519150601f19603f3d011682016040523d82523d6000602084013e6117e3565b606091505b5050905080610c3b576040516312171d8360e31b815260040160405180910390fd5b6001600160a01b038116600090815260036020908152604080832054600290925282205460ff91821692911690808361183f576004611842565b60ff5b6001600160a01b038616600090815260016020526040902054909250158015611875575083806118755750600460ff8416105b90509193509193565b60006001600160e01b03198216637965db0b60e01b14806109b657506301ffc9a760e01b6001600160e01b03198316146109b6565b6000807ff0c57e16840df040f15088dc2f81fe391c3923bec73e23a9662efc9c229c6a006109b6565b6118e4611ff0565b565b6118ee611ff0565b6118e4612015565b6000600080516020612e4783398151915281611912858561201d565b905080156111a257600085815260208390526040902061193290856120c2565b50949350505050565b6004805490600061194b83612d77565b90915550506004546000818152602081815260409182902083815582514292810192909252918101929092524460608301529060800160408051808303601f1901815290829052805160209182012060268401819055600454908352917f5b062af8aa7c7c247b6805332e9acd582d651a0f292a6832e35964511e688e00910160405180910390a250565b610f8081336120d7565b600080516020612ec7833981519152805460011901611a1257604051633ee5aeb560e01b815260040160405180910390fd5b60029055565b600080516020612ea78339815191525460ff16156118e45760405163d93c066560e01b815260040160405180910390fd5b6001600080516020612ec783398151915255565b6000600080516020612e4783398151915281611a798585612110565b905080156111a2576000858152602083905260409020611932908561218c565b611aa1611fc0565b600080516020612ea7833981519152805460ff191681557f5db9ee0a495bf2e6ff9c91a7834c1ba4fdd244a5e8aa4e537bd38aeae4b073aa335b6040516001600160a01b03909116815260200160405180910390a150565b306001600160a01b037f0000000000000000000000000000000000000000000000000000000000000000161480611b8057507f00000000000000000000000000000000000000000000000000000000000000006001600160a01b0316611b74600080516020612e67833981519152546001600160a01b031690565b6001600160a01b031614155b156118e45760405163703e46dd60e11b815260040160405180910390fd5b611bb6600080516020612ee7833981519152336111aa565b80611be65750611be67f189ab7a9244df0848122154315af71fe140f3db0fe014031783b0946b8c9d2e3336111aa565b610f805760405162461bcd60e51b815260206004820152602360248201527f43616c6c6572206973206e6f7420617574686f72697a656420746f207570677260448201526261646560e81b60648201526084015b60405180910390fd5b816001600160a01b03166352d1902d6040518163ffffffff1660e01b8152600401602060405180830381865afa925050508015611c9d575060408051601f3d908101601f19168201909252611c9a91810190612d90565b60015b611cc557604051634c9c8ce360e01b81526001600160a01b0383166004820152602401611c3a565b600080516020612e678339815191528114611cf657604051632a87526960e21b815260048101829052602401611c3a565b610fb683836121a1565b306001600160a01b037f000000000000000000000000000000000000000000000000000000000000000016146118e45760405163703e46dd60e11b815260040160405180910390fd5b611d51611a18565b600080516020612ea7833981519152805460ff191660011781557f62e78cea01bee320cd4e420270b5ea74000d11b0c9f74754ebdbfc544b05a25833611adb565b600061129783836121f7565b6060600061129783612221565b6000818152602081905260409020602581015462010000900460ff1615611de5576040516338c0a90160e11b815260040160405180910390fd5b60258101805462ff00001916620100001790556000611e038361227d565b90506000611e1a60026702c68af0bb140000612da9565b600554909150611e33906001600160a01b0316826124a9565b600654611e49906001600160a01b0316826124a9565b8151611e5d90670853a0d2313c0000612565565b6020820151611e7490670429d069189e0000612565565b6040820151611e8b9067016345785d8a0000612565565b60005b602584015460ff9081169082161015611ee65760016000856001018360ff16600c8110611ebd57611ebd612d19565b60030201546001600160a01b031681526020810191909152604001600090812055600101611e8e565b50602080830151835160408086015190516001600160a01b0391821681529281169391169187917f0f9d63a53536052f5920f0b3a056b5b97a3fed41803fdcc7ef4728eb9947ee01910160405180910390a450505050565b60006109b6825490565b6000818152602081905260408120906001905b602583015460ff9081169082161015611fb057826001018160ff16600c8110611f8657611f86612d19565b6003020160020160069054906101000a900460ff16611fa85760009150611fb0565b600101611f5b565b508015610fb657610fb683611dab565b600080516020612ea78339815191525460ff166118e457604051638dfc202b60e01b815260040160405180910390fd5b611ff8612626565b6118e457604051631afcd79f60e31b815260040160405180910390fd5b611a49611ff0565b6000600080516020612e8783398151915261203884846111aa565b6120b8576000848152602082815260408083206001600160a01b03871684529091529020805460ff1916600117905561206e3390565b6001600160a01b0316836001600160a01b0316857f2f8788117e7eff1d82e926ec794901d17c78024a50270940304540a733656f0d60405160405180910390a460019150506109b6565b60009150506109b6565b6000611297836001600160a01b038416612640565b6120e182826111aa565b6110a85760405163e2517d3f60e01b81526001600160a01b038216600482015260248101839052604401611c3a565b6000600080516020612e8783398151915261212b84846111aa565b156120b8576000848152602082815260408083206001600160a01b0387168085529252808320805460ff1916905551339287917ff6391f5c32d9c69d2a47ea670b442974b53935d1edc7fd64eb21e047a839171b9190a460019150506109b6565b6000611297836001600160a01b03841661268f565b6121aa82612778565b6040516001600160a01b038316907fbc7cd75a20ee27fd9adebab32041f755214dbc6bffa90cc0225b39da2e5c2d3b90600090a28051156121ef57610fb682826127dd565b6110a8612853565b600082600001828154811061220e5761220e612d19565b9060005260206000200154905092915050565b60608160000180548060200260200160405190810160405280929190818152602001828054801561227157602002820191906000526020600020905b81548152602001906001019080831161225d575b50505050509050919050565b612285612995565b600082815260208190526040902061229b612995565b60005b602583015460ff90811690821610156124a15760005b60038160ff1610156124985760008360ff8316600381106122d7576122d7612d19565b60200201516001600160a01b03160361234357836001018260ff16600c811061230257612302612d19565b600390810291909101546001600160a01b031690849060ff841690811061232b5761232b612d19565b6001600160a01b039092166020929092020152612498565b6000846001018360ff16600c811061235d5761235d612d19565b600302019050600061238888868560ff166003811061237e5761237e612d19565b6020020151612872565b6002808201549084015491925061ffff908116911611806123de57506002808201549083015461ffff90811691161480156123de57506002808201549083015463ffffffff620100009283900481169290910416105b1561248e5760025b8360ff168160ff1611156124525785612400600183612dcb565b60ff166003811061241357612413612d19565b6020020151868260ff166003811061242d5761242d612d19565b6001600160a01b0390921660209290920201528061244a81612de4565b9150506123e6565b5081546001600160a01b03168560ff85166003811061247357612473612d19565b6001600160a01b039092166020929092020152506124989050565b50506001016122b4565b5060010161229e565b509392505050565b6000826001600160a01b03168260405160006040518083038185875af1925050503d80600081146124f6576040519150601f19603f3d011682016040523d82523d6000602084013e6124fb565b606091505b505090508061251d576040516312171d8360e31b815260040160405180910390fd5b826001600160a01b03167fff3cae93fb596d1d15d930842d5acf78c6d54434b5f9ccdd4c3913bea876a9fd8360405161255891815260200190565b60405180910390a2505050565b6001600160a01b038216612577575050565b6000826001600160a01b03168260405160006040518083038185875af1925050503d80600081146125c4576040519150601f19603f3d011682016040523d82523d6000602084013e6125c9565b606091505b50509050806125eb576040516312171d8360e31b815260040160405180910390fd5b826001600160a01b03167f5d6c418cec2d4b92f1c8414ec09c6e3a58c94534413fdc0a906e85eb548a4f548360405161255891815260200190565b60006126306118b3565b54600160401b900460ff16919050565b6000818152600183016020526040812054612687575081546001818101845560008481526020808220909301849055845484825282860190935260409020919091556109b6565b5060006109b6565b600081815260018301602052604081205480156120b85760006126b3600183612e01565b85549091506000906126c790600190612e01565b905080821461272c5760008660000182815481106126e7576126e7612d19565b906000526020600020015490508087600001848154811061270a5761270a612d19565b6000918252602080832090910192909255918252600188019052604090208390555b855486908061273d5761273d612e14565b6001900381819060005260206000200160009055905585600101600086815260200190815260200160002060009055600193505050506109b6565b806001600160a01b03163b6000036127ae57604051634c9c8ce360e01b81526001600160a01b0382166004820152602401611c3a565b600080516020612e6783398151915280546001600160a01b0319166001600160a01b0392909216919091179055565b6060600080846001600160a01b0316846040516127fa9190612e2a565b600060405180830381855af49150503d8060008114612835576040519150601f19603f3d011682016040523d82523d6000602084013e61283a565b606091505b509150915061284a858383612911565b95945050505050565b34156118e45760405163b398979f60e01b815260040160405180910390fd5b6000828152602081905260408120815b602582015460ff90811690821610156128f757836001600160a01b0316826001018260ff16600c81106128b7576128b7612d19565b60030201546001600160a01b0316036128ef57816001018160ff16600c81106128e2576128e2612d19565b60030201925050506109b6565b600101612882565b50604051636bad456160e01b815260040160405180910390fd5b606082612926576129218261296d565b611297565b815115801561293d57506001600160a01b0384163b155b1561296657604051639996b31560e01b81526001600160a01b0385166004820152602401611c3a565b5092915050565b80511561297c57805160208201fd5b60405163d6bda27560e01b815260040160405180910390fd5b60405180606001604052806003906020820280368337509192915050565b6000602082840312156129c557600080fd5b81356001600160e01b03198116811461129757600080fd5b6000602082840312156129ef57600080fd5b5035919050565b80356001600160a01b0381168114612a0d57600080fd5b919050565b600080600080600060a08688031215612a2a57600080fd5b612a33866129f6565b9450612a41602087016129f6565b9350612a4f604087016129f6565b9250612a5d606087016129f6565b9150612a6b608087016129f6565b90509295509295909350565b60008060408385031215612a8a57600080fd5b82359150612a9a602084016129f6565b90509250929050565b60008060408385031215612ab657600080fd5b612abf836129f6565b9150612a9a602084016129f6565b634e487b7160e01b600052604160045260246000fd5b60008060408385031215612af657600080fd5b612aff836129f6565b9150602083013567ffffffffffffffff80821115612b1c57600080fd5b818501915085601f830112612b3057600080fd5b813581811115612b4257612b42612acd565b604051601f8201601f19908116603f01168101908382118183101715612b6a57612b6a612acd565b81604052828152886020848701011115612b8357600080fd5b8260208601602083013760006020848301015280955050505050509250929050565b600060208284031215612bb757600080fd5b611297826129f6565b60005b83811015612bdb578181015183820152602001612bc3565b50506000910152565b6020815260008251806020840152612c03816040850160208701612bc0565b601f01601f19169190910160400192915050565b60008060408385031215612c2a57600080fd5b50508035926020909101359150565b60008060408385031215612c4c57600080fd5b612c55836129f6565b915060208301358015158114612c6a57600080fd5b809150509250929050565b6020808252825182820181905260009190848201906040850190845b81811015612cb65783516001600160a01b031683529284019291840191600101612c91565b50909695505050505050565b60008060408385031215612cd557600080fd5b82359150602083013560ff81168114612c6a57600080fd5b60008060408385031215612d0057600080fd5b82359150602083013561ffff81168114612c6a57600080fd5b634e487b7160e01b600052603260045260246000fd5b634e487b7160e01b600052601160045260246000fd5b600060ff821660ff8103612d5b57612d5b612d2f565b60010192915050565b808201808211156109b6576109b6612d2f565b600060018201612d8957612d89612d2f565b5060010190565b600060208284031215612da257600080fd5b5051919050565b600082612dc657634e487b7160e01b600052601260045260246000fd5b500490565b60ff82811682821603908111156109b6576109b6612d2f565b600060ff821680612df757612df7612d2f565b6000190192915050565b818103818111156109b6576109b6612d2f565b634e487b7160e01b600052603160045260246000fd5b60008251612e3c818460208701612bc0565b919091019291505056fec1f6fe24621ce81ec5827caf0253cadb74709b061630e6b55e82371705932000360894a13ba1a3210667c828492db98dca3e2076cc3735a920a3ca505d382bbc02dd7bc7dec4dceedda775e58dd541e08a116c6c53815c0bd028192f7b626800cd5ed15c6e187e77e9aee88184c21f4f2182ab5827cb3b7e07fbedcd63f033009b779b17422d0df92223018b32b4d1fa46e071723d6817e2486d003becc55f00a49807205ce4d355092ef5a8a18f56e8913cf4a201fbe287825b095693c21775a264697066735822122026640b15581934f986a93cd41d6351bf0911cfa129ccad8e2f7ea10da7c9b9a964736f6c63430008160033",
  "linkReferences": {},
  "deployedLinkReferences": {}
}